:100000000C9486020C94AE020C94AE020C94AE02D8
:100010000C94AE020C94AE020C94AE020C945824D4
:100020000C94AE020C94AE020C94AE020C94AE0290
:100030000C94AE020C94D10B0C94AE020C94AE0254
:100040000C94AB1D0C94AE020C9414200C94AE02D4
:100050000C94AE020C94AE020C94AE020C94AE0260
:100060000C9471060C94AE0207634236B79BD8A776
:100070001A39685618AEBAAB558C1D3CB7CC5763CD
:10008000BD6DEDFD753EF6177231BF000000803F7B
:1000900008000000BE922449123EABAAAA2ABECD97
:1000A000CCCC4C3E00000080BEABAAAAAA3E000009
:1000B0000000BF000000803F000000000008417801
:1000C000D3BB4387D1133D190E3CC3BD4282AD2B38
:1000D0003E68EC8276BED98FE1A93E4C80EFFFBE30
:1000E00001C4FF7F3F00000000006F70656E616C0F
:1000F00074696D65746572206669726D7761726589
:100100002076657273696F6E3A2056352E0A005359
:10011000657474696E6720757020646174617374AE
:100120006F7265202E2E2E0020646F6E652E0A00E1
:1001300045726173696E67202E2E2E20004C6F670A
:1001400067696E672064697361626C65642E0A007A
:100150004C6F6767696E6720656E61626C65642EBF
:100160000A004E756D626572206F662066696C6567
:10017000733A20004E756D626572206F6620656E61
:1001800074726965733A20004D617820656E7472EF
:100190006965733A200052756E6E696E67206469F6
:1001A00061676E6F73746963207465737473202E56
:1001B0002E2E200A00446961676E6F737469632094
:1001C000746573747320646F6E652E0A00466C61EB
:1001D0007368206D616E75666163747572657220F7
:1001E000696E666F3A200054657374696E672066A5
:1001F0006C6173682E0A0057726974696E67202EED
:100200002E2E200052656164696E67202E2E2E20EE
:1002100000546573743A205041535345442E0A00EC
:1002200054657374696E67206261747465727920B5
:100230006D6F6E69746F722E0A004261747465721C
:10024000793A200054657374696E67206265657041
:100250006572202E2E2E200053697A65206F66204D
:100260006C6F6720656E747279203A200053657454
:1002700074696E6720616C74696D65746572206263
:100280006173652070726573737572653A20004CF6
:1002900049504F202D206E756D626572206F66206B
:1002A00063656C6C733A2000536F756E64696E679A
:1002B000206C6F7720766F6C7461676520616C616C
:1002C000726D2E0A0053746F7070696E67206C6FC8
:1002D0007720766F6C7461676520616C61726D2E3A
:1002E0000A00536F756E64696E67206C6F737420BB
:1002F0006D6F64656C20616C61726D2E0A005374C1
:100300006F7070696E67206C6F7374206D6F6465B9
:100310006C20616C61726D2E0A0046616B696E67BC
:1003200020666C69676874202E2E2E2000466C6152
:100330007368206D656D6F72792066756C6C2E0A1E
:1003400000546573743A204641494C45442E0A00D6
:100350004461746120666F726D61743A2056310A8F
:100360000045726173696E672073657474696E67A6
:1003700073202E2E2E0054657374696E672073658A
:100380007474696E67732073746F7265202E2E2EDD
:100390000053657474696E677320666F726D617463
:1003A0003A2056340A004C6F6720696E7465727685
:1003B000616C3A200048656967687420756E6974DD
:1003C000733A2000426174746572792074797065A3
:1003D0003A20006E6F20626174746572790A004C75
:1003E00049504F20626174746572790A004E494D1C
:1003F0004820626174746572790A004C6F772076C8
:100400006F6C74616765207468726573686F6C6483
:100410003A200042617474657279206D6F6E697460
:100420006F722063616C6962726174696F6E3A20E9
:10043000004C6F6720736572766F3A2000546872C3
:10044000656520706F736974696F6E207377697466
:1004500063683A2000EA000F01280130013D015095
:10046000016201740188019601B501CD01E701F730
:10047000010402110220023A02440258026D028F66
:1004800002A802C502E202FE021A032D0341035034
:1004900003610376039103A603B503C403D303DF0B
:1004A00003ED03FB03130431043D040200000000CC
:1004B000240027002A0000000000250028002B004F
:1004C00000000000230026002900040404040404A2
:1004D00004040202020202020303030303030102F3
:1004E00004081020408001020408102001020408C2
:1004F00010200000000700020100000304060000B5
:1005000000000000000079050115BF2111241FBE65
:10051000CFEFD8E0DEBFCDBF12E0A0E0B1E0ECE568
:10052000F6E502C005900D92AE36B107D9F714E09A
:10053000AEE6B2E001C01D92AC39B107E1F715E0BB
:10054000CCE0D5E004C02297FE010E94F12AC6301B
:10055000D107C9F70E94F9210C942C2B0C940000B0
:10056000FB01DC0105900D920020E1F70895AEE05B
:10057000B0E0EDEBF2E00C94032B0D891E8986E0D0
:100580008C831A8309838FEF9FE79E838D839E015F
:10059000275E3F4FCE0101966F89788DA9010E9499
:1005A000DB022F813885020F131FF80110822E966F
:1005B000E4E00C941F2BABE0B0E0E1EEF2E00C9431
:1005C000F52A3C012B015A01FC0117821682838116
:1005D00081FD03C06FEF7FEFC6C19AE0892E1E0137
:1005E0000894211C311CF3012381F20123FD859124
:1005F00023FF81912F01882309F4B2C1853239F498
:1006000023FD859123FF81912F01853229F490E00C
:10061000B3010E94CE04E7CF982FFF24EE24992443
:10062000FFE1FF15D0F09B3269F09C3228F4903244
:1006300059F0933291F40EC09D3249F0903369F431
:1006400041E024C052E0F52A84E0F82A28C098E06E
:10065000F92A25C0E0E1FE2A22C0F7FC29C0892F33
:1006600080538A3070F4F6FE05C0989C902C1124BB
:10067000980E15C0E89CE02C1124E80EF0E2FF2A49
:100680000EC09E3229F4F6FC6BC140E4F42A07C088
:100690009C3619F450E8F52A02C0983649F4F20164
:1006A00023FD959123FF91912F01992309F0B8CF54
:1006B000892F8554833018F08052833038F444E019
:1006C00050E0A40EB51E5FE359830FC0933631F09E
:1006D000933779F0933509F056C020C0F501808139
:1006E000898342E050E0A40EB51E610101E010E0F4
:1006F00012C0F501C080D180F6FC03C06FEF7FEF20
:1007000002C0692D70E042E050E0A40EB51EC601A3
:100710000E94C3048C015FE7F52214C0F501C0807C
:10072000D180F6FC03C06FEF7FEF02C0692D70E04F
:1007300042E050E0A40EB51EC6010E94B8048C0130
:1007400050E8F52AF3FE07C01AC080E290E0B3013A
:100750000E94CE04EA948E2D90E008171907A8F3A2
:100760000EC0F601F7FC8591F7FE81916F0190E0D4
:10077000B3010E94CE04E110EA940150104001152B
:10078000110579F7EAC0943611F0993669F5F7FE4C
:1007900008C0F501208131814281538184E090E0DD
:1007A0000AC0F501808191819C01442737FD409565
:1007B000542F82E090E0A80EB91E9FE6F92257FF61
:1007C00009C050954095309521953F4F4F4F5F4F51
:1007D000E0E8FE2ACA01B901A1012AE030E00E9446
:1007E000FA04D82ED21840C0953729F41F2D1F7E49
:1007F0002AE030E01DC01F2D197F9F3661F0903731
:1008000020F4983509F0ACC00FC0903739F0983714
:1008100009F0A6C004C028E030E00AC0106114FD51
:10082000146020E130E004C014FD166020E132E0E5
:1008300017FF08C0F501608171818281938144E0D6
:1008400050E008C0F50180819181BC0180E090E01A
:1008500042E050E0A40EB51EA1010E94FA04D82E79
:10086000D2188FE7F82EF122F6FE0BC05EEFF522CC
:10087000D91438F4F4FE07C0F2FC05C08FEEF8225C
:1008800002C01D2D01C0192DF4FE0DC0FE01ED0D9D
:10089000F11D8081803319F499EEF92208C01F5FA1
:1008A000F2FE05C003C08F2D867809F01F5F0F2D63
:1008B000F3FC14C0F0FE0FC01E1510F09D2C0BC0F1
:1008C0009D2C9E0C911A1E2D06C080E290E0B30173
:1008D0000E94CE041F5F1E15C0F304C01E1510F445
:1008E000E11A01C0EE2404FF0FC080E390E0B301E1
:1008F0000E94CE0402FF1DC001FD03C088E790E006
:100900000EC088E590E00BC0802F867891F001FF43
:1009100002C08BE201C080E2F7FC8DE290E0B301FF
:100920000E94CE0406C080E390E0B3010E94CE0492
:100930009A94D914C0F3DA94F101ED0DF11D808180
:1009400090E0B3010E94CE04DD20A9F706C080E24A
:1009500090E0B3010E94CE04EA94EE20C1F743CEAA
:10096000F30166817781CB012B96E2E10C94112B88
:10097000FC010590615070400110D8F7809590956A
:100980008E0F9F1F0895FC0161507040019001106F
:10099000D8F7809590958E0F9F1F08950F931F9302
:1009A000CF93DF938C01EB018B8181FF1BC082FF12
:1009B0000DC02E813F818C819D812817390764F4F9
:1009C000E881F9810193F983E88306C0E885F98518
:1009D000802F0995892B31F48E819F8101969F8309
:1009E0008E8302C00FEF1FEFC801DF91CF911F91DF
:1009F0000F910895FA01AA27283051F1203181F191
:100A0000E8946F936E7F6E5F7F4F8F4F9F4FAF4F16
:100A1000B1E03ED0B4E03CD0670F781F891F9A1F29
:100A2000A11D680F791F8A1F911DA11D6A0F711DDD
:100A3000811D911DA11D20D009F468943F912AE0E9
:100A4000269F11243019305D3193DEF6CF010895D1
:100A5000462F4770405D4193B3E00FD0C9F7F6CF02
:100A6000462F4F70405D4A3318F0495D31FD4052CA
:100A7000419302D0A9F7EACFB4E0A6959795879560
:100A800077956795BA95C9F700976105710508953F
:100A90009B01AC010A2E06945795479537952795EB
:100AA000BA95C9F7620F731F841F951FA01D089583
:100AB00081E08093B302609390021092B102109291
:100AC000B202089580918F0290918E02891B089541
:100AD00090918E0280918F02981710F080E0089517
:100AE000E92FF0E0E259FD4F80819F5F90938E02E5
:100AF00008950895DF93CF930F92CDB7DEB7698342
:100B00008091B302882389F08091B202803290F400
:100B10008091B102E82FF0E0EF56FD4F60838F5FC8
:100B20008093B1028093B20205C0CE01019661E0CC
:100B30000E9456060F90CF91DF9108958091900208
:100B400061E972E04091B20221E00E941306109226
:100B5000B1021092B2021092B3020895413208F02D
:100B600040E2862F6EE672E00E94DC0510928E0253
:100B700080938F0208950E94AE05089510928E0210
:100B800010928F021092B1021092B2020E94C90517
:100B900008951092B502449A459AE9EBF0E08081FD
:100BA0008E7F808380818D7F808388E48093B800EE
:100BB00085E48093BC000895982F413210F040E006
:100BC00030C08091B5028823E1F781E08093B502BF
:100BD0008FEF809320031092DB0241504093DC02A0
:100BE0004F5F990F91609093B60285EE8093BC00A1
:100BF0008091B5028130E1F38091DB02841710F41B
:100C00004091DB0220E030E00AC0FB01E20FF31F5D
:100C1000D901A554BD4F8C9180832F5F3F4F24177E
:100C2000A0F3842F08951F93582F122F413210F0F4
:100C300081E03AC08091B5028823E1F782E0809399
:100C4000B5028FEF809320031092DB024093DC0209
:100C5000ABEBB2E0FB0102C081918D938E2F861B1E
:100C60008417D0F3852F90E0880F991F8093B602E8
:100C700085EE8093BC00112321F08091B502823073
:100C8000E1F3809120038F3F11F480E00DC080914B
:100C90002003803211F482E007C08091200380336A
:100CA00011F084E001C083E01F910895482F613264
:100CB00010F081E008958091B502843011F082E057
:100CC00008956093FE02ADEDB2E0842F9C01F9011E
:100CD00002C081918D938E2F841B8617D0F380E004
:100CE00008951F920F920FB60F9211242F933F93E6
:100CF0004F935F936F937F938F939F93AF93BF9324
:100D0000EF93FF938091B90090E0887F90708036D8
:100D1000910509F4DCC081369105CCF58832910546
:100D200009F47BC089329105B4F48031910509F44E
:100D30006FC0813191053CF4009709F431C10897E7
:100D400009F039C165C08831910509F466C0809702
:100D500009F031C17DC08034910509F49FC0813410
:100D6000910544F48033910509F47DC0C89709F0DA
:100D700022C184C08035910509F484C0883591056D
:100D800009F491C08834910509F015C198C08839DB
:100D9000910509F4FDC089399105ECF48837910576
:100DA00009F495C0893791054CF48836910509F40A
:100DB0008EC08037910509F0FEC089C08838910542
:100DC00009F4E6C08039910509F487C0803891059F
:100DD00009F0F1C082C0803B910509F4B0C0813BAD
:100DE00091054CF4803A910509F489C0883A91053F
:100DF00009F0E1C0A4C0803C910509F4CDC0883C55
:100E0000910509F4C9C0883B910509F0D4C0ACC074
:100E10008091B6028093BB00B9C09091DB028091B3
:100E2000DC02981768F49091DB02E92FF0E0E554BA
:100E3000FD4F80818093BB009F5F9093DB02A6C033
:100E400085ED8093BC008091BC0084FDFCCFB1C0D7
:100E500080E28093200385ED8093BC008091BC00EC
:100E600084FDFCCFA6C080E38093200385ED8093B2
:100E7000BC008091BC0084FDFCCF9BC088E38093C4
:100E800020038AC08091DB029091BB00E82FF0E044
:100E9000E554FD4F90838F5F8093DB029091DB02DE
:100EA0008091DC0271C08091DB029091BB00E82F41
:100EB000F0E0E554FD4F90838F5F8093DB0285ED7A
:100EC0008093BC008091BC0084FDFCCF72C083E0A5
:100ED0008093B50210921F0359C080911F03803286
:100EE00008F056C080911F039091BB00E82FF0E0FE
:100EF000E150FD4F90838F5F80931F0347C0809127
:100F00001F03803230F4E0911F03F0E0E150FD4F09
:100F1000108285ED8093BC008091BC0084FDFCCFE5
:100F20001092B50260911F03E091B902F091BA02EC
:100F30008FEF92E070E0099510921F032DC084E0BE
:100F40008093B5021092FD021092FE02E091B7026A
:100F5000F091B80209958091FE02882329F481E07E
:100F60008093FE021092DD029091FD02E92FF0E0E5
:100F7000E352FD4F80818093BB009F5F9093FD0201
:100F80009091FD028091FE02981710F485EC01C04B
:100F900085E88093BC000FC085EC8093BC0009C03D
:100FA0001092200385ED8093BC008091BC0084FDED
:100FB000FCCF1092B502FF91EF91BF91AF919F913D
:100FC0008F917F916F915F914F913F912F910F90F2
:100FD0000FBE0F901F901895F999FECF72BD61BD9D
:100FE000F89A80B50895F999FECF1FBA72BD61BD18
:100FF00040BD0FB6F894FA9AF99A0FBE0895FC0115
:10100000718360830895BF92CF92DF92EF92FF9237
:101010000F931F93B42EE52E86EEC82E83E0D82EB4
:10102000C6010E947C1DC6016E2D0E947C1DC6015A
:101030006B2D0E947C1D1F910F91FF90EF90DF9010
:10104000CF90BF900895AF92BF92CF92DF92EF9270
:10105000FF921F93CF93DF937C01162F5A016901F2
:10106000FC016081718186EE93E00E94871D86EE0F
:1010700093E0612F0E947C1DC0E0D0E009C0F50123
:10108000EC0FFD1F86EE93E060810E947C1D21968F
:10109000CC15DD05A4F3F7016081718186EE93E044
:1010A0000E94821DDF91CF911F91FF90EF90DF9002
:1010B000CF90BF90AF900895AF92BF92CF92DF9242
:1010C000EF92FF921F93CF93DF937C01162F5A016B
:1010D0006901FC016081718186EE93E00E94871DA9
:1010E00086EE93E0612F0E947C1DC0E0D0E00AC034
:1010F00086EE93E060E00E947C1DF501EC0FFD1F81
:1011000080832196CC15DD059CF3F7016081718108
:1011100086EE93E00E94821DDF91CF911F91FF9098
:10112000EF90DF90CF90BF90AF90089540E050E0F7
:1011300020E030E00E945C08089564E00E94960878
:1011400008950F931F93DF93CF930F92CDB7DEB720
:101150008C01198261E0AE014F5F5F4F21E030E00A
:101160000E942308C80166E00E9496080F90CF9164
:10117000DF911F910F910895DF93CF930F92CDB719
:10118000DEB765E0AE014F5F5F4F21E030E00E94C7
:101190005C0889810F90CF91DF910895CF93DF9301
:1011A000EC01CE010E94BC0880FDFBCFDF91CF9106
:1011B00008950F931F938C010E94A108C80167EC4A
:1011C0000E949608C8010E94CE081F910F910895B1
:1011D0004F925F926F927F928F929F92AF92BF9247
:1011E000CF92DF92EF92FF920F931F93CF93DF93F3
:1011F000EC015A016B012901370148010E94A10845
:101200006881798186EE93E00E94871D86EE93E0E7
:101210006DEA0E947C1DCE01B601A5010E94030863
:1012200086EE93E0F20160810E947C1D68817981E5
:1012300086EE93E00E94821DCE010E94CE08EE242D
:10124000FF2487011CC06881798186EE93E00E94AB
:10125000871D86EE93E06DEA0E947C1DF201EE0D83
:10126000FF1D86EE93E060810E947C1D688179817C
:1012700086EE93E00E94821DCE010E94CE08089463
:10128000E11CF11C011D111DE614F70408051905E8
:10129000D0F2CE010E949D08DF91CF911F910F9156
:1012A000FF90EF90DF90CF90BF90AF909F908F9086
:1012B0007F906F905F904F9008954F925F926F92E2
:1012C0007F928F929F92AF92BF92CF92DF92EF92D6
:1012D000FF920F931F93CF93DF93EC015A016B01A1
:1012E0002901370148016881798186EE93E00E94E7
:1012F000871D86EE93E06BE00E947C1DCE01B60157
:10130000A5010E94030886EE93E060E00E947C1D28
:10131000EE24FF2487010EC086EE93E060E00E9479
:101320007C1DF201EE0DFF1D80830894E11CF11C71
:10133000011D111DE614F7040805190568F36881FD
:10134000798186EE93E00E94821DDF91CF911F91FB
:101350000F91FF90EF90DF90CF90BF90AF909F9054
:101360008F907F906F905F904F9008952F923F9253
:101370004F925F926F927F928F929F92AF92BF92A5
:10138000CF92DF92EF92FF920F931F93DF93CF9351
:10139000CDB7DEB7C250D1400FB6F894DEBF0FBE56
:1013A000CDBF2C018CE090E00E94AC1B83E090E06C
:1013B0000E94AC1BC2010E94D90882E090E00E940A
:1013C000AC1B8DE090E00E94AC1BFE013196CE017B
:1013D0008F579F4F1192E817F907E1F7AA24BB2412
:1013E00065014E010894811C911CC201B601A50142
:1013F0009401A0E8EA2EF12C012D112D0E94E8089D
:10140000AE0CBF1CC01ED11E80E0A81680E4B8063A
:1014100080E0C80680E0D80641F782E090E00E94B4
:10142000AC1B8EE090E00E94AC1BAA24BB2465019B
:10143000662477244301F1E82F2E312C2C0E3D1E1B
:10144000DE01AF5FBE4FCF5FDE4FB983A883C150CF
:10145000D140C201B401A3019101E0E8EE2EF12CCC
:10146000012D112D0E945D09F10120E030E040E0E6
:1014700050E08191280F311D411D511DCF5FDE4F7E
:1014800088819981C150D140E817F90791F721155A
:1014900031054105510591F084E794E060E071E089
:1014A0000E94372284E794E0B601A5012AE030E0EB
:1014B0000E9448238CE190E00E94AC1B0894A11C80
:1014C000B11CC11CD11C80E890E0A0E0B0E0680E27
:1014D000791E8A1E9B1E90E8A916B104C104D1048E
:1014E00009F0B7CF82E090E00E94AC1B83E090E06F
:1014F0000E94AC1BC2010E94D90882E090E00E94C9
:10150000AC1B8FE090E00E94AC1BCE5FDE4F0FB6AD
:10151000F894DEBF0FBECDBFCF91DF911F910F9129
:10152000FF90EF90DF90CF90BF90AF909F908F9003
:101530007F906F905F904F903F902F9008950F9302
:101540001F938C01FC01808161E00E94C61EC801CE
:101550000E94A1081F910F910895FC01718360837F
:101560000895FC01828193810895CF92DF92EF92DA
:10157000FF920F931F938C01FC0165817681878117
:10158000908521EE3AE746E95CE30E94A2286B01D0
:101590007C01F80180810E94A41EAA2797FDA095D6
:1015A000BA2FBC01CD010E94EE279B01AC01C701FF
:1015B000B6010E94A2281F910F91FF90EF90DF903B
:1015C000CF900895EF92FF920F931F938C0180E1CB
:1015D00090E00E94AC1B81E190E00E94AC1BC8012E
:1015E0000E94B50A7B018C0184E794E0B801A70151
:1015F00022E030E00E942C24C801B7012CE53FE82E
:1016000042EA50E40E944F2788236CF4C801B701D6
:1016100024EA30E74DE950E40E949E2818161CF495
:101620008FE090E002C08CE190E00E94AC1B1F9123
:101630000F91FF90EF900895DF92EF92FF920F933A
:101640001F93CF93DF93EC0189859A85029711F45C
:10165000DD2452C0CE010E94B50A7B018C01898530
:101660009A858130910529F58C812A813B818823D7
:1016700089F0DD24B901882777FD8095982F0E9495
:10168000EE279B01AC01C801B7010E9453277B01E3
:101690008C0115C0DD24B901882777FD8095982F2E
:1016A0000E94EE279B01AC01C801B7010E9453279D
:1016B00018C0892B01F58C81882381F0DD246B858E
:1016C0007C858D859E852DEC3CEC4CE45EE30E9490
:1016D000EB269B01AC01C801B70107C0DD24C8019E
:1016E000B7012B853C854D855E850E944F27882359
:1016F00014F4DD24D394DC828D2DDF91CF911F91E2
:101700000F91FF90EF90DF900895EF92FF920F936B
:101710001F93CF93DF93EC011C827A8769872D8317
:101720003E834F835887EB86FC860D871E8761308A
:101730007105A9F40E94B50A2AE939E949E051E4A2
:101740000E944F27992787FD90958827990F881F1A
:10175000992723E030E0281B390B3B832A83DF9154
:10176000CF911F910F91FF90EF90089506C06AE00E
:1017700070E080E090E00E940D1E80912A03882393
:10178000B1F764E670E080E090E00E940D1E0895DD
:10179000809122030E94BD2410926F0010922A03B0
:1017A00008951F920F920FB60F9211242F933F931B
:1017B0004F935F936F937F938F939F93AF93BF9359
:1017C000EF93FF93809128039091290301979093C1
:1017D000290380932803892B09F04EC080912603AA
:1017E0009091270301969093270380932603880FF7
:1017F000991F880F991FE0912403F0912503E80FAA
:10180000F91F608171818FEF6F3F780719F40E9493
:10181000C80B32C08FEF6E3F780749F48FEF9FEF10
:10182000909327038093260381E090E021C08FEFFF
:101830006D3F780729F4809122030E94BD2408C0DF
:101840008091220320E030E040E050E00E94D42468
:101850008091260390912703880F991F880F991F65
:10186000E0912403F0912503E80FF91F8281938111
:101870009093290380932803FF91EF91BF91AF913B
:101880009F918F917F916F915F914F913F912F9198
:101890000F900FBE0F901F901895FF920F931F93FC
:1018A0008C01FF24F394F0922A03909325038093F4
:1018B0002403FC01608171818091220320E030E0EB
:1018C00040E050E00E94D424109227031092260397
:1018D000F8018281938190932903809328031092C9
:1018E000800083E1809381008AE196E090938700F5
:1018F00080938600F0926F001F910F91FF900895E2
:10190000DF93CF93CDB7DEB766970FB6F894DEBFFF
:101910000FBECDBF82E190E00E94AC1BDE011196AC
:10192000E5E4F2E086E101900D928150E1F7CE010D
:1019300001960E944D0C0E94B60B82E090E00E943E
:10194000AC1B66960FB6F894DEBF0FBECDBFCF912D
:10195000DF9108952F923F924F925F926F927F9204
:101960008F929F92AF92BF92CF92DF92EF92FF92AF
:101970000F931F93DF93CF93CDB7DEB728970FB6A2
:10198000F894DEBF0FBECDBF7C012DB63EB684E716
:1019900094E061E271E00E94372284E794E0B701AD
:1019A0004AE050E00E94822300D000D000D0EDB782
:1019B000FEB731968E010F5F1F4FADB7BEB71296BF
:1019C0001C930E9311978DE291E093838283F582AD
:1019D000E4820E94B702F80101900020E9F7BF01FC
:1019E00061507040601B710B8DB79EB706960FB6A5
:1019F000F8949EBF0FBE8DBFADB7BEB7A61BB70B89
:101A00000FB6F894BEBF0FBEADBFEDB6FEB60894DC
:101A1000E11CF11C20E030E00BC0F701E20FF31FE6
:101A2000D801A20FB31F8C91805380832F5F3F4F4B
:101A30002617370794F320E030E040E050E013C071
:101A4000F701E40FF51F8081882319F4285F3F4FC9
:101A500008C0992787FD9095880F991F0196280F38
:101A6000391F4F5F5F4F4617570754F32F5F3F4FA4
:101A7000220F331F220F331FEDB7FEB7E21BF30B0C
:101A80000FB6F894FEBF0FBEEDBF4DB75EB74F5F08
:101A90005F4F20E030E000E010E0B8EB8B2EBBE0C1
:101AA0009B2EA2E0AA2EB12CFDEFCF2EFFEFDF2E52
:101AB000E5E06E2E712C9FE0492E512C7DC0F70180
:101AC000E00FF11FE081D901AA0FBB1FEE23F9F04F
:101AD000A40FB51F80E090E0FF27E7FDF09513C04D
:101AE00011969C928E9213967C926E9212971596F6
:101AF000DC92CE92149717967C926E9216972C5F7A
:101B00003F4F019618968E179F0754F340C0A40FBD
:101B1000B51F8D929C92C9010196FC01EE0FFF1F2B
:101B2000E40FF51FB182A0820196FC01EE0FFF1FAA
:101B3000E40FF51FD182C0820196FC01EE0FFF1F5A
:101B4000E40FF51FB182A0820196FC01EE0FFF1F8A
:101B5000E40FF51F918280820196FC01EE0FFF1FBA
:101B6000E40FF51FB182A0820196FC01EE0FFF1F6A
:101B7000E40FF51FD182C0820196FC01EE0FFF1F1A
:101B8000E40FF51FB182A0829C012F5F3F4FF90146
:101B9000EE0FFF1FE40FF51FD182C082C90101962D
:101BA000FC01EE0FFF1FE40FF51F518240829C01E4
:101BB0002F5F3F4F0F5F1F4F061717070CF47FCFA4
:101BC000220F331F240F351F8FEF9FEFD9018D9305
:101BD0009C93CA010E944D0C0E94B60B6CE271E00E
:101BE00080E090E00E940D1E0FB6F8943EBE0FBE3E
:101BF0002DBE28960FB6F894DEBF0FBECDBFCF9195
:101C0000DF911F910F91FF90EF90DF90CF90BF90E9
:101C1000AF909F908F907F906F905F904F903F908C
:101C20002F900895809322039093230361E00E94F4
:101C3000C61E8091220360E00E94EC1E0895FC0104
:101C400071876087538742873587248708952F924D
:101C50003F925F926F927F928F929F92AF92BF92CC
:101C6000CF92DF92EF92FF920F931F93DF93CF9368
:101C700000D000D0CDB7DEB71C01DC0158962D9105
:101C80003C91599740E050E098966D917D918D91EF
:101C90009C919B97621B730B840B950B56962D9111
:101CA0003C91579740E050E00E946C2A7B018C01E8
:101CB0003FE016950795F794E7943A95D1F7F1012F
:101CC00060A171A1882777FD8095982F2BE0660F82
:101CD000771F881F991F2A95D1F722A133A1442786
:101CE00037FD4095542F2E0D3F1D401F511F0E9460
:101CF000D42A59016A01AE0CBF1CC01ED11E88E057
:101D000090E0A0E0B0E0A80EB91ECA1EDB1ED6010E
:101D1000C50114E0B595A795979587951A95D1F7C4
:101D2000F10180839183A283B38388E590EFAFEFC5
:101D3000BFEFA80EB91ECA1EDB1EC601B501A60163
:101D400095010E946C2A3B014C01ACE0959487946C
:101D500077946794AA95D1F7D1011C965C901C9753
:101D600052962D913C915397442737FD4095542F1F
:101D7000C601B5010E946C2A7B018C01FDE015951E
:101D80000795F794E794FA95D1F782E090E0A0E008
:101D9000B0E0E80EF91E0A1F1B1FD1015A962D91C3
:101DA0003C915B97442737FD4095542FC401B30104
:101DB0000E946C2ABC01992777FD9095892FE60E29
:101DC000F71E081F191F52E015950795F794E79421
:101DD0005A95D1F780E090E8A0E0B0E0E80EF91E57
:101DE0000A1F1B1FD10154962D913C91559740E03D
:101DF00050E0C801B7010E946C2ADC01CB014FE022
:101E0000B695A795979587954A95D1F789839A8333
:101E1000AB83BC83D10150962D913C9151974427BF
:101E200037FD4095542FC601B5010E946C2A7B01F5
:101E30008C013BE015950795F794E7943A95D1F717
:101E4000F10186859785AA2797FDA095BA2F22E0F4
:101E5000880F991FAA1FBB1F2A95D1F7E80EF91EFC
:101E60000A1F1B1F248D358D442737FD4095542FA5
:101E7000C401B3010E946C2AABE0959587957795D4
:101E80006795AA95D1F7E60EF71E081F191F052CB6
:101E900004C0EE0CFF1C001F111F0A94D2F7F2E0E1
:101EA00015950795F794E794FA95D1F7D1019C968B
:101EB0006D917D918D919C919F976E197F09800BFB
:101EC000910B20E533EC40E050E004C05595479578
:101ED000379527955A94D2F70E946C2A97FD0FC028
:101EE000660F771F881F991F29813A814B815C817A
:101EF0000E94B22AC901DA015C016D010CC029817E
:101F00003A814B815C810E94B22A59016A01AA0C74
:101F1000BB1CCC1CDD1C5527D7FC5A954D2D3C2DE8
:101F20002B2DCA01B9010E946C2A2EED3BE040E046
:101F300050E00E946C2A7B018C01C601B50123E4AC
:101F400033EE4FEF5FEF0E946C2ABC01992777FDBB
:101F50009095892F6153714F8F4F9F4F78011127B3
:101F6000F7FC1095012F6E0D7F1D801F911F24E03F
:101F700095958795779567952A95D1F76A0D7B1D7D
:101F80008C1D9D1DF10164837583868397830F905B
:101F90000F900F900F90CF91DF911F910F91FF90B5
:101FA000EF90DF90CF90BF90AF909F908F907F90F9
:101FB0006F905F903F902F900895FC0164A175A1F0
:101FC00086A197A10895EF92FF920F931F93162F6A
:101FD000042F44EBE42E42E0F42EC70167E770E0E3
:101FE0000E945805C701612F0E947A05C701602F22
:101FF0000E947A05C7010E949E051F910F91FF90D4
:10200000EF9008951F93162F84EB92E067E770E03E
:102010000E94580584EB92E0612F0E947A0584EBC0
:1020200092E00E949E0584EB92E067E770E041E059
:1020300050E00E94BB0584EB92E00E946205882379
:10204000D1F384EB92E00E9468051F910895AF924E
:10205000BF92CF92DF92EF92FF920F931F935C019A
:10206000D62E0E940210E82ED394C5016D2D0E9439
:102070000210C82ED394C5016D2D0E940210FF24BA
:1020800000E010E08701FF24EE24E80EF11C011DA2
:10209000111D9C2D80E0A0E0B0E0E80EF91E0A1FA3
:1020A0001B1FB701C8011F910F91FF90EF90DF90A8
:1020B000CF90BF90AF900895EF92FF920F931F9330
:1020C0007C01162F0E940210082F1F5FC701612F8D
:1020D0000E940210302F20E0280F311DC9011F91EE
:1020E0000F91FF90EF9008958F929F92AF92BF92C1
:1020F000CF92DF92EF92FF920F931F936C014801F2
:102100005901CB01BA010E94EC277B018C01F60139
:1021100064A175A186A197A10E94EC279B01AC0147
:10212000C801B7010E94532721E33CE043E45EE38A
:102130000E9405297B018C01C501B40120E03AE22F
:102140004DE257E40E94A2285B016C0160E070E060
:1021500080E89FE3A80197010E94EA269B01AC0159
:10216000C601B5010E94A2280E94BB279B01AC01B9
:10217000CA011F910F91FF90EF90DF90CF90BF9019
:10218000AF909F908F900895CF93DF93EC014C8593
:102190004295440F440F407C4C5C64EF0E94E30F77
:1021A0008A859B85892B01F58C859D8581309105DC
:1021B00051F08230910571F0892B89F465E070E06F
:1021C00080E090E004C068E070E080E090E00E9471
:1021D0000D1E0FC06EE070E080E090E0F8CF6AE185
:1021E00070E080E090E0F3CF8A850E94401F019765
:1021F000D9F7CE0166EF0E94271028E030E04C8529
:102200005D85241B350B04C096958795779567955A
:102210002A95D2F76CA77DA78EA79FA7DF91CF91B4
:102220000895CF93DF93EC0164EF4EE20E94E30F39
:102230008A859B85892B39F465E070E080E090E029
:102240000E940D1E05C08A850E94401F0197D9F784
:10225000CE0166EF0E945C10A0E0B0E088A799A7CD
:10226000AAA7BBA7DF91CF9108958F929F92AF92BB
:10227000BF92CF92DF92EF92FF920F931F93CF9373
:10228000DF936C015B014A01EE24FF248701C0E06B
:10229000D0E00DC0C6010E941111F60180A591A5E4
:1022A000A2A5B3A5E80EF91E0A1F1B1F2196CA1589
:1022B000DB0584F39501442737FD4095542FC80171
:1022C000B7010E94B22AF60120A731A742A753A75F
:1022D000EE24FF248701C0E0D0E00DC0C6010E94BB
:1022E000C410F60184A595A5A6A5B7A5E80EF91E0C
:1022F0000A1F1B1F2196C815D90584F39401442792
:1023000037FD4095542FC801B7010E94B22AF6014B
:1023100024A735A746A757A7C6010E94270EDF911D
:10232000CF911F910F91FF90EF90DF90CF90BF90D2
:10233000AF909F908F900895CF93DF93EC0184E747
:1023400094E060E371E00E946C2384E794E06CE425
:1023500071E00E943722CE0164E170E04AE050E073
:102360000E9435114C815D816E817F8184E794E00C
:102370002AE030E00E94E82284E794E060E571E022
:102380000E943722488159816A817B8184E794E0E9
:102390002AE030E00E94772384E794E065E571E06D
:1023A0000E946C2388819981AA81BB8187599040C2
:1023B000A040B04085399105A105B105A0F44C813C
:1023C0005D816E817F8148328AE9580781E0680724
:1023D00080E0780744F4495B5248614070401CF04B
:1023E0008FE090E002C08CE190E00E94AC1BDF9196
:1023F000CF9108950F931F938C0164E170E04AE040
:1024000050E00E943511F80184819581A681B78141
:1024100084A395A3A6A3B7A31F910F910895FC01D0
:1024200080859185009749F061E00E94EC1E6AE08A
:1024300070E080E090E00E940D1E0895CF93DF933E
:10244000EC0188859985009719F061E00E94C61E0D
:102450008A8560E00E94C61E8A8560E00E94EC1EAC
:10246000CE010E940F1264E170E080E090E00E94D3
:102470000D1ECE016AEA0E945C109F878E87CE01F6
:102480006CEA0E945C10998B888BCE016EEA0E94E8
:102490005C109B8B8A8BCE0160EB0E945C109D8B45
:1024A0008C8BCE0162EB0E945C109F8B8E8BCE01D9
:1024B00064EB0E945C10998F888FCE0166EB0E94BE
:1024C0005C109B8F8A8FCE0168EB0E945C109D8F01
:1024D0008C8FCE016AEB0E945C109F8F8E8FCE0195
:1024E0006CEB0E945C1099A388A3CE016EEB0E9456
:1024F0005C109BA38AA3DF91CF910895FC017183A7
:1025000060831282138214821582168217821086CB
:10251000118612861386148615860895FC0112868C
:102520001386148615860895FC0160E022853385A4
:102530004485558582819381A481B5812817390707
:102540004A075B0709F061E0862F0895FC0182814C
:102550009381A481B5810597A109B10982879387E9
:10256000A487B587089520E0FC0182859385A48522
:10257000B5850097A105B10509F021E0822F0895E6
:10258000FC0166817781808591850895FC016281D7
:1025900073818481958125E030E040E050E00E9425
:1025A000B22ACA01B9010895FC014D5C5B48518310
:1025B00040830895FC0120813181442737FD4095F7
:1025C000542F235334474E4F5F4FB901CA0108952A
:1025D0000F931F938C014A565F4F6F4F7F4FCB0174
:1025E000BA010E94EE272DEC3CEC4CEC5EE30E941D
:1025F000A2280E94C027F80162831F910F910895BD
:10260000FC01628170E0882777FD8095982F0E94F9
:10261000EE2720E030E040E250E40E94A22820E0D3
:1026200030E046E153E40E94EA260E94BB279B016A
:10263000AC01CA0108950F931F938C01CB01BA011D
:1026400020E030E040E050E40E94EA2620E030E064
:1026500040EA51E40E94A2280E94C027F801638347
:102660001F910F910895FC01638170E080E090E07C
:102670000E94EC272DEC3CEC4CE45DE30E94A22888
:1026800020E030E040E050E40E94EB260895FC0199
:102690006115710511F414820895645F714083E03F
:1026A000769567958A95E1F7648308950F931F9354
:1026B0008C0184E794E06BE571E00E943722F80119
:1026C00040815181662757FD6095762F43535447CB
:1026D0006E4F7F4F84E794E02AE030E00E94E822CA
:1026E00084E794E06FE571E00E943722F80162818F
:1026F00070E0882777FD8095982F0E94EE2720E0D4
:1027000030E040E250E40E94A22820E030E046E1C0
:1027100053E40E94EA260E94BB27AB01BC0184E778
:1027200094E02AE030E00E94E82284E794E064E646
:1027300071E00E943722F801638170E080E090E050
:102740000E94EC272DEC3CEC4CE45DE30E94A228B7
:1027500020E030E040E050E40E94EB26AB01BC01F9
:1027600084E794E022E030E00E94292484E794E0AA
:1027700069E671E00E943722F8016481662319F44A
:1027800060E070E008C070E023E0660F771F2A95D4
:10279000E1F76C507E4F84E794E04AE050E00E94FD
:1027A00053231F910F910895CF92DF92EF92FF92E2
:1027B0000F931F936C019B01FC0142855385648537
:1027C000758580819181E5E0EE2EF12C012D112D92
:1027D0000E945D09F60182859385A485B5850597DC
:1027E000A109B10982879387A487B5871F910F91AB
:1027F000FF90EF90DF90CF900895CF92DF92EF920D
:10280000FF920F931F936C019B01FC01428553853E
:102810006485758580819181F5E0EF2EF12C012D85
:10282000112D0E945D09F60182859385A485B585E9
:102830000596A11DB11D82879387A487B5871F9137
:102840000F91FF90EF90DF90CF900895CF92DF929D
:10285000FF920F931F93DF93CF9300D000D00F927E
:10286000CDB7DEB78C01FC01168217821086118667
:102870001286138614861586FF246E010894C11CE7
:10288000D11C56C0C801B6010E94FD132A8189815E
:1028900090E0A0E0B0E0820F911DA11DB11D2B8141
:1028A000820F911DA11DB11D2C81820F911DA11DB3
:1028B000B11D2D81820F911DA11DB11D8B5F944013
:1028C000A040B04011F0FF2433C0F80126813781C9
:1028D000408551852F5F3F4F4F4F5F4F2683378392
:1028E000408751872150304040405040FF20F1F058
:1028F00082859385A485B5850597A109B109828351
:102900009383A483B5830597A105B10549F4128289
:1029100013821482158216821782108611861BC0BC
:10292000F801268337834087518715C0FF24F3942D
:10293000F80182859385A485B585863FFFEF9F07C3
:10294000F7E0AF07F0E0BF0708F49CCFF8018283FF
:102950009383A483B5830F900F900F900F900F90E7
:10296000CF91DF911F910F91FF90DF90CF9008954D
:102970000E9426140895EF92FF920F931F93CF9316
:10298000DF93EC019B014A815B816C817D81463F35
:102990008FEF580787E0680780E0780710F080E045
:1029A00015C088819981A5E0EA2EF12C012D112D09
:1029B0000E94E8088A819B81AC81BD810596A11D9A
:1029C000B11D8A839B83AC83BD8381E0DF91CF916E
:1029D0001F910F91FF90EF9008950F931F938C011B
:1029E000FC01808191810E94D908F8011282138232
:1029F0001482158216821782108611861F910F91FC
:102A000008950F931F938BE293E061E170E040E142
:102A100050E021E030E00E941F0E8BE593E066E07D
:102A200070E00E94AD0A0AE613E0C8016AE070E0B7
:102A30000E94FF078CE693E0B8010E947E128AE7AD
:102A400093E068E070E00E94C21B8CE793E069E0CD
:102A500070E00E94C21B1F910F9108958091F401B4
:102A6000882331F01092F40184E090E00E94AC1BC6
:102A700008950E942E1583E090E00E94AC1B8CE626
:102A800093E00E94ED1482E090E00E94AC1B089558
:102A90008F929F92AF92BF92CF92DF92EF92FF926E
:102AA0000F931F93DF93CF9300D000D00F92CDB739
:102AB000DEB78AE190E00E94AC1B8BE293E00E94BB
:102AC000DD0F4B015C01EE24FF2487016E010894A9
:102AD000C11CD11CB801A701480D591D6A1D7B1DE1
:102AE000C6010E94D412C60144E150E060E070E0EB
:102AF0000E94E812C60144E15EEA6FEB70E40E94B6
:102B00001B13C60160E070E00E9447138CE693E05F
:102B1000B6010E94BB1484ED9EEFAFEFBFEFE80E4D
:102B2000F91E0A1F1B1F98E4E91694EFF9069FEFA0
:102B300009079FEF190771F688E4E82E84EFF82E55
:102B40008FEF082F8FEF182FE80CF91C0A1D1B1DA3
:102B5000CC24DD245E010894A11CB11CC501B80180
:102B6000A7010E94D412C50144E150E060E070E08A
:102B70000E94E812C50144E15EEA6FEB70E40E9436
:102B80001B13C50160E070E00E9447138CE693E0E0
:102B9000B5010E94BB140894C11CD11C86E090E0D2
:102BA000A0E0B0E0E80EF91E0A1F1B1F94EFC91643
:102BB00091E0D90699F682E090E00E94AC1B0F905C
:102BC0000F900F900F900F90CF91DF911F910F9169
:102BD000FF90EF90DF90CF90BF90AF909F908F903D
:102BE0000895CF93DF930E942E15C4E8D3E005C06B
:102BF00084E794E069910E94AC2183E0C639D8074C
:102C0000B9F7DF91CF91089580917F03882369F40C
:102C100088E190E00E94AC1B81E080937F030E94DA
:102C20002E1585E192E00E944D0C089580917E035F
:102C3000882359F486E190E00E94AC1B81E08093E8
:102C40007E038BE092E00E944D0C0895CF93DF93BA
:102C50000E942E1584E794E00E944A214297D0F307
:102C6000C4E8D3E005C084E794E00E94782189930A
:102C700083E0C639D807B9F7CE0142970E94ED1C10
:102C80008FE292E00E944D0C0E94B60BDF91CF9133
:102C900008958EE190E00E94AC1B0E94DB1C8FE245
:102CA00092E00E944D0C0E94B60B82E090E00E94E0
:102CB000AC1B089580917E03882341F087E190E06A
:102CC0000E94AC1B0E94C80B10927E0308950F93C4
:102CD0001F93DF93CF9300D000D00F92CDB7DEB714
:102CE0000E942E158CE693E00E948E128E010F5FDB
:102CF0001F4F08C08CE693E0B8010E94FD13C80185
:102D00000E9456138CE693E00E949412882391F758
:102D10000F900F900F900F900F90CF91DF911F9118
:102D20000F9108950F931F93DF93CF9300D000D09E
:102D30000F92CDB7DEB70E942E158CE693E00E946D
:102D40008E128E010F5F1F4F0CC08CE693E0B8010E
:102D50000E94FD1384E794E0B80145E050E00E9432
:102D600018228CE693E00E949412882371F700E009
:102D700010E084E794E06FEF0E94AC210F5F1F4FDB
:102D80000A301105B1F70F900F900F900F900F9030
:102D9000CF91DF911F910F910895EF92FF920F93C2
:102DA0001F930E942E1586E090E00E94AC1B9CE6CB
:102DB000E92E93E0F92EC7010E94C012AB01BC01BD
:102DC00004E714E0C8012AE030E00E94482387E0CD
:102DD00090E00E94AC1BC7010E94C612AB01BC016F
:102DE000C8012AE030E00E94482388E090E00E9479
:102DF000AC1BC80147E959E961E070E02AE030E026
:102E00000E9448231F910F91FF90EF9008958091A9
:102E1000F401882389F40E94FF1D6093800370935E
:102E20008103809382039093830381E08093F40174
:102E300085E090E00E94AC1B089580917F03882379
:102E400051F089E190E00E94AC1B10927F030E9438
:102E500007170E94C80B08952F923F924F925F92DE
:102E60006F927F928F929F92AF92BF92CF92DF929A
:102E7000EF92FF920F931F93DF93CF93CDB7DEB7FF
:102E800029970FB6F894DEBF0FBECDBF0E942E1556
:102E90008CE693E00E94A612222433242101CC2444
:102EA000DD2476011F821E8272C08CE693E0BE0193
:102EB0006F5F7F4F0E94D413CE0101960E94DA12F9
:102EC000AB01BC0100918603109187032091880318
:102ED000309189038BE293E00E9474103B014C0116
:102EE000261637064806590614F41B012C012091BA
:102EF00084033091850339872887C618D708E808E6
:102F0000F908C701B6010E94EE275B016C016091D0
:102F1000860370918703809188039091890320E054
:102F200030E040E450E40E94A2287B018C01288517
:102F30003985B90180E090E00E94EC2720E030E084
:102F40004AE754E40E9453279B01AC01C801B70132
:102F50000E94A2289B01AC01C601B5010E949E28D7
:102F600018161CF01F821E8205C08E819F8101965B
:102F70009F838E83740163018CED95E0688579856C
:102F80000E948B2A2E813F812617370738F48CE662
:102F900093E00E94B312882309F087CF7201610188
:102FA00024E1822E912C3E010894611C711C8CE658
:102FB00093E00E94B312882359F18CE693E0B301A9
:102FC0000E94D413C3010E94DA126F5F7F4F8F4FAC
:102FD0009F4FF1F0C3010E94DA12AB01BC010091D6
:102FE00086031091870320918803309189038BE237
:102FF00093E00E9474106C157D058E059F0514F4F6
:103000006B017C010894810891088114910479F680
:1030100084E794E06AE771E00E943722B201A101DF
:103020004C195D096E097F0984E794E02AE030E0DD
:103030000E947723C1018C199D090E94AA0C64EF9C
:1030400071E080E090E00E940D1E0E940717299613
:103050000FB6F894DEBF0FBECDBFCF91DF911F91A9
:103060000F91FF90EF90DF90CF90BF90AF909F9027
:103070008F907F906F905F904F903F902F9008952A
:103080008BE593E00E941C0B882319F00E94161612
:1030900008950E945A1608950F931F93DF93CF93BC
:1030A00000D000D00F92CDB7DEB78091F401882315
:1030B00009F450C08BE293E064E170E04AE050E034
:1030C0000E94351140912F035091300360913103DC
:1030D000709132038E010F5F1F4FC8010E94D412FE
:1030E00040912B0350912C0360912D0370912E037E
:1030F000C8010E94E8128BE593E00E94B50AAB017B
:10310000BC01C8010E941B1380919403882339F0ED
:103110008CE793E00E94C61BBC01C80103C0C80134
:1031200060E070E00E9447138CE693E0BE016F5FA1
:103130007F4F0E94BB14882339F084E794E06AE84B
:1031400071E00E94372206C08BE190E00E94AC1B28
:103150000E942E150F900F900F900F900F90CF910F
:10316000DF911F910F9108952F923F924F925F929E
:103170006F927F928F929F92AF92BF92CF92DF9287
:10318000EF92FF920F931F93DF93CF93CDB7DEB7EC
:1031900061970FB6F894DEBF0FBECDBF0E942E150B
:1031A00089E090E00E94AC1B8AE693E00E94B60999
:1031B0008CE693E00E94ED148BE293E00E949C1158
:1031C0008BE593E00E94E20A0E94800C8AE793E07C
:1031D0000E941E1C0E94471D84E794E06CE871E089
:1031E0000E946C2381E08093F40100E010E00E94D3
:1031F0004C180F5F1F4F083C1105C9F71092F401DE
:103200008CE693E00E948E128CE693E08E010F5FB5
:103210001F4FB8010E94FD13C8010E94DA126E8789
:103220007F87888B998BC8010E94DA126A877B8717
:103230008C879D87C8010E9400136E837F838887D7
:103240009987C8010E9400133B014C01C8010E94EC
:1032500033131B012C01C8010E9433135B016C0165
:10326000F02E012F74C08CE693E06F2D702F0E941A
:10327000FD138F2D902F0E94DA122E853F854889ED
:103280005989621773078407950744F48F2D902F8F
:103290000E94DA126E877F87888B998B8F2D902FF3
:1032A0000E9400132E813F8148855985621773075C
:1032B0008407950744F48F2D902F0E9400136E838E
:1032C0007F83888799878F2D902F0E943313A201C7
:1032D00091010E944F27882334F48F2D902F0E9454
:1032E00033131B012C018F2D902F0E94DA122A8597
:1032F0003B854C855D85261737074807590744F4F9
:103300008F2D902F0E94DA126A877B878C879D878A
:103310008F2D902F0E940013661677068806990657
:1033200034F48F2D902F0E9400133B014C018F2D00
:10333000902F0E943313A60195010E949E28181613
:1033400034F48F2D902F0E9433135B016C018CE6B7
:1033500093E00E949412882309F085CFEA84FB84CD
:103360000C851D858E859F85A889B989E81AF90A7B
:103370000A0B1B0B2E813F8148855985621A730AFF
:10338000840A950AC601B501A20191010E94EA26AC
:103390005B016C0184E794E00E94312384E794E0B0
:1033A00062EA71E00E94372284E794E0B801A70145
:1033B0002AE030E00E94772384E794E06BEA71E032
:1033C0000E94372284E794E0B401A3012AE030E0B0
:1033D0000E94772384E794E064EB71E00E94372237
:1033E00084E794E0B601A50122E030E00E942C249D
:1033F00036E9E316F104010511059CF44FE064166B
:103400007104810491046CF4C601B5012DEC3CEC0F
:103410004CEC5DE30E944F2788231CF48FE090E082
:1034200002C08CE190E00E94AC1B8AE090E00E9418
:10343000AC1B61960FB6F894DEBF0FBECDBFCF9127
:10344000DF911F910F91FF90EF90DF90CF90BF9091
:10345000AF909F908F907F906F905F904F903F9034
:103460002F900895873649F1883678F4833611F124
:10347000843630F48136C9F1823609F043C03AC04F
:103480008536A9F08636C8F51EC0823759F18337D4
:1034900038F48F36A9F18037C9F0893699F510C014
:1034A0008437B9F08437D8F0873761F515C00E94AA
:1034B000391508950E942E1508950E940717089542
:1034C0000E94CD1608950E94921608950E946716D4
:1034D00008950E94B41808950E94491608950E9404
:1034E000261608950E94F11508958BE092E00E943F
:1034F0004D0C08950E94C80B08950E944815089528
:103500000E942C1708958AE793E00E940F1C909167
:103510004102891759F40E945A160E94041664EF5A
:1035200071E080E090E00E940D1E35C00E941D17E2
:103530000E94401880917E03882351F48AE793E02B
:103540000E940F1C90914202891711F40E942C17BF
:103550000E94FF1D209180033091810340918203DE
:10356000509183032617370748075907A0F4809125
:10357000840390918503A0E0B0E0820F931FA41F05
:10358000B51F8093800390938103A0938203B0932F
:1035900083030E944C1884E794E00E944A21181685
:1035A000190634F484E794E00E9478210E94321ACC
:1035B0000895EF92FF920F931F9380E00E94A11E47
:1035C00084EB92E00E94BE0584E794E040E051EE77
:1035D00060E070E00E94512080E061E00E94EC1EFB
:1035E00080E090E00E94AC1B84E794E06DEB71E01A
:1035F0000E94372284E794E065EC71E00E946C231E
:103600008DE190E00E94AC1B80E290E00E94AC1B38
:1036100084E893E00E94061D84E893E00E946E1CFB
:1036200086EE93E00E948C1D8BE293E00E941E12B6
:103630008AE793E00E945E1C8CE793E00E945E1C88
:103640008AE693E00E949F0A83E090E00E94120EB7
:1036500081E090E00E94AC1B8CE693E00E94B814DD
:1036600082E090E00E94AC1B84E190E00E94AC1BE1
:103670008BE293E00E94FA118BE293E00E94DD0F4F
:10368000AB01BC0184E794E02AE030E00E94D9223B
:1036900084E794E06EED71E00E94372282E090E0D2
:1036A0000E94AC1B85EF91E00E944D0C0E94B60B6E
:1036B00060918A0370918B03209190033091910364
:1036C0004091920350919303E0908C03F0908D030E
:1036D00000918E0310918F038BE593E00E94850B80
:1036E00080918A0390918B030197D9F485E190E052
:1036F0000E94AC1B8BE593E00E94B10ABC0184E7F9
:1037000094E04AE050E00E941E2384E794E06AE8D7
:1037100071E00E946C238BE593E00E94B10A0E9445
:10372000AA0C80919503882329F082E080934102BE
:1037300081E001C082E0809342020E94FF1D6093FD
:1037400080037093810380938203909383031F917E
:103750000F91FF90EF9008950F931F93FC01EE0FD0
:10376000FF1FEB5AFB4F6591749106E913E0C80106
:103770000E94B00284E794E0B8010E9437221F91B2
:103780000F910895FC01718360830895FC0180818D
:1037900061E020E63DE640E050E00E948F1FCB0153
:1037A0000895EF92FF920F931F93CF93DF937C01C5
:1037B00000E010E00F5F1F4F0730110531F1F701F6
:1037C000808161E020E63DE640E050E00E948F1FEE
:1037D000EB01672BD1F0F701808161E020E63DE647
:1037E00040E050E00E948F1FC617D70719F480E011
:1037F00090E003C0CE01861B970B6C0F7D1F769562
:1038000067958C349105B0F602C060E070E0CB01A2
:10381000DF91CF911F910F91FF90EF9008950E943B
:10382000D11B25E08837920710F480E00895815479
:10383000964010F481E0089582E008950F931F935D
:10384000CF93DF938C0184E794E060EE71E00E94F7
:103850006C23C8010E94D11B8C0184E794E0B8015D
:103860004AE050E00E94532389E061E020E63DE613
:1038700040E050E00E948F1F9B01AC01EB0184E708
:1038800094E0B9014AE050E00E94532305521440ED
:103890000B33110550F484E0C532D80730F0C05620
:1038A000D44018F48FE090E002C08CE190E00E94D8
:1038B000AC1BDF91CF911F910F9108950F931F9330
:1038C0008C01FC01808160E00E94C61EF8018081AD
:1038D00061E00E94EC1E1F910F910895CF93DF933A
:1038E000EC0181E290E00E94AC1B6881798184E761
:1038F00094E04AE050E00E94532382E290E00E946C
:10390000AC1B4A815B816C817D8184E794E022E07D
:1039100030E00E942C2483E290E00E94AC1B8E8158
:103920009F818130910549F08230910519F0892BF2
:1039300039F00AC084E290E005C085E290E002C060
:1039400086E290E00E94AC1B87E290E00E94AC1BF4
:10395000488559856A857B8584E794E022E030E0DC
:103960000E942C2488E290E00E94AC1B4C855D856F
:103970006E857F8584E794E022E030E00E942C246D
:1039800089E290E00E94AC1B688984E794E070E0D3
:103990004AE050E00E9482238AE290E00E94AC1B41
:1039A000698984E794E070E04AE050E00E94822355
:1039B000DF91CF910895CF93DF93C0E0D0E081E213
:1039C00093E0BE0140E00E94F307219682E0C03000
:1039D000D807A9F7DF91CF9108950F931F93CF9345
:1039E000DF938C01C0E0D0E0F801EC0FFD1F81E215
:1039F00093E0BE0140810E94F3072196C231D105B8
:103A000099F7DF91CF911F910F9108950F931F9315
:103A1000CF93DF938C01C0E0D0E081E293E0BE0160
:103A20000E94EC07F801EC0FFD1F80832196C23144
:103A3000D10599F7F80180819181892B19F584EFDF
:103A400091E09183808387EE9BEFA1E5B0E48283D0
:103A50009383A483B58382E090E09783868386E690
:103A600096E6A6E9B0E480879187A287B38780E0D5
:103A700090E0A0E8BFE384879587A687B787108A80
:103A800081E0818BDF91CF911F910F910895DF939A
:103A9000CF93CDB7DEB7A4970FB6F894DEBF0FBEB5
:103AA000CDBF8FE190E00E94AC1B8AEF90E09A833B
:103AB0008983CE0101960E94ED1CCE0143960E949F
:103AC000061D0E94DB1C82E090E00E94AC1B8B89EB
:103AD0009C898A3F910519F48FE090E002C08CE147
:103AE00090E00E94AC1BA4960FB6F894DEBF0FBE08
:103AF000CDBFCF91DF9108956EBD0DB407FEFDCF10
:103B00008EB50895862F61E00E94EC1E0895862FE1
:103B100060E00E94EC1E0895DF93CF930F92CDB723
:103B2000DEB78BE061E00E94C61E8DE061E00E947E
:103B3000C61E8CE060E00E94C61E8CE061E00E9420
:103B4000EC1E80E58CBD8DB589838EB589830F9081
:103B5000CF91DF9108951F920F920FB60F9211240B
:103B60002F933F934F935F936F937F938F939F9385
:103B7000AF93BF932091EB033091EC034091ED03A1
:103B80005091EE037091EF03DA01C9010296A11D75
:103B9000B11D672F6A5F6D3730F06D57DA01C901CB
:103BA0000396A11DB11D6093EF038093EB039093E7
:103BB000EC03A093ED03B093EE038091E7039091A3
:103BC000E803A091E903B091EA030196A11DB11D9C
:103BD0008093E7039093E803A093E903B093EA038B
:103BE000BF91AF919F918F917F916F915F914F9115
:103BF0003F912F910F900FBE0F901F9018958FB788
:103C0000F8942091EB033091EC034091ED03509137
:103C1000EE038FBFB901CA0108959B01AC017FB7C4
:103C2000F8948091E7039091E803A091E903B091A3
:103C3000EA0366B5A89B05C06F3F19F00196A11D68
:103C4000B11D7FBFBA2FA92F982F8827860F911DEE
:103C5000A11DB11D63E0880F991FAA1FBB1F6A95A4
:103C6000D1F7BC012DC0FFB7F8948091E703909184
:103C7000E803A091E903B091EA03E6B5A89B05C06B
:103C8000EF3F19F00196A11DB11DFFBFBA2FA92F5B
:103C9000982F88278E0F911DA11DB11DE3E0880F7D
:103CA000991FAA1FBB1FEA95D1F7861B970B885E49
:103CB0009340C8F2215030404040504068517C4F02
:103CC000211531054105510571F60895789484B5A3
:103CD000826084BD84B5816084BD85B5826085BD08
:103CE00085B5816085BDEEE6F0E0808181608083EE
:103CF000E1E8F0E0108280818260808380818160D1
:103D00008083E0E8F0E0808181608083E1EBF0E097
:103D1000808184608083E0EBF0E08081816080833B
:103D2000EAE7F0E080818460808380818260808324
:103D30008081816080838081806880831092C1004F
:103D40000895809343020895982F8E3008F09E5076
:103D50009770809143028295880F880F807C892B11
:103D600080937C0080917A00806480937A008091B7
:103D70007A0086FDFCCF2091780040917900942F45
:103D800080E030E0282B392BC9010895482F50E0FE
:103D9000CA0182529B4FFC01249146535B4FFA01AA
:103DA00084918823C1F0E82FF0E0EE0FFF1FE45567
:103DB000FB4FA591B491662341F49FB7F8948C9181
:103DC000209582238C939FBF08959FB7F8948C9180
:103DD000822B8C939FBF0895482F50E0CA018E50CC
:103DE0009B4FFC012491CA0182529B4FFC013491EC
:103DF00046535B4FFA019491992309F440C0222362
:103E000031F1233021F4809180008F7705C0243078
:103E100031F4809180008F7D8093800018C0213024
:103E200019F484B58F7704C0223021F484B58F7DD6
:103E300084BD0DC0263021F48091B0008F7705C07D
:103E4000273029F48091B0008F7D8093B000E92F56
:103E5000F0E0EE0FFF1FEA54FB4FA591B4916623EB
:103E600041F49FB7F8948C91309583238C939FBF36
:103E700008959FB7F8948C91832B8C939FBF0895DE
:103E8000682F70E0CB018E509B4FFC012491CB0139
:103E900082529B4FFC01449166537B4FFB019491EE
:103EA000992319F420E030E038C0222331F1233087
:103EB00021F4809180008F7705C0243031F4809107
:103EC00080008F7D8093800018C0213019F484B564
:103ED0008F7704C0223021F484B58F7D84BD0DC05E
:103EE000263021F48091B0008F7705C0273029F467
:103EF0008091B0008F7D8093B000892F90E0880F73
:103F0000991F80549B4FFC01A591B4918C9120E0A6
:103F100030E0842311F021E030E0C9010895DF9200
:103F2000EF92FF920F931F93A82FB0E0CD01825222
:103F30009B4FFC01D490A653BB4FFD018491662397
:103F400011F490E001C09D2D79018A0143E0EE0C4F
:103F5000FF1C001F111F4A95D1F734E016950795F5
:103F6000F794E7943A95D1F7682F70E0660F771FC2
:103F700060547B4F20E030E040E050E0FB01A59131
:103F8000B4910AC02E153F054007510709F440C0FF
:103F90002F5F3F4F4F4F5F4F8C918D21891791F3CA
:103FA0000AC02E153F054007510791F12F5F3F4F83
:103FB0004F4F5F4F03C0FB01A591B4918C918D21B0
:103FC000891779F720E030E040E050E0FB01A5914F
:103FD000B49104C02F5F3F4F4F4F5F4F8C918D21A5
:103FE0008917C1F3CA01B9012AE030E040E050E08E
:103FF0000E946C2A9B01AC01205F3F4F4F4F5F4FE7
:1040000083E056954795379527958A95D1F704C053
:1040100020E030E040E050E0B901CA011F910F916B
:10402000FF90EF90DF9008951F920F920FB60F92BE
:1040300011242F933F934F935F936F937F938F93AD
:104040009F93AF93BF93EF93FF934091C600E0918E
:104050007004F0917104CF01019660E870E00E9455
:104060009F2A9C018091720490917304281739074C
:1040700039F0E051FC4F4083309371042093700479
:10408000FF91EF91BF91AF919F918F917F916F9130
:104090005F914F913F912F910F900FBE0F901F9006
:1040A00018955F926F927F928F929F92AF92BF927C
:1040B000CF92DF92EF92FF920F931F93CF93DF93F4
:1040C000EC013A014B01413281EA580787E0680769
:1040D00080E078070CF07FC060E472E48FE090E04D
:1040E000A40193010E94D42A215030404040504006
:1040F000CA01B90122E030E040E050E00E94D42A39
:1041000059016A01A6019501209530954095509579
:1041100094E0220F331F441F551F9A95D1F760E09A
:1041200072E18AE790E00E94D42ACA01B9012FEF18
:1041300030E040E050E00E946C2AA40193010E940C
:10414000D42AC90181509F4F181619061CF4522E0B
:104150005A9403C055245394521A60E874E88EE1CF
:1041600090E0A40193010E94D42A215030404040A5
:104170005040CA01B90122E030E040E050E00E9426
:10418000D42A209530954095509583E0220F331F17
:10419000441F551F8A95D1F760E072E18AE790E0ED
:1041A0000E94D42ACA01B9012FEF30E040E050E06C
:1041B0000E946C2AA40193010E94D42AC901815053
:1041C0009F4F181619061CF4822F815002C081E0FF
:1041D000821B851500F5E885F98581E090E00A8865
:1041E00002C0880F991F0A94E2F7808360E874E8A0
:1041F0008EE190E0A40193010E94D42A2150304026
:1042000040405040CA01B90122E030E040E050E0B7
:104210000E94D42A04C0E885F98510829501EC81BA
:10422000FD813083EE81FF812083EA85FB8520813B
:1042300041E050E0CA010E8402C0880F991F0A9421
:10424000E2F7282B2083EA85FB852081CA010F84B1
:1042500002C0880F991F0A94E2F7282B2083EA8571
:10426000FB858081088802C0440F551F0A94E2F73D
:10427000842B8083DF91CF911F910F91FF90EF905E
:10428000DF90CF90BF90AF909F908F907F906F9076
:104290005F900895DC011296ED91FC911397E05820
:1042A000FF4F8191919180589F4F20813181821BD6
:1042B000930B60E870E00E949F2A0895DC0112963B
:1042C000ED91FC911397EE57FF4F20813181929130
:1042D0008291E058F0408217930719F42FEF3FEFD7
:1042E00005C0E20FF31F8081282F30E0C901089537
:1042F000CF93DF93DC011296ED91FC911397EF01C0
:10430000CE57DF4F48815981E058FF4F808191811E
:10431000E058F0408417950719F42FEF3FEF0CC0D9
:10432000E40FF51F2081CA01019660E870E00E9449
:104330009F2A9983888330E0C901DF91CF91089546
:10434000DC011296ED91FC911397EE57FF4F80819F
:104350009181929382930895FC01A085B185218972
:104360008C9190E0022E02C0959587950A94E2F711
:1043700080FFF6CF0484F585E02D608308958FE5F6
:1043800092E0909375048093740480EF93E090938F
:1043900077048093760485EC90E090937904809381
:1043A000780484EC90E090937B0480937A0480EC12
:1043B00090E090937D0480937C0481EC90E0909356
:1043C0007F0480937E0486EC90E090938104809338
:1043D000800484E08093820483E08093830487E0F8
:1043E0008093840485E08093850481E08093860433
:1043F00008950E94661E0E94D91A0E94831AFDCF5A
:104400000F931F93CF93DF938C01EB0109C021968B
:10441000D801ED91FC910190F081E02DC801099542
:1044200068816623A1F7DF91CF911F910F910895C5
:10443000EF92FF920F931F93CF93DF938C017B0139
:10444000EA010CC0D7016D917D01D801ED91FC917D
:104450000190F081E02DC80109952197209791F7EF
:10446000DF91CF911F910F91FF90EF900895DC01A4
:10447000ED91FC910280F381E02D099508952F9232
:104480003F924F925F926F927F928F929F92AF92E4
:10449000BF92CF92DF92EF92FF920F931F93DF9321
:1044A000CF93CDB7DEB7A0970FB6F894DEBF0FBE9F
:1044B000CDBF1C016A017B014115510561057105E4
:1044C00049F440E350E060E070E020E030E00E941A
:1044D000E82256C0882499245401422E552466248B
:1044E000772401E010E00C0F1D1F080D191DC701F6
:1044F000B601A30192010E94B22AF80160830894D8
:10450000811C911CA11CB11CC701B601A301920121
:104510000E94B22AC901DA016C017D01C114D104E3
:10452000E104F104F1F681E0E82EF12CEC0EFD1E21
:10453000E80CF91C3E010894611C711CD501C401F2
:104540000197A109B1096C01C818D90816C0F60174
:10455000EE0DFF1D40814A3010F4405D01C0495C02
:10456000552747FD5095652F752FC10120E030E09C
:104570000E94E8220894E108F1086E147F0439F7DC
:10458000A0960FB6F894DEBF0FBECDBFCF91DF91DE
:104590001F910F91FF90EF90DF90CF90BF90AF9061
:1045A0009F908F907F906F905F904F903F902F9053
:1045B0000895DC012115310541F4ED91FC91019044
:1045C000F081E02D642F099508950E943F220895FF
:1045D000EF92FF920F931F93CF93DF93EC017A0139
:1045E0008B012115310541F4E881F9810190F081B9
:1045F000E02D642F09951BC02A303105B1F477FFF7
:1046000010C04DE250E060E070E020E030E00E9439
:10461000E82210950095F094E094E11CF11C011D36
:10462000111DCE01B801A7012AE00E943F22DF91AF
:10463000CF911F910F91FF90EF900895EF92FF920D
:104640000F931F937B019A010027F7FC0095102F11
:10465000B801A7010E94E8221F910F91FF90EF90EF
:1046600008950F931F938C014DE050E060E070E0DF
:1046700020E030E00E94E822C8014AE050E060E01B
:1046800070E020E030E00E94E8221F910F91089531
:104690000F931F938C010E94D922C8010E943123DD
:1046A0001F910F910895CF92DF92EF92FF920F9397
:1046B0001F938C019A016B01EE24FF24B701A60120
:1046C0000E94D922C8010E9431231F910F91FF90AF
:1046D000EF90DF90CF9008950F931F938C010E946D
:1046E0003722C8010E9431231F910F9108950F9323
:1046F0001F938C010E94E822C8010E9431231F9160
:104700000F910895CF92DF92EF92FF920F931F9334
:104710008C016B019A01EE24D7FCE094FE2CB701CA
:10472000A6010E94E822C8010E9431231F910F9127
:10473000FF90EF90DF90CF9008959F92AF92BF923D
:10474000CF92DF92EF92FF920F931F93CF93DF935D
:10475000EC017A018B01922ECB01BA0120E030E00E
:1047600040E050E00E944F2788236CF4CE014DE2D8
:1047700050E060E070E020E030E00E94E82217FBAB
:10478000109517F9109520E030E040E05FE3AA248F
:104790000BC0CA01B90120E030E040E251E40E94C0
:1047A00053279B01AC01A394A91498F3C801B70146
:1047B0000E94EB265B016C010E94C0277B018C01EB
:1047C000CE01B801A7012AE030E00E94D922992049
:1047D00029F0CE0162EF71E00E943722C801B701D3
:1047E0000E94EC279B01AC01C601B5010E94EA269C
:1047F00022C020E030E040E251E40E94A2287B0188
:104800008C010E94BB275B016C01CC24B7FCC094D7
:10481000DC2CCE01B601A5012AE030E00E94E8229E
:10482000C601B5010E94EE279B01AC01C801B7018A
:104830000E94EA269A949920E1F6DF91CF911F9188
:104840000F91FF90EF90DF90CF90BF90AF909F902F
:1048500008950E949D2308950F931F938C010E9439
:104860009D23C8010E9431231F910F91089581302B
:1048700041F0813018F08230D1F409C010926E00FE
:10488000089580916F008D7F80936F0008958091CF
:1048900070008D7F8093700081E08093B0008091E4
:1048A000B100887F84608093B1001092B3000895B6
:1048B0001F920F920FB60F9211242F933F934F9395
:1048C0005F936F937F938F939F93AF93BF93EF9378
:1048D000FF938091950490919604A0919704B091D4
:1048E00098040097A105B10551F1E0919904F09168
:1048F0009A04808190919B048927808380919504FC
:1049000090919604A0919704B091980418161906F6
:104910001A061B060CF58091950490919604A091BF
:104920009704B09198040197A109B1098093950467
:1049300090939604A0939704B09398040DC082E0DE
:104940000E943724E0919904F0919A04908180911B
:104950009B04809589238083FF91EF91BF91AF9154
:104960009F918F917F916F915F914F913F912F9187
:104970000F900FBE0F901F9018951F93182F8091C6
:104980004402811711F09FEF06C0EBEAF4E0949126
:104990008FEF80934402892F0E943724812F60E09B
:1049A0000E94EC1E1F9108952F923F925F926F928A
:1049B0007F928F929F92AF92BF92CF92DF92EF92AF
:1049C000FF920F931F93DF93CF9300D000D0CDB70A
:1049D000DEB7A82F1B0129833A834B835C83809128
:1049E00044028A1721F4EBEAF4E0549082C08F3F2E
:1049F00009F0DAC1A0934402EBEAF4E054902FEFFF
:104A0000521609F4D1C181E0581639F192E05916D5
:104A100009F449C0552009F06CC014BC15BC84B51C
:104A2000826084BD85B5816085BD2A2F30E0F901A3
:104A3000E653FB4FE491F0E0EE0FFF1FEA54FB4F0B
:104A40008591949190938C0480938B0422523B4FD8
:104A5000F901849180938D044EC0109280001092D1
:104A60008100809181008860809381008091810025
:104A70008160809381002A2F30E0F901E653FB4FDB
:104A8000E491F0E0EE0FFF1FEA54FB4F8591949103
:104A9000909393048093920422523B4FF9018491A6
:104AA0008093940428C01092B0001092B1008091BD
:104AB000B00082608093B0008091B10081608093EB
:104AC000B1002A2F30E0F901E653FB4FE491F0E00A
:104AD000EE0FFF1FEA54FB4F8591949190939A0437
:104AE0008093990422523B4FF901849180939B0457
:104AF00002C057FC59C18A2F61E00E94C61E552092
:104B000021F0F2E05F1609F0BEC03101882499243B
:104B100060E079E08DE390E0A40193010E94D42A43
:104B200059016A01860175010894E108F10801093B
:104B300011092FEFE216F1040105110509F008F43F
:104B400099C060E271EA87E090E0A40193010E94BD
:104B5000D42A79018A010894E108F10801091109B0
:104B600082E05816C1F49FEFE916F1040105110522
:104B700009F008F484C068E478EE81E090E0A401D4
:104B800093010E94D42A79018A010894E108F1086E
:104B90000109110983E0AFEFEA16F10401051105DF
:104BA00009F008F468C064E274EF80E090E0A401CA
:104BB00093010E94D42A79018A010894E108F1083E
:104BC00001091109552011F483E01DC0B2E05B1604
:104BD00011F084E018C0EFEFEE16F10401051105A5
:104BE00009F008F4DFC062E17AE780E090E0A40118
:104BF00093010E94D42A79018A010894E108F108FE
:104C00000109110985E0FFEFEF16F1040105110517
:104C100091F188F169E07DE380E090E0A4019301E7
:104C20000E94D42A79018A010894E108F108010957
:104C30001109552011F086E001C084E02FEFE21643
:104C4000F10401051105B9F0B0F0C601B50120E08D
:104C500034E040E050E00E94D42A79018A010894AF
:104C6000E108F10801091109552011F087E008C099
:104C700085E003C081E0552019F485BD3AC082E08B
:104C80008093B10036C05101CC24DD2460E079E08E
:104C90008DE390E0A60195010E94D42A79018A0152
:104CA0000894E108F1080109110980E0E81680E0A4
:104CB000F80681E0080780E0180710F491E010C0C2
:104CC00064E274EF80E090E0A60195010E94D42A8E
:104CD00079018A010894E108F1080109110993E0BA
:104CE000A1E05A1631F480918100887F982B90932F
:104CF000810089819A81AB81BC810097A105B105B2
:104D000029F48FEF9FEFAFEFBFEF13C0220C331CDE
:104D1000B10180E090E029813A814B815C810E9461
:104D20006C2A28EE33E040E050E00E94B22AC9012C
:104D3000DA01E1E05E16A1F0F2E05F1619F155200C
:104D400099F5E7BC8093870490938804A093890425
:104D5000B0938A0480916E00826080936E0024C0BC
:104D6000F0928900E092880080938E0490938F04E3
:104D7000A0939004B093910480916F00826080931F
:104D80006F0012C0E092B300809395049093960454
:104D9000A0939704B09398048091700082608093F0
:104DA000700002C084E06CCF0F900F900F900F90B6
:104DB000CF91DF911F910F91FF90EF90DF90CF90F7
:104DC000BF90AF909F908F907F906F905F903F903B
:104DD0002F9008955058BB27AA270ED075C166D1D1
:104DE00030F06BD120F031F49F3F11F41EF45BC121
:104DF0000EF4E095E7FB51C1E92F77D180F3BA17A4
:104E0000620773078407950718F071F49EF58FC148
:104E10000EF4E0950B2EBA2FA02D0B01B9019001D5
:104E20000C01CA01A0011124FF27591B99F0593F19
:104E300050F4503E68F11A16F040A22F232F342F61
:104E40004427585FF3CF469537952795A795F040AF
:104E50005395C9F77EF41F16BA0B620B730B840BC4
:104E6000BAF09150A1F0FF0FBB1F661F771F881F7C
:104E7000C2F70EC0BA0F621F731F841F48F48795D4
:104E800077956795B795F7959E3F08F0B3CF9395C3
:104E9000880F08F09927EE0F979587950895D9D038
:104EA00008F481E008950CD00FC107D140F0FED086
:104EB00030F021F45F3F19F0F0C0511139C1F3C057
:104EC00014D198F39923C9F35523B1F3951B550BCE
:104ED000BB27AA2762177307840738F09F5F5F4FCD
:104EE000220F331F441FAA1FA9F333D00E2E3AF00E
:104EF000E0E830D091505040E695001CCAF729D028
:104F0000FE2F27D0660F771F881FBB1F2617370776
:104F10004807AB07B0E809F0BB0B802DBF01FF27A6
:104F200093585F4F2AF09E3F510568F0B6C000C10C
:104F30005F3FECF3983EDCF3869577956795B795E0
:104F4000F7959F5FC9F7880F911D9695879597F9FB
:104F50000895E1E0660F771F881FBB1F6217730774
:104F60008407BA0720F0621B730B840BBA0BEE1F89
:104F700088F7E095089504D06894B111D9C00895D8
:104F8000BCD088F09F5790F0B92F9927B751A0F067
:104F9000D1F0660F771F881F991F1AF0BA95C9F7CD
:104FA00012C0B13081F0C3D0B1E00895C0C0672F06
:104FB000782F8827B85F39F0B93FCCF3869577957D
:104FC0006795B395D9F73EF4909580957095619566
:104FD0007F4F8F4F9F4F0895E89409C097FB3EF491
:104FE00090958095709561957F4F8F4F9F4F992336
:104FF000A9F0F92F96E9BB279395F69587957795B4
:105000006795B795F111F8CFFAF4BB0F11F460FF73
:105010001BC06F5F7F4F8F4F9F4F16C0882311F0CB
:1050200096E911C0772321F09EE8872F762F05C0DF
:10503000662371F096E8862F70E060E02AF09A957A
:10504000660F771F881FDAF7880F9695879597F96F
:105050000895990F0008550FAA0BE0E8FEEF161609
:105060001706E807F907C0F012161306E407F5075C
:1050700098F0621B730B840B950B39F40A2661F0D0
:10508000232B242B252B21F408950A2609F4A14073
:10509000A6958FEF811D811D089597F99F6780E880
:1050A00070E060E008959FEF80EC089500240A947A
:1050B0001616170618060906089500240A941216F3
:1050C0001306140605060895092E0394000C11F426
:1050D000882352F0BB0F40F4BF2B11F460FF04C0D3
:1050E0006F5F7F4F8F4F9F4F089557FD9058440F2C
:1050F000551F59F05F3F71F04795880F97FB991F37
:1051000061F09F3F79F087950895121613061406F3
:10511000551FF2CF4695F1DF08C016161706180680
:10512000991FF1CF86957105610508940895E8945B
:10513000BB2766277727CB0197F908958ADF08F404
:105140008FEF08950BD0C0CFB1DF28F0B6DF18F095
:10515000952309F0A2CFA7CF1124EACFC6DFA0F391
:10516000959FD1F3950F50E0551F629FF001729FFC
:10517000BB27F00DB11D639FAA27F00DB11DAA1F1B
:10518000649F6627B00DA11D661F829F2227B00D68
:10519000A11D621F739FB00DA11D621F839FA00DF3
:1051A000611D221F749F3327A00D611D231F849F43
:1051B000600D211D822F762F6A2F11249F5750409A
:1051C0008AF0E1F088234AF0EE0FFF1FBB1F661F35
:1051D000771F881F91505040A9F79E3F510570F0EE
:1051E0005CCFA6CF5F3FECF3983EDCF386957795D6
:1051F0006795B795F795E7959F5FC1F7FE2B880FE9
:10520000911D9695879597F90895FA01EE0FFF1F66
:1052100030962105310599F16115710561F48038E9
:10522000BFE39B0749F168949038810561F08038AD
:10523000BFEF9B0741F0992342F5FF3FE1053105A0
:10524000210511F1E8940894E795D901AA2329F4DE
:10525000AB2FBE2FF85FD0F310C0FF5F70F4A695A0
:10526000E0F7F73950F019F0FF3A38F49F779F9341
:105270000CD00F9007FC905808953EF014CF60E0DA
:1052800070E080E89FE308954FE79F775F934F9327
:105290003F932F939ED02F913F914F915F9152DF7B
:1052A00005C019F40EF0F9CE42CFFDCE26DFC8F3CB
:1052B0009638C0F707F80F92E8942BE33AEA48EBE8
:1052C0005FE74EDF0F920F920F924DB75EB70F92CE
:1052D000C0D0E8E6F0E016D04F915F91EF91FF91DA
:1052E000E595EE1FFF1F49F0FE57E0684427EE0FDB
:1052F000441FFA95E1F74195550B32D00F9007FE08
:1053000026C00895DF93CF931F930F93FF92EF92E0
:10531000DF927B018C01689405C0DA2EEF011EDF5D
:10532000FE01E894A5912591359145915591AEF3F3
:10533000EF0162DDFE019701A801DA9479F7DF90B1
:10534000EF90FF900F911F91CF91DF9108959B01F6
:10535000AC0160E070E080E89FE3A5CD9ECEACC0DC
:10536000CCDEE8F39923D9F3940F511DBBF3915090
:10537000504094F059F0882332F0660F771F881F51
:1053800091505040C1F79E3F510544F7880F911D41
:105390009695879597F908955F3FACF0983E9CF0FD
:1053A000BB27869577956795B79508F4B160939577
:1053B000C1F7BB0F58F711F460FFE8CF6F5F7F4F65
:1053C0008F4F9F4FE3CFB4CE0EF076C06CCE689473
:1053D00064CE93DEC8F39923D1F3C6F3DF93CF9362
:1053E0001F930F93FF92C92FDD2788232AF021975F
:1053F000660F771F881FDAF720E030E040E85FEBA8
:105400009FE3883920F0803E30F021968F77E3DCEF
:10541000E0E9F0E003C0DFDCEDEBF0E073DF8B01EF
:10542000BE01EC01FB2E6F5771097595771F880B34
:10543000990BD4DD28E132E741E35FE38FDEAF2D46
:105440009801AE01FF900F911F91CF91DF91D4DCB5
:105450003BCEFA01DC01AA0FBB1F9B01AC01BF5779
:1054600028F422273327442750781FC0B75188F4E7
:10547000AB2F0024469537952795011CA395D2F3B1
:10548000002069F0220F331F441FB395DAF30DD0CB
:10549000A1CC61307105A0E88A07B94630F49B01C0
:1054A000AC016627772788279078309621F02083F3
:1054B00031834283538308959F3F49F0915028F4EC
:1054C000869577956795B7959F5F80389F4F880F32
:1054D0009695879597F90895629FD001739FF00183
:1054E000829FE00DF11D649FE00DF11D929FF00D74
:1054F000839FF00D749FF00D659FF00D9927729FAB
:10550000B00DE11DF91F639FB00DE11DF91FBD0135
:10551000CF0111240895AA1BBB1B51E107C0AA1F8C
:10552000BB1FA617B70710F0A61BB70B881F991F44
:105530005A95A9F780959095BC01CD01089597FBE8
:10554000092E07260AD077FD04D0E5DF06D000201B
:105550001AF4709561957F4F0895F6F790958195AF
:105560009F4F0895A1E21A2EAA1BBB1BFD010DC07F
:10557000AA1FBB1FEE1FFF1FA217B307E407F50703
:1055800020F0A21BB30BE40BF50B661F771F881FDF
:10559000991F1A9469F760957095809590959B0175
:1055A000AC01BD01CF01089597FB092E05260ED051
:1055B00057FD04D0D7DF0AD0001C38F45095409531
:1055C000309521953F4F4F4F5F4F0895F6F79095D7
:1055D0008095709561957F4F8F4F9F4F0895EE0F87
:1055E000FF1F0590F491E02D09942F923F924F9266
:1055F0005F926F927F928F929F92AF92BF92CF9263
:10560000DF92EF92FF920F931F93CF93DF93CDB76B
:10561000DEB7CA1BDB0B0FB6F894DEBF0FBECDBFE3
:1056200009942A88398848885F846E847D848C84B4
:105630009B84AA84B984C884DF80EE80FD800C81BD
:105640001B81AA81B981CE0FD11D0FB6F894DEBFA0
:0C5650000FBECDBFED010895F894FFCF10
:10565C004572726F7220696E20666C6173682C20C3
:10566C007465737420626C6F636B20002000202EB5
:10567C00004F757470757474696E6720002569002D
:10568C0054657374696E6720707265737375726597
:10569C002073656E736F72202E2E2E00503A2000F0
:1056AC0020543A2000446F6E652E00503A200020A2
:1056BC00543A200020423A200020533A2000663110
:1056CC0020006632200066332000466C69676874DF
:1056DC00206865696768743A20002E0054657374FD
:1056EC00696E672073656E736F72206E6F69736578
:1056FC002E0064656C7461503A200064656C7461B2
:10570C00543A200064656C7461563A200042756905
:10571C006C643A200053756E204D6179203038202E
:10572C0031343A30393A35312032303131002000C1
:10573C0054657374696E6720726164696F202E2ED4
:10574C002E002E00012D0802002D0902004D0A0228
:10575C0000EA0A0200400C0200FFFFB80B0400FD37
:10576C00FF0400FEFFB80B1000FDFF0400B80B1087
:10577C0000FDFF0400B80B1000FDFF6400FEFF2DC0
:10578C000802004D0A02002D080200400C0200FF26
:10579C00FF030301FF2D0802002D0902004D0A0230
:1057AC0000EA0A0200400C0200FFFF00000000ACFF
:0E57BC0021002218224A217821A0215E21001E
:00000001FF
