:100000000C94FC020C9424030C9424030C942403FD
:100010000C9424030C9424030C9424030C94C929F9
:100020000C9424030C9424030C9424030C942403B4
:100030000C9424030C945D0F0C9424030C9424035F
:100040000C941C230C9424030C9485250C942403F9
:100050000C9424030C9424030C9424030C94240384
:100060000C94FD090C94240307634236B79BD8A770
:100070001A39685618AEBAAB558C1D3CB7CC5763CD
:10008000BD6DEDFD753EF6177231BF000000803F7B
:1000900008000000BE922449123EABAAAA2ABECD97
:1000A000CCCC4C3E00000080BEABAAAAAA3E000009
:1000B0000000BF000000803F000000000008417801
:1000C000D3BB4387D1133D190E3CC3BD4282AD2B38
:1000D0003E68EC8276BED98FE1A93E4C80EFFFBE30
:1000E00001C4FF7F3F00000000006F70656E616C0F
:1000F00074696D65746572206669726D7761726589
:100100002076657273696F6E3A2056362E0A005358
:10011000657474696E6720757020646174617374AE
:100120006F7265202E2E2E0020646F6E652E0A00E1
:1001300045726173696E67202E2E2E20004C6F670A
:1001400067696E672064697361626C65642E0A007A
:100150004C6F6767696E6720656E61626C65642EBF
:100160000A004E756D626572206F662066696C6567
:10017000733A20004E756D626572206F6620656E61
:1001800074726965733A20004D617820656E7472EF
:100190006965733A200052756E6E696E67206469F6
:1001A00061676E6F73746963207465737473202E56
:1001B0002E2E200A00446961676E6F737469632094
:1001C000746573747320646F6E652E0A00466C61EB
:1001D0007368206D616E75666163747572657220F7
:1001E000696E666F3A200054657374696E672066A5
:1001F0006C6173682E0A0057726974696E67202EED
:100200002E2E200052656164696E67202E2E2E20EE
:1002100000546573743A205041535345442E0A00EC
:1002200054657374696E67206261747465727920B5
:100230006D6F6E69746F722E0A004261747465721C
:10024000793A200054657374696E67206265657041
:100250006572202E2E2E200053697A65206F66204D
:100260006C6F6720656E747279203A200053657454
:1002700074696E6720616C74696D65746572206263
:100280006173652070726573737572653A20004CF6
:1002900049504F202D206E756D626572206F66206B
:1002A00063656C6C733A2000536F756E64696E679A
:1002B000206C6F7720766F6C7461676520616C616C
:1002C000726D2E0A0053746F7070696E67206C6FC8
:1002D0007720766F6C7461676520616C61726D2E3A
:1002E0000A00536F756E64696E67206C6F737420BB
:1002F0006D6F64656C20616C61726D2E0A005374C1
:100300006F7070696E67206C6F7374206D6F6465B9
:100310006C20616C61726D2E0A0046616B696E67BC
:1003200020666C69676874202E2E2E2000466C6152
:100330007368206D656D6F72792066756C6C2E0A1E
:1003400000546573743A204641494C45442E0A00D6
:100350004461746120666F726D61743A2056310A8F
:100360000045726173696E672073657474696E67A6
:1003700073202E2E2E0054657374696E672073658A
:100380007474696E67732073746F7265202E2E2EDD
:100390000053657474696E677320666F726D617463
:1003A0003A2056360A004C6F6720696E7465727683
:1003B000616C3A200048656967687420756E6974DD
:1003C000733A2000426174746572792074797065A3
:1003D0003A20006E6F20626174746572790A004C75
:1003E00049504F20626174746572790A004E494D1C
:1003F0004820626174746572790A004C6F772076C8
:100400006F6C74616765207468726573686F6C6483
:100410003A200042617474657279206D6F6E697460
:100420006F722063616C6962726174696F6E3A20E9
:10043000004C6F6720736572766F3A2000537769BE
:10044000746368206D696420706F736974696F6E7E
:1004500020616374696F6E3A200053776974636832
:10046000206F6E20706F736974696F6E20616374A2
:10047000696F6E3A20004F7574707574206D6178E5
:10048000206865696768742E0A004F75747075740A
:10049000206C61756E6368206865696768742E0AF0
:1004A000004F7574707574206C61756E6368202BD5
:1004B000203573206865696768742E0A004F75746B
:1004C000707574206261747465727920766F6C74D3
:1004D0006167652E0A00446F206E6F7468696E67ED
:1004E0002E0A004D6178206865696768743A2000BB
:1004F0004C61756E6368206865696768743A2000AE
:10050000476C696465206865696768743A200042D1
:1005100061747465727920766F6C746167653A20D6
:1005200000EA000F01280130013D01500162017411
:100530000188019601B501CD01E701F7010402111F
:100540000220023A02440258026D028F02A802C53C
:1005500002E202FE021A032D0341035003610376F7
:10056000039103A603B503C403D303DF03ED03FB29
:1005700003130431043D045A0476048A04A104BD23
:1005800004D604E304F00400050F05020000000097
:10059000240027002A0000000000250028002B006E
:1005A00000000000230026002900040404040404C1
:1005B0000404020202020202030303030303010212
:1005C00004081020408001020408102001020408E1
:1005D00010200000000700020100000304060000D4
:1005E0000000000000006364696E6F7073757858D6
:1005F0005B000509BA18302711241FBECFEFD8E0E1
:10060000DEBFCDBF12E0A0E0B1E0E4E5F1E602C05C
:1006100005900D92AA35B107D9F714E0AAE5B2E02A
:1006200001C01D92A13AB107E1F715E0C8EFD5E08E
:1006300004C02297FE010E946230C23FD107C9F771
:100640000E946A270C94A8300C940000FB01DC0186
:1006500005900D920020E1F70895AEE0B0E0E3E3ED
:10066000F3E00C947F300D891E8986E08C831A8319
:1006700009838FEF9FE79E838D839E01275E3F4F07
:10068000CE0101966F89788DA9010E946B032F819D
:100690003885020F131FF80110822E96E4E00C94A7
:1006A0009B30AEE0B0E0E7E5F3E00C94813085E00C
:1006B0008C838B899C899A8389839E01295E3F4F15
:1006C000CE0101966D897E89A9010E94CC062E96E5
:1006D000E2E00C949D30ABE0B0E0E1E7F3E00C9495
:1006E00071303C012B015A01FC0117821682838173
:1006F00081FD03C06FEF7FEFC6C19AE0892E1E0116
:100700000894211C311CF3012381F20123FD859102
:1007100023FF81912F01882309F4B2C1853239F476
:1007200023FD859123FF81912F01853229F490E0EB
:10073000B3010E944008E7CF982FFF24EE249924AC
:10074000FFE1FF15D0F09B3269F09C3228F4903223
:1007500059F0933291F40EC09D3249F0903369F410
:1007600041E024C052E0F52A84E0F82A28C098E04D
:10077000F92A25C0E0E1FE2A22C0F7FC29C0892F12
:1007800080538A3070F4F6FE05C0989C902C11249A
:10079000980E15C0E89CE02C1124E80EF0E2FF2A28
:1007A0000EC09E3229F4F6FC6BC140E4F42A07C067
:1007B0009C3619F450E8F52A02C0983649F4F20143
:1007C00023FD959123FF91912F01992309F0B8CF33
:1007D000892F8554833018F08052833038F444E0F8
:1007E00050E0A40EB51E5FE359830FC0933631F07D
:1007F000933779F0933509F056C020C0F501808118
:10080000898342E050E0A40EB51E610101E010E0D2
:1008100012C0F501C080D180F6FC03C06FEF7FEFFE
:1008200002C0692D70E042E050E0A40EB51EC60182
:100830000E94F3078C015FE7F52214C0F501C08028
:10084000D180F6FC03C06FEF7FEF02C0692D70E02E
:1008500042E050E0A40EB51EC6010E94E8078C01DC
:1008600050E8F52AF3FE07C01AC080E290E0B30119
:100870000E944008EA948E2D90E008171907A8F30B
:100880000EC0F601F7FC8591F7FE81916F0190E0B3
:10089000B3010E944008E110EA9401501040011594
:1008A000110579F7EAC0943611F0993669F5F7FE2B
:1008B00008C0F501208131814281538184E090E0BC
:1008C0000AC0F501808191819C01442737FD409544
:1008D000542F82E090E0A80EB91E9FE6F92257FF40
:1008E00009C050954095309521953F4F4F4F5F4F30
:1008F000E0E8FE2ACA01B901A1012AE030E00E9425
:100900008608D82ED21840C0953729F41F2D1F7E97
:100910002AE030E01DC01F2D197F9F3661F090370F
:1009200020F4983509F0ACC00FC0903739F09837F3
:1009300009F0A6C004C028E030E00AC0106114FD30
:10094000146020E130E004C014FD166020E132E0C4
:1009500017FF08C0F501608171818281938144E0B5
:1009600050E008C0F50180819181BC0180E090E0F9
:1009700042E050E0A40EB51EA1010E948608D82EC8
:10098000D2188FE7F82EF122F6FE0BC05EEFF522AB
:10099000D91438F4F4FE07C0F2FC05C08FEEF8223B
:1009A00002C01D2D01C0192DF4FE0DC0FE01ED0D7C
:1009B000F11D8081803319F499EEF92208C01F5F80
:1009C000F2FE05C003C08F2D867809F01F5F0F2D42
:1009D000F3FC14C0F0FE0FC01E1510F09D2C0BC0D0
:1009E0009D2C9E0C911A1E2D06C080E290E0B30152
:1009F0000E9440081F5F1E15C0F304C01E1510F4AE
:100A0000E11A01C0EE2404FF0FC080E390E0B301BF
:100A10000E94400802FF1DC001FD03C088E790E06E
:100A20000EC088E590E00BC0802F867891F001FF22
:100A300002C08BE201C080E2F7FC8DE290E0B301DE
:100A40000E94400806C080E390E0B3010E94400885
:100A50009A94D914C0F3DA94F101ED0DF11D80815F
:100A600090E0B3010E944008DD20A9F706C080E2B3
:100A700090E0B3010E944008EA94EE20C1F743CE13
:100A8000F30166817781CB012B96E2E10C948D30E6
:100A9000FC0120FD08C023FD05C022FF02C07383B6
:100AA0006283518340830895EF92FF920F931F93C7
:100AB00044FF02C033E011C046FF02C034E00DC065
:100AC000DB01FC01AA0FBB1FEE1FFF1F1094D1F723
:100AD0006A0F7B1F8E1F9F1F31E0660F771F881FD5
:100AE000991F3150D1F77B018C01E20EF11C011DE1
:100AF000111DA8019701B701CA011F910F91FF9025
:100B0000EF9008950F931F93CF93DF938C01C8014B
:100B10000E94FE07EC0197FD08C00E946630892BF9
:100B2000B1F7CE01B8010E946C08CE01DF91CF91E0
:100B30001F910F910895A0E0B0E0E1EAF5E00C9478
:100B40007930EC01C62E5A01122F0E94FE07AC012B
:100B50008B3219F08D3251F41068CA9409F46DC0CB
:100B6000CE010E94FE07AC0197FD67C06DEFD62E47
:100B7000D1228D2D807301F54033F1F4CA9409F42C
:100B800047C0CE010E94FE07AC0197FD41C082E044
:100B9000D82A483711F0483559F480E4D82ACA9445
:100BA000B9F1CE010E94FE07AC0199232CF430C0AC
:100BB000D6FC02C080E1D82AEE24FF248701242F2E
:100BC0002053283088F0D4FC09C02A3068F0D6FEC3
:100BD00005C02F7D822F8151863028F0CA01BE01C9
:100BE0000E946C0812C02750C801B7014D2D0E9409
:100BF00054057B018C0182E0D82ACA9461F0CE01B1
:100C00000E94FE07AC0197FFDACFD1FC04C015C0EB
:100C1000EE24FF248701D7FE08C010950095F094BC
:100C2000E094E11CF11C011D111DC501B801A701D3
:100C30002D2D0E94480581E001C080E0CDB7DEB7D0
:100C4000EAE00C949530A0E2B0E0E9E2F6E00C9422
:100C500075306C01A62E8A017901FE01319680E281
:100C6000DF011D928A95E9F770E030E060E040E036
:100C700050E04F01A1E0B0E0F6018381F70183FD70
:100C8000259183FF21917F01222309F47EC02E3517
:100C900019F44115510569F1872F90E084179507E4
:100CA00044F42D3551F12D3221F4332329F431E070
:100CB00021C0332309F4622F322F832F8695869526
:100CC0008695F401E80FF11D832F87703D0102C066
:100CD000660C771C8A95E2F7208126292083361737
:100CE00011F430E007C0361710F43F5FE6CF315003
:100CF000E4CF71E04F5F5F4FBFCF332319F08E8198
:100D000080628E83772359F0FE0131969E012F5D1C
:100D10003F4F808180958193E217F307D1F7BB2481
:100D2000B3944E010894811C911CC6010E94FE07D9
:100D3000AC0197FD22C0869586958695F401E80F53
:100D4000F11D808190E09A012770307002C0959566
:100D500087952A95E2F780FD05C0CA01B6010E9479
:100D60006C080BC00115110519F0D8014D938D01C8
:100D7000AA94BB24AA20C9F602C0BB2031F40115F5
:100D8000110529F0F801108202C0EE24FF24C701EA
:100D9000A096EEE00C949130A0E0B0E0E2EDF6E039
:100DA0000C9475305C016B013A01FC0117821682CC
:100DB0008824EAC0812F90E00E946630892B21F0C0
:100DC000C5010E948205E0C0153249F4F601F3FC2A
:100DD0006591F3FE61916F01653269F415E2C50119
:100DE0000E94FE0797FDDCC0181709F4CDC0B501BD
:100DF0000E946C08DAC06A3219F0162F00E006C0B3
:100E0000F3FC1591F3FE11916F0101E099240FC0DD
:100E10000260692D70E080E090E040E20E9454059D
:100E2000962EF601F3FC1591F3FE11916F01212F1F
:100E300020532A3068F301FD03C099249A9403C01B
:100E4000992009F4B2C0183621F01C3699F4F60145
:100E50000BC0F601F3FC6591F3FE6191683619F061
:100E60006F01162F07C008600460F3FC1591F3FEB4
:100E700011916F01112309F498C086EE95E0612F5E
:100E800070E00E94DD07892B09F48FC0802F00FFDE
:100E900003C0EE24FF2407C0F301E080F18022E0CC
:100EA00030E0620E731E1E3651F4F5014681578103
:100EB00060E070E0C701202F0E94480565C013362E
:100EC00091F481FD02C099249394C5010E94FE070C
:100ED00097FD66C0E114F10419F0F70181937F01D9
:100EE0009A9499F74FC01B3559F4C501692DA70194
:100EF00096010E9423066C01009709F043C03DC093
:100F0000C5010E94820597FD4BC01F3659F110376D
:100F100028F4143629F1193639F527C0133719F09A
:100F2000153711F51DC0C5010E94FE07EC0197FDA4
:100F300011C00E946630892B29F0CE01B5010E94B4
:100F40006C0808C0E114F10419F0F701C1937F01A6
:100F50009A9449F7E114F104A9F0F701108212C044
:100F6000006203C0006101C00064C501692DA701D2
:100F7000202F0E949B05882329F4F501838180732B
:100F800079F413C000FF8394F501F380F601F3FCBC
:100F90001591F3FE11916F01112309F00BCF05C0DC
:100FA000882019F42FEF3FEF02C0282D30E0C9014F
:100FB000CDB7DEB7EEE00C949130FC01059006163B
:100FC00021F00020D9F7C00108953197CF0108958D
:100FD000FC010590615070400110D8F78095909504
:100FE0008E0F9F1F0895FC01615070400190011009
:100FF000D8F7809590958E0F9F1F0895CF93DF931C
:10100000EC014B8140FF1AC046FF0AC04F7B4B8367
:101010008E819F8101969F838E838A81282F2BC08A
:1010200042FF13C0E881F9818081282F332727FDF3
:1010300030952115310529F440624B832FEF3FEFA6
:101040001BC03196F983E88311C0EA85FB85CE0188
:1010500009959C0197FF0AC09B812F5F3F4F11F0BC
:1010600080E201C080E1892B8B83E8CF8E819F8154
:1010700001969F838E8330E0C901DF91CF9108955F
:101080000F931F93CF93DF938C01EB018B8181FF33
:101090001BC082FF0DC02E813F818C819D8128174E
:1010A000390764F4E881F9810193F983E88306C084
:1010B000E885F985802F0995892B31F48E819F81F0
:1010C00001969F838E8302C00FEF1FEFC801DF914F
:1010D000CF911F910F9108959C01FB01838180FFA7
:1010E00011C086FD0FC09FEF2F3F390759F02283B3
:1010F00080648F7D83838681978101979783868320
:1011000030E002C02FEF3FEFC9010895FA01AA278E
:10111000283051F1203181F1E8946F936E7F6E5F3A
:101120007F4F8F4F9F4FAF4FB1E03ED0B4E03CD0E8
:10113000670F781F891F9A1FA11D680F791F8A1FCB
:10114000911DA11D6A0F711D811D911DA11D20D032
:1011500009F468943F912AE0269F11243019305DEC
:101160003193DEF6CF010895462F4770405D4193DD
:10117000B3E00FD0C9F7F6CF462F4F70405D4A332A
:1011800018F0495D31FD4052419302D0A9F7EACFF2
:10119000B4E0A6959795879577956795BA95C9F721
:1011A00000976105710508959B01AC010A2E069414
:1011B0005795479537952795BA95C9F7620F731FCD
:1011C000841F951FA01D089581E080939F02609366
:1011D0007C0210929D0210929E02089580917B02E3
:1011E00090917A02891B089590917A0280917B02F6
:1011F000981710F080E00895E92FF0E0E65AFD4FCF
:1012000080819F5F90937A0208950895DF93CF9332
:101210000F92CDB7DEB7698380919F02882389F052
:1012200080919E02803290F480919D02E82FF0E040
:10123000E358FD4F60838F5F80939D0280939E02F1
:1012400005C0CE01019661E00E94E2090F90CF91A6
:10125000DF91089580917C026DE772E040919E02DB
:1012600021E00E949F0910929D0210929E0210920E
:101270009F020895413208F040E2862F6AE572E04D
:101280000E94680910927A0280937B0208950E945E
:101290003A09089510927A0210927B0210929D02F0
:1012A00010929E020E94550908951092A102449A3C
:1012B000459AE9EBF0E080818E7F808380818D7F8D
:1012C000808388E48093B80085E48093BC0008950F
:1012D000982F413210F040E030C08091A102882365
:1012E000E1F781E08093A1028FEF80930C031092CD
:1012F000C70241504093C8024F5F990F916090938D
:10130000A20285EE8093BC008091A1028130E1F3BE
:101310008091C702841710F44091C70220E030E0AA
:101320000AC0FB01E20FF31FD901A955BD4F8C91F3
:1013300080832F5F3F4F2417A0F3842F08951F93BE
:10134000582F122F413210F081E03AC08091A10253
:101350008823E1F782E08093A1028FEF80930C0352
:101360001092C7024093C802A7EAB2E0FB0102C094
:1013700081918D938E2F861B8417D0F3852F90E05B
:10138000880F991F8093A20285EE8093BC001123E1
:1013900021F08091A1028230E1F380910C038F3F14
:1013A00011F480E00DC080910C03803211F482E0D2
:1013B00007C080910C03803311F084E001C083E00A
:1013C0001F910895482F613210F081E008958091B7
:1013D000A102843011F082E008956093EA02A9EC42
:1013E000B2E0842F9C01F90102C081918D938E2F70
:1013F000841B8617D0F380E008951F920F920FB6DA
:101400000F9211242F933F934F935F936F937F938A
:101410008F939F93AF93BF93EF93FF938091B90006
:1014200090E0887F90708036910509F4DCC08136A9
:101430009105CCF58832910509F47BC0893291057C
:10144000B4F48031910509F46FC0813191053CF409
:10145000009709F431C1089709F039C165C0883196
:10146000910509F466C0809709F031C17DC08034D0
:10147000910509F49FC08134910544F480339105AE
:1014800009F47DC0C89709F022C184C08035910558
:1014900009F484C08835910509F491C08834910518
:1014A00009F015C198C08839910509F4FDC0893942
:1014B0009105ECF48837910509F495C089379105B9
:1014C0004CF48836910509F48EC08037910509F0F7
:1014D000FEC089C08838910509F4E6C080399105BD
:1014E00009F487C08038910509F0F1C082C0803BC3
:1014F000910509F4B0C0813B91054CF4803A910507
:1015000009F489C0883A910509F0E1C0A4C0803C83
:10151000910509F4CDC0883C910509F4C9C0883B08
:10152000910509F0D4C0ACC08091A2028093BB00A9
:10153000B9C09091C7028091C802981768F4909141
:10154000C702E92FF0E0E955FD4F80818093BB0091
:101550009F5F9093C702A6C085ED8093BC008091E9
:10156000BC0084FDFCCFB1C080E280930C0385ED0C
:101570008093BC008091BC0084FDFCCFA6C080E3BA
:1015800080930C0385ED8093BC008091BC0084FDAA
:10159000FCCF9BC088E380930C038AC08091C70274
:1015A0009091BB00E82FF0E0E955FD4F90838F5FED
:1015B0008093C7029091C7028091C80271C0809148
:1015C000C7029091BB00E82FF0E0E955FD4F9083F2
:1015D0008F5F8093C70285ED8093BC008091BC0033
:1015E00084FDFCCF72C083E08093A10210920B03B4
:1015F00059C080910B03803208F056C080910B03D4
:101600009091BB00E82FF0E0E551FD4F90838F5F94
:1016100080930B0347C080910B03803230F4E0913C
:101620000B03F0E0E551FD4F108285ED8093BC0087
:101630008091BC0084FDFCCF1092A10260910B034D
:10164000E091A502F091A6028BEE92E070E0099580
:1016500010920B032DC084E08093A1021092E90246
:101660001092EA02E091A302F091A4020995809100
:10167000EA02882329F481E08093EA021092C902E9
:101680009091E902E92FF0E0E753FD4F80818093CC
:10169000BB009F5F9093E9029091E9028091EA027A
:1016A000981710F485EC01C085E88093BC000FC04A
:1016B00085EC8093BC0009C010920C0385ED8093EB
:1016C000BC008091BC0084FDFCCF1092A102FF9170
:1016D000EF91BF91AF919F918F917F916F915F91AA
:1016E0004F913F912F910F900FBE0F901F90189523
:1016F000F999FECF72BD61BDF89A80B50895F99948
:10170000FECF1FBA72BD61BD40BD0FB6F894FA9A04
:10171000F99A0FBE0895FC01718360830895BF920A
:10172000CF92DF92EF92FF920F931F93B42EE52E8C
:101730008BEEC82E83E0D82EC6010E94ED22C60192
:101740006E2D0E94ED22C6016B2D0E94ED221F918D
:101750000F91FF90EF90DF90CF90BF900895AF92E0
:10176000BF92CF92DF92EF92FF921F93CF93DF93BE
:101770007C01162F5A016901FC01608171818BEE99
:1017800093E00E94F8228BEE93E0612F0E94ED22FD
:10179000C0E0D0E009C0F501EC0FFD1F8BEE93E037
:1017A00060810E94ED222196CC15DD05A4F3F7019E
:1017B000608171818BEE93E00E94F322DF91CF91E3
:1017C0001F91FF90EF90DF90CF90BF90AF90089562
:1017D000AF92BF92CF92DF92EF92FF921F93CF937F
:1017E000DF937C01162F5A016901FC016081718130
:1017F0008BEE93E00E94F8228BEE93E0612F0E9423
:10180000ED22C0E0D0E00AC08BEE93E060E00E94E1
:10181000ED22F501EC0FFD1F80832196CC15DD052F
:101820009CF3F701608171818BEE93E00E94F322BB
:10183000DF91CF911F91FF90EF90DF90CF90BF90FD
:10184000AF90089540E050E020E030E00E94E80BC7
:10185000089564E00E94220C08950F931F93DF9374
:10186000CF930F92CDB7DEB78C01198261E0AE0144
:101870004F5F5F4F21E030E00E94AF0BC80166E090
:101880000E94220C0F90CF91DF911F910F9108952C
:10189000DF93CF930F92CDB7DEB765E0AE014F5F18
:1018A0005F4F21E030E00E94E80B89810F90CF91DB
:1018B000DF910895CF93DF93EC01CE010E94480C95
:1018C00080FDFBCFDF91CF9108950F931F938C0183
:1018D0000E942D0CC80167EC0E94220CC8010E94D6
:1018E0005A0C1F910F9108954F925F926F927F92C1
:1018F0008F929F92AF92BF92CF92DF92EF92FF9220
:101900000F931F93CF93DF93EC015A016B012901D1
:10191000370148010E942D0C688179818BEE93E09C
:101920000E94F8228BEE93E06DEA0E94ED22CE0138
:10193000B601A5010E948F0B8BEE93E0F20160814E
:101940000E94ED22688179818BEE93E00E94F32260
:10195000CE010E945A0CEE24FF2487011CC068812E
:1019600079818BEE93E00E94F8228BEE93E06DEA92
:101970000E94ED22F201EE0DFF1D8BEE93E06081DF
:101980000E94ED22688179818BEE93E00E94F32220
:10199000CE010E945A0C0894E11CF11C011D111D7E
:1019A000E614F70408051905D0F2CE010E94290CAF
:1019B000DF91CF911F910F91FF90EF90DF90CF902B
:1019C000BF90AF909F908F907F906F905F904F905F
:1019D00008954F925F926F927F928F929F92AF92F3
:1019E000BF92CF92DF92EF92FF920F931F93CF930C
:1019F000DF93EC015A016B0129013701480168812D
:101A000079818BEE93E00E94F8228BEE93E06BE0FD
:101A10000E94ED22CE01B601A5010E948F0B8BEE34
:101A200093E060E00E94ED22EE24FF2487010EC0C7
:101A30008BEE93E060E00E94ED22F201EE0DFF1DBF
:101A400080830894E11CF11C011D111DE614F704AC
:101A50000805190568F3688179818BEE93E00E948F
:101A6000F322DF91CF911F910F91FF90EF90DF90C4
:101A7000CF90BF90AF909F908F907F906F905F902E
:101A80004F9008952F923F924F925F926F927F9264
:101A90008F929F92AF92BF92CF92DF92EF92FF927E
:101AA0000F931F93DF93CF93CDB7DEB7C250D140D2
:101AB0000FB6F894DEBF0FBECDBF2C018CE090E0D6
:101AC0000E94D92083E090E00E94D920C2010E94A8
:101AD000650C82E090E00E94D9208DE090E00E94A9
:101AE000D920FE013196CE018F579F4F1192E817F2
:101AF000F907E1F7AA24BB2465014E010894811C73
:101B0000911CC201B601A5019401A0E8EA2EF12CB6
:101B1000012D112D0E94740CAE0CBF1CC01ED11ED5
:101B200080E0A81680E4B80680E0C80680E0D80609
:101B300041F782E090E00E94D9208EE090E00E9480
:101B4000D920AA24BB246501662477244301F1E847
:101B50002F2E312C2C0E3D1EDE01AF5FBE4FCF5F0E
:101B6000DE4FB983A883C150D140C201B401A301A3
:101B70009101E0E8EE2EF12C012D112D0E94E90CCF
:101B8000F10120E030E040E050E08191280F311D6C
:101B9000411D511DCF5FDE4F88819981C150D140D9
:101BA000E817F90791F7211531054105510591F025
:101BB00089E794E060E071E00E94A82789E794E05B
:101BC000B601A5012AE030E00E94B9288CE190E03E
:101BD0000E94D9200894A11CB11CC11CD11C80E812
:101BE00090E0A0E0B0E0680E791E8A1E9B1E90E88F
:101BF000A916B104C104D10409F0B7CF82E090E086
:101C00000E94D92083E090E00E94D920C2010E9466
:101C1000650C82E090E00E94D9208FE090E00E9465
:101C2000D920CE5FDE4F0FB6F894DEBF0FBECDBF1A
:101C3000CF91DF911F910F91FF90EF90DF90CF90A8
:101C4000BF90AF909F908F907F906F905F904F90DC
:101C50003F902F9008950F931F938C01FC0180817A
:101C600061E00E943724C8010E942D0C1F910F9142
:101C70000895FC01718360830895FC018281938142
:101C80000895CF92DF92EF92FF920F931F938C01F2
:101C9000FC01658176818781908521EE3AE746E9EE
:101CA0005CE30E94132E6B017C01F80180810E948D
:101CB0001524AA2797FDA095BA2FBC01CD010E943B
:101CC0005F2D9B01AC01C701B6010E94132E1F912D
:101CD0000F91FF90EF90DF90CF900895EF92FF92D9
:101CE0000F931F938C0180E190E00E94D92081E145
:101CF00090E00E94D920C8010E94410E7B018C0116
:101D000089E794E0B801A70122E030E00E949D2914
:101D1000C801B7012CE53FE842EA50E40E94C02C1C
:101D200088236CF4C801B70124EA30E74DE950E498
:101D30000E940F2E18161CF48FE090E002C08CE178
:101D400090E00E94D9201F910F91FF90EF9008958D
:101D5000DF92EF92FF920F931F93CF93DF93EC01EB
:101D600089859A85029711F4DD2452C0CE010E9424
:101D7000410E7B018C0189859A858130910529F579
:101D80008C812A813B81882389F0DD24B901882751
:101D900077FD8095982F0E945F2D9B01AC01C801B3
:101DA000B7010E94C42C7B018C0115C0DD24B90150
:101DB000882777FD8095982F0E945F2D9B01AC01AD
:101DC000C801B7010E94C42C18C0892B01F58C8171
:101DD000882381F0DD246B857C858D859E852DECA7
:101DE0003CEC4CE45EE30E945C2C9B01AC01C8011E
:101DF000B70107C0DD24C801B7012B853C854D859F
:101E00005E850E94C02C882314F4DD24D394DC82E8
:101E10008D2DDF91CF911F910F91FF90EF90DF906B
:101E20000895EF92FF920F931F93CF93DF93EC01EE
:101E30001C827A8769872D833E834F835887EB8680
:101E4000FC860D871E8761307105A9F40E94410E42
:101E50002AE939E949E051E40E94C02C992787FD1D
:101E600090958827990F881F992723E030E0281B39
:101E7000390B3B832A83DF91CF911F910F91FF9004
:101E8000EF90089506C06AE070E080E090E00E9464
:101E90007E23809116038823B1F764E670E080E02A
:101EA00090E00E947E23089580910E030E942E2AC6
:101EB00010926F001092160308951F920F920FB6A2
:101EC0000F9211242F933F934F935F936F937F93C0
:101ED0008F939F93AF93BF93EF93FF9380911403DE
:101EE0009091150301979093150380931403892B08
:101EF00009F04EC0809112039091130301969093C4
:101F0000130380931203880F991F880F991FE09184
:101F10001003F0911103E80FF91F608171818FEFB9
:101F20006F3F780719F40E94540F32C08FEF6E3F55
:101F3000780749F48FEF9FEF909313038093120378
:101F400081E090E021C08FEF6D3F780729F4809108
:101F50000E030E942E2A08C080910E0320E030E07C
:101F600040E050E00E94452A8091120390911303B3
:101F7000880F991F880F991FE0911003F0911103AA
:101F8000E80FF91F828193819093150380931403C6
:101F9000FF91EF91BF91AF919F918F917F916F9141
:101FA0005F914F913F912F910F900FBE0F901F9017
:101FB0001895FF920F931F938C01FF24F394F092D6
:101FC00016039093110380931003FC0160817181CB
:101FD00080910E0320E030E040E050E00E94452A6E
:101FE0001092130310921203F8018281938190934F
:101FF0001503809314031092800083E18093810085
:102000008AE196E09093870080938600F0926F00BB
:102010001F910F91FF900895DF93CF93CDB7DEB757
:1020200066970FB6F894DEBF0FBECDBF82E190E099
:102030000E94D920DE011196E2E3F2E086E10190F0
:102040000D928150E1F7CE0101960E94D90F0E94B6
:10205000420F82E090E00E94D92066960FB6F89475
:10206000DEBF0FBECDBFCF91DF9108952F923F927B
:102070004F925F926F927F928F929F92AF92BF9298
:10208000CF92DF92EF92FF920F931F93DF93CF9344
:10209000CDB7DEB728970FB6F894DEBF0FBECDBF21
:1020A0007C012DB63EB689E794E061E271E00E94C2
:1020B000A82789E794E0B7014AE050E00E94F3289E
:1020C00000D000D000D0EDB7FEB731968E010F5F83
:1020D0001F4FADB7BEB712961C930E9311978DE2AA
:1020E00091E093838283F582E4820E942D03F801BC
:1020F00001900020E9F7BF0161507040601B710B37
:102100008DB79EB706960FB6F8949EBF0FBE8DBFD3
:10211000ADB7BEB7A61BB70B0FB6F894BEBF0FBEC8
:10212000ADBFEDB6FEB60894E11CF11C20E030E036
:102130000BC0F701E20FF31FD801A20FB31F8C9160
:10214000805380832F5F3F4F2617370794F320E09B
:1021500030E040E050E013C0F701E40FF51F80814C
:10216000882319F4285F3F4F08C0992787FD909571
:10217000880F991F0196280F391F4F5F5F4F461731
:10218000570754F32F5F3F4F220F331F220F331F88
:10219000EDB7FEB7E21BF30B0FB6F894FEBF0FBE10
:1021A000EDBF4DB75EB74F5F5F4F20E030E000E01E
:1021B00010E0B8EB8B2EBBE09B2EA2E0AA2EB12C38
:1021C000FDEFCF2EFFEFDF2EE5E06E2E712C9FE0AE
:1021D000492E512C7DC0F701E00FF11FE081D9019C
:1021E000AA0FBB1FEE23F9F0A40FB51F80E090E00B
:1021F000FF27E7FDF09513C011969C928E921396DF
:102200007C926E9212971596DC92CE921497179646
:102210007C926E9216972C5F3F4F019618968E1700
:102220009F0754F340C0A40FB51F8D929C92C90123
:102230000196FC01EE0FFF1FE40FF51FB182A08293
:102240000196FC01EE0FFF1FE40FF51FD182C08243
:102250000196FC01EE0FFF1FE40FF51FB182A08273
:102260000196FC01EE0FFF1FE40FF51F91828082A3
:102270000196FC01EE0FFF1FE40FF51FB182A08253
:102280000196FC01EE0FFF1FE40FF51FD182C08203
:102290000196FC01EE0FFF1FE40FF51FB182A08233
:1022A0009C012F5F3F4FF901EE0FFF1FE40FF51F59
:1022B000D182C082C9010196FC01EE0FFF1FE40F1D
:1022C000F51F518240829C012F5F3F4F0F5F1F4FD0
:1022D000061717070CF47FCF220F331F240F351F6B
:1022E0008FEF9FEFD9018D939C93CA010E94D90F64
:1022F0000E94420F6CE271E080E090E00E947E2339
:102300000FB6F8943EBE0FBE2DBE28960FB6F894B9
:10231000DEBF0FBECDBFCF91DF911F910F91FF9018
:10232000EF90DF90CF90BF90AF909F908F907F9075
:102330006F905F904F903F902F90089580930E0381
:1023400090930F0361E00E94372480910E0360E0B8
:102350000E945D240895FC0171876087538742873E
:102360003587248708952F923F925F926F927F92D4
:102370008F929F92AF92BF92CF92DF92EF92FF9295
:102380000F931F93DF93CF9300D000D0CDB7DEB76C
:102390001C01DC0158962D913C91599740E050E08A
:1023A00098966D917D918D919C919B97621B730B7B
:1023B000840B950B56962D913C91579740E050E039
:1023C0000E94DD2F7B018C013FE016950795F79465
:1023D000E7943A95D1F7F10160A171A1882777FDC3
:1023E0008095982F2BE0660F771F881F991F2A95DD
:1023F000D1F722A133A1442737FD4095542F2E0D4C
:102400003F1D401F511F0E94453059016A01AE0C0B
:10241000BF1CC01ED11E88E090E0A0E0B0E0A80E76
:10242000B91ECA1EDB1ED601C50114E0B595A795DD
:10243000979587951A95D1F7F10180839183A283AF
:10244000B38388E590EFAFEFBFEFA80EB91ECA1EA9
:10245000DB1EC601B501A60195010E94DD2F3B01DF
:102460004C01ACE09594879477946794AA95D1F742
:10247000D1011C965C901C9752962D913C915397DC
:10248000442737FD4095542FC601B5010E94DD2F2A
:102490007B018C01FDE015950795F794E794FA957B
:1024A000D1F782E090E0A0E0B0E0E80EF91E0A1F4C
:1024B0001B1FD1015A962D913C915B97442737FD04
:1024C0004095542FC401B3010E94DD2FBC01992710
:1024D00077FD9095892FE60EF71E081F191F52E011
:1024E00015950795F794E7945A95D1F780E090E811
:1024F000A0E0B0E0E80EF91E0A1F1B1FD1015496A0
:102500002D913C91559740E050E0C801B7010E94E1
:10251000DD2FDC01CB014FE0B695A7959795879508
:102520004A95D1F789839A83AB83BC83D1015096B6
:102530002D913C915197442737FD4095542FC6016A
:10254000B5010E94DD2F7B018C013BE015950795BD
:10255000F794E7943A95D1F7F10186859785AA27F4
:1025600097FDA095BA2F22E0880F991FAA1FBB1FC5
:102570002A95D1F7E80EF91E0A1F1B1F248D358DF1
:10258000442737FD4095542FC401B3010E94DD2F2D
:10259000ABE09595879577956795AA95D1F7E60E67
:1025A000F71E081F191F052C04C0EE0CFF1C001F8E
:1025B000111F0A94D2F7F2E015950795F794E79466
:1025C000FA95D1F7D1019C966D917D918D919C9159
:1025D0009F976E197F09800B910B20E533EC40E04B
:1025E00050E004C055954795379527955A94D2F7F2
:1025F0000E94DD2F97FD0FC0660F771F881F991F60
:1026000029813A814B815C810E942330C901DA0122
:102610005C016D010CC029813A814B815C810E9473
:10262000233059016A01AA0CBB1CCC1CDD1C5527A8
:10263000D7FC5A954D2D3C2D2B2DCA01B9010E9476
:10264000DD2F2EED3BE040E050E00E94DD2F7B01CE
:102650008C01C601B50123E433EE4FEF5FEF0E941A
:10266000DD2FBC01992777FD9095892F6153714F1C
:102670008F4F9F4F78011127F7FC1095012F6E0D9A
:102680007F1D801F911F24E095958795779567950D
:102690002A95D1F76A0D7B1D8C1D9D1DF101648368
:1026A0007583868397830F900F900F900F90CF9133
:1026B000DF911F910F91FF90EF90DF90CF90BF902F
:1026C000AF909F908F907F906F905F903F902F90F2
:1026D0000895FC0144A355A366A377A30895FC01C4
:1026E00064A175A186A197A10895EF92FF920F931F
:1026F0001F93162F042F40EAE42E42E0F42EC70168
:1027000067E770E00E94E408C701612F0E94060994
:10271000C701602F0E940609C7010E942A091F9164
:102720000F91FF90EF9008951F93162F80EA92E08B
:1027300067E770E00E94E40880EA92E0612F0E945F
:10274000060980EA92E00E942A0980EA92E067E79F
:1027500070E041E050E00E94470980EA92E00E9468
:10276000EE088823D1F380EA92E00E94F4081F91DA
:102770000895AF92BF92CF92DF92EF92FF920F93A4
:102780001F935C01D62E0E949413E82ED394C501AA
:102790006D2D0E949413C82ED394C5016D2D0E94F7
:1027A0009413FF2400E010E08701FF24EE24E80EDC
:1027B000F11C011D111D9C2D80E0A0E0B0E0E80E91
:1027C000F91E0A1F1B1FB701C8011F910F91FF902F
:1027D000EF90DF90CF90BF90AF900895EF92FF926F
:1027E0000F931F937C01162F0E949413082F1F5FD5
:1027F000C701612F0E949413302F20E0280F311D54
:10280000C9011F910F91FF90EF9008958F929F92B1
:10281000AF92BF92CF92DF92EF92FF920F931F93EE
:102820006C0148015901CB01BA010E945D2D7B0169
:102830008C01F60164A175A186A197A10E945D2D6E
:102840009B01AC01C801B7010E94C42C21E33CE00C
:1028500043E45EE30E94762E7B018C01C501B40146
:1028600020E03AE24DE257E40E94132E5B016C0136
:1028700060E070E080E89FE3A80197010E945B2C74
:102880009B01AC01C601B5010E94132E0E942C2DA4
:102890009B01AC01CA011F910F91FF90EF90DF9057
:1028A000CF90BF90AF909F908F900895CF93DF937C
:1028B000EC014C854295440F440F407C4C5C64EF26
:1028C0000E9475138A859B85892B01F58C859D85D2
:1028D0008130910551F08230910571F0892B89F496
:1028E00065E070E080E090E004C068E070E080E0C7
:1028F00090E00E947E230FC06EE070E080E090E0E8
:10290000F8CF6AE170E080E090E0F3CF8A850E9422
:10291000B1240197D9F7CE0166EF0E94B91328E0E0
:1029200030E04C855D85241B350B04C0969587955A
:10293000779567952A95D2F76CA77DA78EA79FA755
:10294000DF91CF910895CF93DF93EC0164EF4EE2D6
:102950000E9475138A859B85892B39F465E070E0A8
:1029600080E090E00E947E2305C08A850E94B12409
:102970000197D9F7CE0166EF0E94EE13A0E0B0E018
:1029800088A799A7AAA7BBA7DF91CF9108958F9297
:102990009F92AF92BF92CF92DF92EF92FF920F93EE
:1029A0001F93CF93DF936C015B014A01EE24FF2458
:1029B0008701C0E0D0E00DC0C6010E94A314F6015B
:1029C00080A591A5A2A5B3A5E80EF91E0A1F1B1F9D
:1029D0002196CA15DB0584F39501442737FD409500
:1029E000542FC801B7010E942330F60120A731A758
:1029F00042A753A7EE24FF248701C0E0D0E00DC01A
:102A0000C6010E945614F60184A595A5A6A5B7A5F2
:102A1000E80EF91E0A1F1B1F2196C815D90584F35D
:102A20009401442737FD4095542FC801B7010E94F7
:102A30002330F60124A735A746A757A7C6010E9451
:102A4000B311DF91CF911F910F91FF90EF90DF9025
:102A5000CF90BF90AF909F908F900895CF93DF93CA
:102A6000EC0189E794E060E371E00E94DD2889E7EA
:102A700094E06CE471E00E94A827CE0164E170E06C
:102A80004AE050E00E94C7144C815D816E817F81D5
:102A900089E794E02AE030E00E94592889E794E031
:102AA00060E571E00E94A827488159816A817B8195
:102AB00089E794E02AE030E00E94E82889E794E082
:102AC00065E571E00E94DD2888819981AA81BB813A
:102AD00087599040A040B04085399105A105B105C6
:102AE000A0F44C815D816E817F8148328AE958076C
:102AF00081E0680780E0780744F4495B5248614010
:102B000070401CF08FE090E002C08CE190E00E94E9
:102B1000D920DF91CF9108950F931F938C0164E129
:102B200070E04AE050E00E94C714F801848195816A
:102B3000A681B78184A395A3A6A3B7A31F910F91E4
:102B40000895FC0180859185009749F061E00E941D
:102B50005D246AE070E080E090E00E947E230895AA
:102B6000CF93DF93EC0188859985009719F061E098
:102B70000E9437248A8560E00E9437248A8560E0BD
:102B80000E945D24CE010E94A11564E170E080E006
:102B900090E00E947E23CE016AEA0E94EE139F8796
:102BA0008E87CE016CEA0E94EE13998B888BCE0142
:102BB0006EEA0E94EE139B8B8A8BCE0160EB0E9423
:102BC000EE139D8B8C8BCE0162EB0E94EE139F8BDC
:102BD0008E8BCE0164EB0E94EE13998F888FCE010D
:102BE00066EB0E94EE139B8F8A8FCE0168EB0E94EA
:102BF000EE139D8F8C8FCE016AEB0E94EE139F8F98
:102C00008E8FCE016CEB0E94EE1399A388A3CE01A8
:102C10006EEB0E94EE139BA38AA3DF91CF910895E0
:102C2000FC017183608312821382148215821682E2
:102C300017821086118612861386148615860895CB
:102C4000FC0182819381A481B5810596A11DB11DEE
:102C500082839383A483B58386819781A085B18580
:102C60000196A11DB11D86839783A087B187089522
:102C7000FC0112861386148615860895FC0160E017
:102C8000228533854485558582819381A481B581D0
:102C9000281739074A075B0709F061E0862F089576
:102CA000FC0182819381A481B5810597A109B109B5
:102CB00082879387A487B587089520E0FC018285E9
:102CC0009385A485B5850097A105B10509F021E09C
:102CD000822F0895FC016681778180859185089512
:102CE000FC01628173818481958125E030E040E0C0
:102CF00050E00E942330CA01B9010895FC014D5CE7
:102D00005B48518340830895FC0120813181442731
:102D100037FD4095542F235334474E4F5F4FB90131
:102D2000CA0108950F931F938C014A565F4F6F4F4E
:102D30007F4FCB01BA010E945F2D2DEC3CEC4CEC97
:102D40005EE30E94132E0E94312DF80162831F91D1
:102D50000F910895FC01628170E0882777FD8095CE
:102D6000982F0E945F2D20E030E040E250E40E9466
:102D7000132E20E030E046E153E40E945B2C0E94D9
:102D80002C2D9B01AC01CA0108950F931F938C0158
:102D9000CB01BA0120E030E040E050E40E945B2C1F
:102DA00020E030E040EA51E40E94132E0E94312DD1
:102DB000F80163831F910F910895FC01638170E016
:102DC00080E090E00E945D2D2DEC3CEC4CE45DE356
:102DD0000E94132E20E030E040E050E40E945C2C82
:102DE0000895FC016115710511F414820895645F62
:102DF000714083E0769567958A95E1F7648308953D
:102E0000FC01808191818F5F9F4F11F020E005C010
:102E100020E082818F3F09F421E0822F08950F93F3
:102E20001F938C0189E794E06BE571E00E94A8276D
:102E3000F80140815181662757FD6095762F4353F5
:102E400054476E4F7F4F89E794E02AE030E00E94BC
:102E5000592889E794E06FE571E00E94A827F801FE
:102E6000628170E0882777FD8095982F0E945F2D02
:102E700020E030E040E250E40E94132E20E030E0F9
:102E800046E153E40E945B2C0E942C2DAB01BC0157
:102E900089E794E02AE030E00E94592889E794E02D
:102EA00064E671E00E94A827F801638170E080E089
:102EB00090E00E945D2D2DEC3CEC4CE45DE30E9423
:102EC000132E20E030E040E050E40E945C2CAB0187
:102ED000BC0189E794E022E030E00E949A2989E76A
:102EE00094E069E671E00E94A827F80164816623F6
:102EF00019F460E070E008C070E023E0660F771F0F
:102F00002A95E1F76C507E4F89E794E04AE050E063
:102F10000E94C4281F910F910895CF92DF92EF92E3
:102F2000FF920F931F936C019B01FC014285538517
:102F30006485758580819181E5E0EE2EF12C012D6F
:102F4000112D0E94E90CF60182859385A485B58533
:102F50000597A109B10982879387A487B5871F9137
:102F60000F91FF90EF90DF90CF900895CF92DF9276
:102F7000EF92FF920F931F936C019B01FC0142851E
:102F800053856485758580819181F5E0EF2EF12C64
:102F9000012D112D0E94E90CF60182859385A485EF
:102FA000B5850596A11DB11D82879387A487B58736
:102FB0001F910F91FF90EF90DF90CF900895CF92E7
:102FC000DF92FF920F931F93DF93CF9300D000D037
:102FD0000F92CDB7DEB78C01FC01168217821086E6
:102FE00011861286138614861586FF246E010894B6
:102FF000C11CD11C56C0C801B6010E94B6172A8157
:10300000898190E0A0E0B0E0820F911DA11DB11D6B
:103010002B81820F911DA11DB11D2C81820F911D4D
:10302000A11DB11D2D81820F911DA11DB11D8B5FB1
:103030009440A040B04011F0FF2433C0F801268135
:103040003781408551852F5F3F4F4F4F5F4F26831C
:103050003783408751872150304040405040FF2007
:10306000F1F082859385A485B5850597A109B109FD
:1030700082839383A483B5830597A105B10549F4A1
:10308000128213821482158216821782108611868C
:103090001BC0F801268337834087518715C0FF2462
:1030A000F394F80182859385A485B585863FFFEF6B
:1030B0009F07F7E0AF07F0E0BF0708F49CCFF801E7
:1030C00082839383A483B5830F900F900F900F900A
:1030D0000F90CF91DF911F910F91FF90DF90CF90D4
:1030E00008950E94DF170895EF92FF920F931F93A8
:1030F000CF93DF93EC019B014A815B816C817D81E1
:10310000463F8FEF580787E0680780E0780710F0A8
:1031100080E015C088819981A5E0EA2EF12C012D6F
:10312000112D0E94740C8A819B81AC81BD81059612
:10313000A11DB11D8A839B83AC83BD8381E0DF9198
:10314000CF911F910F91FF90EF9008950F931F93D0
:103150008C01FC01808191810E94650CF801128232
:1031600013821482158216821782108611861F918F
:103170000F9108950F931F9387E193E061E170E051
:1031800040E150E021E030E00E94AB1187E493E0A1
:1031900066E070E00E94390E06E513E0C8016AE0BF
:1031A00070E00E948B0B88E593E0B8010E94101636
:1031B00086E693E068E070E00E94EF2088E693E006
:1031C00069E070E00E94EF201F910F9108958091B7
:1031D000FD01882331F01092FD0184E090E00E940F
:1031E000D92008950E94E71883E090E00E94D9203A
:1031F00088E593E00E94A61882E090E00E94D92022
:1032000008958F929F92AF92BF92CF92DF92EF92EA
:10321000FF920F931F93DF93CF9300D000D00F92B4
:10322000CDB7DEB78AE190E00E94D92087E193E034
:103230000E946F134B015C01EE24FF2487016E0195
:103240000894C11CD11CB801A701480D591D6A1D65
:103250007B1DC6010E947E16C60144E150E060E07D
:1032600070E00E949216C60144E15EEA6FEB70E4E2
:103270000E94C516C60160E070E00E94F11688E564
:1032800093E0B6010E94741884ED9EEFAFEFBFEF9C
:10329000E80EF91E0A1F1B1F98E4E91694EFF906C1
:1032A0009FEF09079FEF190771F688E4E82E84EF76
:1032B000F82E8FEF082F8FEF182FE80CF91C0A1D3E
:1032C0001B1DCC24DD245E010894A11CB11CC5018A
:1032D000B801A7010E947E16C50144E150E060E0FC
:1032E00070E00E949216C50144E15EEA6FEB70E463
:1032F0000E94C516C50160E070E00E94F11688E5E5
:1033000093E0B5010E9474180894C11CD11C86E09A
:1033100090E0A0E0B0E0E80EF91E0A1F1B1F94EF3A
:10332000C91691E0D90699F682E090E00E94D92072
:103330000F900F900F900F900F90CF91DF911F91F2
:103340000F91FF90EF90DF90CF90BF90AF909F9044
:103350008F900895CF93DF930E94E718CFE6D3E0D4
:1033600005C089E794E069910E941D2783E0C43875
:10337000D807B9F7DF91CF91089580916A03882328
:1033800059F486E190E00E94D92081E080936A039D
:1033900084E192E00E94D90F0895CF93DF930E94B9
:1033A000E71889E794E00E94BB264597D0F3CFE663
:1033B000D3E005C089E794E00E94E926899383E081
:1033C000C438D807B9F7CE0145970E945A228EE13A
:1033D00092E00E94D90F0E94420FDF91CF91089591
:1033E0008EE190E00E94D9200E9448228EE192E076
:1033F0000E94D90F0E94420F82E090E00E94D920E3
:10340000089580916A03882341F087E190E00E944B
:10341000D9200E94540F10926A0308950F931F93AE
:10342000DF93CF9300D000D00F92CDB7DEB70E94CC
:10343000E71888E593E00E9438168E010F5F1F4F52
:1034400008C088E593E0B8010E94B617C8010E9441
:103450000F1788E593E00E943E16882391F70F909E
:103460000F900F900F900F90CF91DF911F910F91C0
:1034700008950F931F93DF93CF9300D000D00F9246
:10348000CDB7DEB70E94E71888E593E00E943816B2
:103490008E010F5F1F4F0CC088E593E0B8010E94BA
:1034A000B61789E794E0B80145E050E00E9489270B
:1034B00088E593E00E943E16882371F700E010E053
:1034C00089E794E06FEF0E941D270F5F1F4F0A30BE
:1034D0001105B1F70F900F900F900F900F90CF91B3
:1034E000DF911F910F910895EF92FF920F931F9319
:1034F0000E94E71886E090E00E94D92098E5E92E26
:1035000093E0F92EC7010E946A16AB01BC0109E7DE
:1035100014E0C8012AE030E00E94B92887E090E07A
:103520000E94D920C7010E947016AB01BC01C801DE
:103530002AE030E00E94B92888E090E00E94D9207B
:10354000C80147E959E961E070E02AE030E00E94F3
:10355000B9281F910F91FF90EF9008958091FD0180
:10356000882389F40E94702360936B0370936C032B
:1035700080936D0390936E0381E08093FD0185E05D
:1035800090E00E94D9200895DF92EF92FF920F936E
:103590001F937B018C01D42E0E94E7181092920396
:1035A0008D2D992787FD90950E94D920C7010E94F3
:1035B000361064EF71E080E090E00E947E230E946C
:1035C000AE1A1F910F91FF90EF90DF90089587E45E
:1035D00093E00E94410E20E030E048EC52E40E946B
:1035E000132E0E942C2D44E30E94C41A089560916A
:1035F0009703709198038091990390919A0343E304
:103600000E94C41A0895609193037091940380916D
:1036100095039091960342E30E94C41A0895609125
:1036200088037091890380918A0390918B0341E311
:103630000E94C41A08958230910579F08330910573
:103640001CF4019791F406C08330910549F004976A
:1036500061F409C00E940F1B08950E94031B089586
:103660000E94F71A08950E94E71A089587E493E0EC
:103670000E94A80E882319F00E94BD1908950E9487
:10368000011A0895AF92BF92CF92DF92EF92FF920C
:103690000F931F93DF93CF9300D000D00F92CDB73D
:1036A000DEB780919203882309F0B4C0A090840310
:1036B000B0908503C0908603D090870380918E03DD
:1036C00090918F03A0919003B0919103A601950171
:1036D000281B390B4A0B5B0BCA01B9010E945F2DF5
:1036E0007B018C016091710370917203809173036F
:1036F0009091740320E030E040E450E40E94132EE7
:103700009B01AC01C801B7010E940F2E181634F4BA
:1037100080918C038F5F80938C0302C010928C0386
:10372000A0928E03B0928F03C0929003D092910327
:1037300020918C0330E060916F03709170038CEDE9
:1037400095E00E94FC2F2617370708F487C081E018
:103750008093920310928C0388E593E00E945016A8
:10376000EE24FF24870124E1C22ED12C5E010894AF
:10377000A11CB11C88E593E00E945D168823D1F05E
:1037800088E593E0B5010E948D17C5010E940017DE
:103790008823B1F4C5010E948416E616F7060807CF
:1037A000190740F4C5010E948416AC01CB01DA016F
:1037B0007C018D010894C108D108C114D104D1F64F
:1037C00087E193E0B801A7010E94691360916F033C
:1037D0007091700388E893E10E94FC2F6F5F609303
:1037E0008D03109288031092890310928A0310921D
:1037F0008B031092930310929403109295031092EE
:1038000096031092970310929803109299031092C6
:103810009A0324C06091840370918503809186038C
:10382000909187030E945F2D7B018C016091710351
:1038300070917203809173039091740320E030E0E3
:1038400040E051E40E94132E9B01AC01C801B70176
:103850000E94C02C882314F41092920360918D036F
:10386000662351F1209184033091850340918603B2
:10387000509187038091930390919403A0919503B5
:10388000B091960382179307A407B50744F42093D9
:1038900093033093940340939503509396036130C0
:1038A00041F42093970330939803409399035093E6
:1038B0009A03615060938D030F900F900F900F90BB
:1038C0000F90CF91DF911F910F91FF90EF90DF90BC
:1038D000CF90BF90AF9008950F931F930E948416CE
:1038E000AB01BC010091710310917203209173032D
:1038F0003091740387E193E00E9406149B01AC01B0
:103900006093840370938503809386039093870369
:103910008091880390918903A0918A03B0918B03D1
:1039200082179307A407B50744F4209388033093C4
:10393000890340938A0350938B030E94421B1F917B
:103940000F9108950F931F938C010E946C1C88E5C2
:1039500093E0B8010E947418882339F089E794E055
:103960006AE771E00E94A82706C08BE190E00E9400
:10397000D9200E94E7181F910F910895EF92FF92AE
:103980000F931F93DF93CF93CDB7DEB7CF55D040C2
:103990000FB6F894DEBF0FBECDBF0E94E71800E05F
:1039A00010E030E1E32EF12CEC0EFD1E0EC089E795
:1039B00094E00E94E9262FEF8F3F920731F0F70144
:1039C000E00FF11F80830F5F1F4F8A9781F7CE01B1
:1039D0004096080F191FD8011C92EDB7FEB73C970F
:1039E0000FB6F894FEBF0FBEEDBF3196ADB7BEB7B0
:1039F00012969C938E9311978CE791E09383828328
:103A0000CE01079695838483CE01019697838683A2
:103A1000CE01039691878087CE0105969387828792
:103A20000E945103EDB7FEB73C960FB6F894FEBF67
:103A30000FBEEDBF049709F040C04F8158856985DE
:103A40007A854F3FFFEF5F07FFEF6F07FFEF7F07BD
:103A500029F488E593E00E9420162FC08E01055FAF
:103A60001F4FC8010E947E1689819A816AE070E02A
:103A70000E941030AB01662757FD6095762FC80174
:103A80000E9492166B817C81882777FD8095982F04
:103A90000E945F2D20E030E048EC52E40E94C42CEC
:103AA000AB01BC01C8010E94C5166D817E81C801B1
:103AB0000E94F116C8010E94A21CC15ADF4F0FB626
:103AC000F894DEBF0FBECDBFCF91DF911F910F9154
:103AD000FF90EF9008950F931F93DF93CF9300D043
:103AE00000D00F92CDB7DEB78091FD018823F1F1B0
:103AF00087E193E064E170E04AE050E00E94C7147F
:103B000040911B0350911C0360911D0370911E0393
:103B10008E010F5F1F4FC8010E947E164091170350
:103B2000509118036091190370911A03C8010E9403
:103B3000921687E493E00E94410EAB01BC01C801DC
:103B40000E94C51680917F03882339F088E693E0B0
:103B50000E94F320BC01C80103C0C80160E070E00E
:103B60000E94F116CE0101960E94A21C0F900F90A8
:103B70000F900F900F90CF91DF911F910F910895AB
:103B80002F923F924F925F926F927F928F929F926D
:103B9000AF92BF92CF92DF92EF92FF920F931F935B
:103BA000DF93CF93CDB7DEB761970FB6F894DEBF42
:103BB0000FBECDBF0E94E71889E090E00E94D92097
:103BC00086E593E00E94420D88E593E00E94A618E6
:103BD00087E193E00E942E1587E493E00E946E0E29
:103BE0000E940C1086E693E00E944B210E94B822AE
:103BF00089E794E065E971E00E94DD2881E0809327
:103C0000FD0100E010E00E946B1D0F5F1F4F083C9C
:103C10001105C9F71092FD0188E593E00E9438165E
:103C200088E593E08E010F5F1F4FB8010E94B61721
:103C3000C8010E9484166E877F87888B998BC80184
:103C40000E9484166A877B878C879D87C8010E94A3
:103C5000AA166E837F8388879987C8010E94AA1657
:103C60003B014C01C8010E94DD161B012C01C8015B
:103C70000E94DD165B016C01F02E012F74C088E5F7
:103C800093E06F2D702F0E94B6178F2D902F0E94FA
:103C900084162E853F8548895989621773078407E2
:103CA000950744F48F2D902F0E9484166E877F878E
:103CB000888B998B8F2D902F0E94AA162E813F8181
:103CC00048855985621773078407950744F48F2D3B
:103CD000902F0E94AA166E837F83888799878F2DE5
:103CE000902F0E94DD16A20191010E94C02C882312
:103CF00034F48F2D902F0E94DD161B012C018F2D87
:103D0000902F0E9484162A853B854C855D85261759
:103D100037074807590744F48F2D902F0E948416C7
:103D20006A877B878C879D878F2D902F0E94AA168C
:103D3000661677068806990634F48F2D902F0E9418
:103D4000AA163B014C018F2D902F0E94DD16A60173
:103D500095010E940F2E181634F48F2D902F0E947B
:103D6000DD165B016C0188E593E00E943E16882316
:103D700009F085CFEA84FB840C851D858E859F859F
:103D8000A889B989E81AF90A0A0B1B0B2E813F8111
:103D900048855985621A730A840A950AC601B501D5
:103DA000A20191010E945B2C5B016C0189E794E008
:103DB0000E94A22889E794E06BEA71E00E94A8279C
:103DC00089E794E0B801A7012AE030E00E94E828E2
:103DD00089E794E064EB71E00E94A82789E794E00A
:103DE000B401A3012AE030E00E94E82889E794E0CA
:103DF0006DEB71E00E94A82789E794E0B601A50168
:103E000022E030E00E949D2936E9E316F104010525
:103E100011059CF44FE064167104810491046CF464
:103E2000C601B5012DEC3CEC4CEC5DE30E94C02CCE
:103E300088231CF48FE090E002C08CE190E00E94A7
:103E4000D9208AE090E00E94D92061960FB6F894BC
:103E5000DEBF0FBECDBFCF91DF911F910F91FF90BD
:103E6000EF90DF90CF90BF90AF909F908F907F901A
:103E70006F905F904F903F902F900895893609F48E
:103E800047C08A36B8F4843609F445C0853648F40C
:103E9000823609F471C08336A8F5813609F077C0FF
:103EA00066C0863609F46BC08636D8F0873609F0CE
:103EB0006EC02BC0833709F447C0843748F480377D
:103EC00069F1823709F450C08F3609F060C05AC0DA
:103ED000853709F45AC0853720F1873709F057C074
:103EE00023C06AE070E080E090E00E947E2389E7D2
:103EF00094E00E94E9268536910509F048C00E94A9
:103F0000F21808950E94E71808950E94AE1A0895C5
:103F10000E94741A08950E94391A08950E940E1A78
:103F200008950E94C01D08956AE070E080E090E06E
:103F30000E947E2389E794E00E94E9268737910555
:103F400031F50E94F01908956AE070E080E090E099
:103F50000E947E2389E794E00E94E9268337910539
:103F6000B1F40E94CD1908950E94AA19089584E120
:103F700092E00E94D90F08950E94540F08950E9464
:103F8000011908950E940F1B08950E94BE1C0895F8
:103F900080916A03882399F486E693E00E943C218D
:103FA000813029F4809180039091810306C0823092
:103FB00031F480918203909183030E941B1B0E9425
:103FC000702320916B0330916C0340916D035091ED
:103FD0006E032617370748075907A0F480916F032F
:103FE00090917003A0E0B0E0820F931FA41FB51F53
:103FF00080936B0390936C03A0936D03B0936E0357
:104000000E946B1D0E94361B89E794E00E94BB262C
:104010001816190634F489E794E00E94E9260E94F4
:104020003E1F0895EF92FF920F931F9380E00E942E
:10403000122480EA92E00E944A0989E794E040E075
:1040400051EE60E070E00E94C22580E061E00E94D5
:104050005D2480E090E00E94D92089E794E066EC3E
:1040600071E00E94A82789E794E06EEC71E00E945D
:10407000DD288DE190E00E94D92080E290E00E944E
:10408000D9208FE693E00E9473228FE693E00E948E
:104090009B218BEE93E00E94FD2287E193E00E943A
:1040A000B01586E693E00E948B2188E693E00E949B
:1040B0008B2186E593E00E942B0E83E090E00E9426
:1040C0009E1181E090E00E94D92088E593E00E9453
:1040D000711882E090E00E94D92084E190E00E9473
:1040E000D92087E193E00E948C1587E193E00E943C
:1040F0006F13AB01BC0189E794E02AE030E00E9435
:104100004A2889E794E067EE71E00E94A82782E0E0
:1041100090E00E94D9208EEF91E00E94D90F0E947A
:10412000420F609175037091760320917B0330916B
:104130007C0340917D0350917E03E0907703F090E3
:1041400078030091790310917A0387E493E00E9449
:10415000110F80917503909176030197D9F485E151
:1041600090E00E94D92087E493E00E943D0EBC01BC
:1041700089E794E04AE050E00E948F2889E794E0C4
:104180006AE771E00E94DD2887E493E00E943D0E1B
:104190000E9436100E94702360936B0370936C032F
:1041A00080936D0390936E031F910F91FF90EF909A
:1041B00008950F931F93FC01EE0FFF1FEF5DFA4F61
:1041C000659174910BE913E0C8010E94260389E709
:1041D00094E0B8010E94A8271F910F910895FC0157
:1041E000718360830895FC01808161E020E63DE6F3
:1041F00040E050E00E940025CB010895EF92FF922D
:104200000F931F93CF93DF937C0100E010E00F5FCB
:104210001F4F0730110531F1F701808161E020E681
:104220003DE640E050E00E940025EB01672BD1F015
:10423000F701808161E020E63DE640E050E00E9429
:104240000025C617D70719F480E090E003C0CE011F
:10425000861B970B6C0F7D1F769567958C349105A7
:10426000B0F602C060E070E0CB01DF91CF911F910A
:104270000F91FF90EF9008950E94FE2025E088376F
:10428000920710F480E008958154964010F481E084
:10429000089582E008950F931F93CF93DF938C01CD
:1042A00089E794E069EE71E00E94DD28C8010E9470
:1042B000FE208C0189E794E0B8014AE050E00E94BA
:1042C000C42889E061E020E63DE640E050E00E943D
:1042D00000259B01AC01EB0189E794E0B9014AE0BC
:1042E00050E00E94C428055214400B33110550F4CD
:1042F00084E0C532D80730F0C056D44018F48FE0BF
:1043000090E002C08CE190E00E94D920DF91CF9133
:104310001F910F9108950F931F938C01FC018081D1
:1043200060E00E943724F801808161E00E945D24F2
:104330001F910F910895CF93DF93EC0181E290E0FC
:104340000E94D9206881798189E794E04AE050E0B1
:104350000E94C42882E290E00E94D9204A815B81B9
:104360006C817D8189E794E022E030E00E949D2904
:1043700083E290E00E94D9208E819F818130910557
:1043800049F08230910519F0892B39F00AC084E296
:1043900090E005C085E290E002C086E290E00E94D5
:1043A000D92087E290E00E94D920488559856A8506
:1043B0007B8589E794E022E030E00E949D2988E235
:1043C00090E00E94D9204C855D856E857F8589E7C8
:1043D00094E022E030E00E949D2989E290E00E9472
:1043E000D920688989E794E070E04AE050E00E94B3
:1043F000F3288AE290E00E94D92089899A89823044
:10440000910579F0833091051CF40197A1F406C061
:104410008330910549F0049771F409C08CE290E073
:1044200008C08DE290E005C08EE290E002C08FE20D
:1044300090E00E94D9208BE290E00E94D9206B8905
:104440007C8962307105B9F0633071053CF4611507
:10445000710559F061307105C1F40AC0633071050E
:1044600069F06430710589F40CC080E390E00BC002
:104470008CE290E008C08DE290E005C08EE290E012
:1044800002C08FE290E00E94D920DF91CF91089581
:10449000CF93DF93C0E0D0E08DE093E0BE0140E039
:1044A0000E947F0B219682E0C030D807A9F7DF91E8
:1044B000CF9108950F931F93CF93DF938C01C0E0AA
:1044C000D0E0F801EC0FFD1F8DE093E0BE014081CC
:1044D0000E947F0B2196C531D10599F7DF91CF91CD
:1044E0001F910F9108950F931F93CF93DF93EC01CA
:1044F00000E010E08DE093E0B8010E94780BFE012F
:10450000E00FF11F80830F5F1F4F0531110591F7F9
:1045100088819981892B39F584EF91E0998388838B
:1045200087EE9BEFA1E5B0E48A839B83AC83BD83D8
:1045300022E030E03F832E8386E696E6A6E9B0E4EB
:1045400088879987AA87BB8780E090E0A0E8BFE3CF
:104550008C879D87AE87BF87188A3A8B298B81E02D
:1045600090E09C8B8B8BDF91CF911F910F910895E1
:10457000DF93CF93CDB7DEB7AA970FB6F894DEBF1F
:104580000FBECDBF8FE190E00E94D9208AEF90E06E
:104590009A838983CE0101960E945A22CE014696C3
:1045A0000E9473220E94482282E090E00E94D9205B
:1045B0008E899F898A3F910519F48FE090E002C0AF
:1045C0008CE190E00E94D920AA960FB6F894DEBF45
:1045D0000FBECDBFCF91DF9108956EBD0DB407FE24
:1045E000FDCF8EB50895862F61E00E945D24089569
:1045F000862F60E00E945D240895DF93CF930F9291
:10460000CDB7DEB78BE061E00E9437248DE061E03A
:104610000E9437248CE060E00E9437248CE061E047
:104620000E945D2480E58CBD8DB589838EB589831C
:104630000F90CF91DF9108951F920F920FB60F92B6
:1046400011242F933F934F935F936F937F938F9397
:104650009F93AF93BF932091F0033091F10340916A
:10466000F2035091F3037091F403DA01C901029649
:10467000A11DB11D672F6A5F6D3730F06D57DA01EC
:10468000C9010396A11DB11D6093F4038093F0034B
:104690009093F103A093F203B093F3038091EC03A2
:1046A0009091ED03A091EE03B091EF030196A11D4F
:1046B000B11D8093EC039093ED03A093EE03B093B0
:1046C000EF03BF91AF919F918F917F916F915F9118
:1046D0004F913F912F910F900FBE0F901F90189503
:1046E0008FB7F8942091F0033091F1034091F203D9
:1046F0005091F3038FBFB901CA0108959B01AC012A
:104700007FB7F8948091EC039091ED03A091EE03B4
:10471000B091EF0366B5A89B05C06F3F19F00196F5
:10472000A11DB11D7FBFBA2FA92F982F8827860FF3
:10473000911DA11DB11D63E0880F991FAA1FBB1F0A
:104740006A95D1F7BC012DC0FFB7F8948091EC03B6
:104750009091ED03A091EE03B091EF03E6B5A89B15
:1047600005C0EF3F19F00196A11DB11DFFBFBA2F83
:10477000A92F982F88278E0F911DA11DB11DE3E051
:10478000880F991FAA1FBB1FEA95D1F7861B970BAD
:10479000885E9340C8F221503040404050406851FC
:1047A0007C4F211531054105510571F60895789426
:1047B00084B5826084BD84B5816084BD85B5826026
:1047C00085BD85B5816085BDEEE6F0E080818160C4
:1047D0008083E1E8F0E010828081826080838081C4
:1047E00081608083E0E8F0E0808181608083E1EB9C
:1047F000F0E0808184608083E0EBF0E08081816084
:104800008083EAE7F0E08081846080838081826039
:104810008083808181608083808180688083109222
:10482000C1000895809330020895982F8E3008F0CB
:104830009E509770809130028295880F880F807CFF
:10484000892B80937C0080917A00806480937A0029
:1048500080917A0086FDFCCF20917800409179000C
:10486000942F80E030E0282B392BC9010895482F80
:1048700050E0CA0182549A4FFC01249146555A4F88
:10488000FA0184918823C1F0E82FF0E0EE0FFF1FBA
:10489000E457FA4FA591B491662341F49FB7F89479
:1048A0008C91209582238C939FBF08959FB7F89495
:1048B0008C91822B8C939FBF0895482F50E0CA01A2
:1048C0008E529A4FFC012491CA0182549A4FFC01E6
:1048D000349146555A4FFA019491992309F440C0F6
:1048E000222331F1233021F4809180008F7705C09D
:1048F000243031F4809180008F7D8093800018C037
:10490000213019F484B58F7704C0223021F484B5A6
:104910008F7D84BD0DC0263021F48091B0008F774B
:1049200005C0273029F48091B0008F7D8093B000BE
:10493000E92FF0E0EE0FFF1FEA56FA4FA591B49170
:10494000662341F49FB7F8948C91309583238C9320
:104950009FBF08959FB7F8948C91832B8C939FBF32
:104960000895682F70E0CB018E529A4FFC0124917C
:10497000CB0182549A4FFC01449166557A4FFB015A
:104980009491992319F420E030E038C0222331F1CA
:10499000233021F4809180008F7705C0243031F4DA
:1049A000809180008F7D8093800018C0213019F4A1
:1049B00084B58F7704C0223021F484B58F7D84BD07
:1049C0000DC0263021F48091B0008F7705C02730CC
:1049D00029F48091B0008F7D8093B000892F90E002
:1049E000880F991F80569A4FFC01A591B4918C9124
:1049F00020E030E0842311F021E030E0C901089587
:104A0000DF92EF92FF920F931F93A82FB0E0CD019A
:104A100082549A4FFC01D490A655BA4FFD0184915F
:104A2000662311F490E001C09D2D79018A0143E0D5
:104A3000EE0CFF1C001F111F4A95D1F734E01695AC
:104A40000795F794E7943A95D1F7682F70E0660FD1
:104A5000771F60567A4F20E030E040E050E0FB01E5
:104A6000A591B4910AC02E153F054007510709F4DE
:104A700040C02F5F3F4F4F4F5F4F8C918D21891763
:104A800091F30AC02E153F054007510791F12F5FA2
:104A90003F4F4F4F5F4F03C0FB01A591B4918C91E5
:104AA0008D21891779F720E030E040E050E0FB01EC
:104AB000A591B49104C02F5F3F4F4F4F5F4F8C9132
:104AC0008D218917C1F3CA01B9012AE030E040E025
:104AD00050E00E94DD2F9B01AC01205F3F4F4F4F04
:104AE0005F4F83E056954795379527958A95D1F77F
:104AF00004C020E030E040E050E0B901CA011F915D
:104B00000F91FF90EF90DF9008951F920F920FB6D4
:104B10000F9211242F933F934F935F936F937F9343
:104B20008F939F93AF93BF93EF93FF934091C600F2
:104B3000E0917504F0917604CF01019660E870E091
:104B40000E9410309C01809177049091780428177E
:104B5000390739F0EB50FC4F4083309376042093B3
:104B60007504FF91EF91BF91AF919F918F917F91CC
:104B70006F915F914F913F912F910F900FBE0F90CA
:104B80001F9018955F926F927F928F929F92AF9233
:104B9000BF92CF92DF92EF92FF920F931F93CF932A
:104BA000DF93EC013A014B01413281EA580787E07B
:104BB000680780E078070CF07FC060E472E48FE063
:104BC00090E0A40193010E944530215030404040C4
:104BD0005040CA01B90122E030E040E050E00E94BC
:104BE000453059016A01A6019501209530954095FF
:104BF000509594E0220F331F441F551F9A95D1F70B
:104C000060E072E18AE790E00E944530CA01B90194
:104C10002FEF30E040E050E00E94DD2FA40193012F
:104C20000E944530C90181509F4F181619061CF487
:104C3000522E5A9403C055245394521A60E874E8D3
:104C40008EE190E0A40193010E9445302150304054
:104C500040405040CA01B90122E030E040E050E05D
:104C60000E944530209530954095509583E0220F65
:104C7000331F441F551F8A95D1F760E072E18AE720
:104C800090E00E944530CA01B9012FEF30E040E0CA
:104C900050E00E94DD2FA40193010E944530C9011C
:104CA00081509F4F181619061CF4822F815002C0A4
:104CB00081E0821B851500F5E885F98581E090E0AB
:104CC0000A8802C0880F991F0A94E2F7808360E87F
:104CD00074E88EE190E0A40193010E9445302150D8
:104CE000304040405040CA01B90122E030E040E08D
:104CF00050E00E94453004C0E885F9851082950196
:104D0000EC81FD813083EE81FF812083EA85FB8584
:104D1000208141E050E0CA010E8402C0880F991F33
:104D20000A94E2F7282B2083EA85FB852081CA01BB
:104D30000F8402C0880F991F0A94E2F7282B208362
:104D4000EA85FB858081088802C0440F551F0A94BC
:104D5000E2F7842B8083DF91CF911F910F91FF9019
:104D6000EF90DF90CF90BF90AF909F908F907F900B
:104D70006F905F900895DC011296ED91FC9113976E
:104D8000E058FF4F8191919180589F4F2081318150
:104D9000821B930B60E870E00E9410300895DC01E4
:104DA0001296ED91FC911397EE57FF4F20813181C0
:104DB00092918291E058F0408217930719F42FEFF7
:104DC0003FEF05C0E20FF31F8081282F30E0C901BB
:104DD0000895CF93DF93DC011296ED91FC91139728
:104DE000EF01CE57DF4F48815981E058FF4F808156
:104DF0009181E058F0408417950719F42FEF3FEFA9
:104E00000CC0E40FF51F2081CA01019660E870E034
:104E10000E9410309983888330E0C901DF91CF91DF
:104E20000895DC011296ED91FC911397EE57FF4F18
:104E300080819181929382930895FC01A085B18530
:104E400021898C9190E0022E02C0959587950A9455
:104E5000E2F780FFF6CF0484F585E02D60830895A6
:104E60008CE492E090937A048093790485EF93E048
:104E700090937C0480937B0485EC90E090937E0477
:104E800080937D0484EC90E09093800480937F0471
:104E900080EC90E0909382048093810481EC90E018
:104EA000909384048093830486EC90E0909386042E
:104EB0008093850484E08093870483E08093880452
:104EC00087E08093890485E080938A0481E0809361
:104ED0008B0408950E94D7230E9412200E94C81FAD
:104EE000FDCF0F931F93CF93DF938C01EB0109C08C
:104EF0002196D801ED91FC910190F081E02DC8013F
:104F0000099568816623A1F7DF91CF911F910F91D9
:104F10000895EF92FF920F931F93CF93DF938C012D
:104F20007B01EA010CC0D7016D917D01D801ED91A3
:104F3000FC910190F081E02DC801099521972097FF
:104F400091F7DF91CF911F910F91FF90EF9008950E
:104F5000DC01ED91FC910280F381E02D099508952B
:104F60002F923F924F925F926F927F928F929F9279
:104F7000AF92BF92CF92DF92EF92FF920F931F9367
:104F8000DF93CF93CDB7DEB7A0970FB6F894DEBF0F
:104F90000FBECDBF1C016A017B01411551056105A2
:104FA000710549F440E350E060E070E020E030E05B
:104FB0000E94592856C0882499245401422E552411
:104FC0006624772401E010E00C0F1D1F080D191D49
:104FD000C701B601A30192010E942330F80160834A
:104FE0000894811C911CA11CB11CC701B601A3012E
:104FF00092010E942330C901DA016C017D01C114C4
:10500000D104E104F104F1F681E0E82EF12CEC0E7C
:10501000FD1EE80CF91C3E010894611C711CD501B1
:10502000C4010197A109B1096C01C818D90816C0BB
:10503000F601EE0DFF1D40814A3010F4405D01C0C5
:10504000495C552747FD5095652F752FC10120E01C
:1050500030E00E9459280894E108F1086E147F049A
:1050600039F7A0960FB6F894DEBF0FBECDBFCF9133
:10507000DF911F910F91FF90EF90DF90CF90BF9045
:10508000AF909F908F907F906F905F904F903F90E8
:105090002F900895DC012115310541F4ED91FC912B
:1050A0000190F081E02D642F099508950E94B027AA
:1050B0000895EF92FF920F931F93CF93DF93EC012C
:1050C0007A018B012115310541F4E881F9810190C4
:1050D000F081E02D642F09951BC02A303105B1F411
:1050E00077FF10C04DE250E060E070E020E030E07B
:1050F0000E94592810950095F094E094E11CF11C51
:10510000011D111DCE01B801A7012AE00E94B027A0
:10511000DF91CF911F910F91FF90EF900895EF9243
:10512000FF920F931F937B019A010027F7FC0095D4
:10513000102FB801A7010E9459281F910F91FF90CD
:10514000EF9008950F931F938C014DE050E060E0C5
:1051500070E020E030E00E945928C8014AE050E0A9
:1051600060E070E020E030E00E9459281F910F912C
:1051700008950F931F938C010E944A28C8010E9432
:10518000A2281F910F910895CF92DF92EF92FF9284
:105190000F931F938C019A016B01EE24FF24B7013A
:1051A000A6010E944A28C8010E94A2281F910F91BF
:1051B000FF90EF90DF90CF9008950F931F938C0195
:1051C0000E94A827C8010E94A2281F910F9108954C
:1051D0000F931F938C010E945928C8010E94A22896
:1051E0001F910F910895CF92DF92EF92FF920F934C
:1051F0001F938C016B019A01EE24D7FCE094FE2CE6
:10520000B701A6010E945928C8010E94A2281F9137
:105210000F91FF90EF90DF90CF9008959F92AF9203
:10522000BF92CF92DF92EF92FF920F931F93CF9393
:10523000DF93EC017A018B01922ECB01BA0120E0C1
:1052400030E040E050E00E94C02C88236CF4CE0196
:105250004DE250E060E070E020E030E00E9459282C
:1052600017FB109517F9109520E030E040E05FE360
:10527000AA240BC0CA01B90120E030E040E251E4A9
:105280000E94C42C9B01AC01A394A91498F3C801FB
:10529000B7010E945C2C5B016C010E94312D7B01E7
:1052A0008C01CE01B801A7012AE030E00E944A2813
:1052B000992029F0CE016BEF71E00E94A827C80168
:1052C000B7010E945D2D9B01AC01C601B5010E9492
:1052D0005B2C22C020E030E040E251E40E94132E1B
:1052E0007B018C010E942C2D5B016C01CC24B7FC4E
:1052F000C094DC2CCE01B601A5012AE030E00E946A
:105300005928C601B5010E945F2D9B01AC01C8015F
:10531000B7010E945B2C9A949920E1F6DF91CF911E
:105320001F910F91FF90EF90DF90CF90BF90AF90C3
:105330009F9008950E940E2908950F931F938C014A
:105340000E940E29C8010E94A2281F910F91089562
:10535000813041F0813018F08230D1F409C01092D0
:105360006E00089580916F008D7F80936F00089587
:10537000809170008D7F8093700081E08093B000F9
:105380008091B100887F84608093B1001092B30057
:1053900008951F920F920FB60F9211242F933F93EF
:1053A0004F935F936F937F938F939F93AF93BF932D
:1053B000EF93FF9380919A0490919B04A0919C0499
:1053C000B0919D040097A105B10551F1E0919E04B3
:1053D000F0919F0480819091A0048927808380911F
:1053E0009A0490919B04A0919C04B0919D0418167E
:1053F00019061A061B060CF580919A0490919B04DD
:10540000A0919C04B0919D040197A109B1098093DA
:105410009A0490939B04A0939C04B0939D040DC0A8
:1054200082E00E94A829E0919E04F0919F0490815F
:105430008091A004809589238083FF91EF91BF9193
:10544000AF919F918F917F916F915F914F913F911C
:105450002F910F900FBE0F901F9018951F93182F2C
:1054600080913102811711F09FEF06C0EBE8F5E063
:1054700094918FEF80933102892F0E94A829812F68
:1054800060E00E945D241F9108952F923F925F92E9
:105490006F927F928F929F92AF92BF92CF92DF9244
:1054A000EF92FF920F931F93DF93CF9300D000D022
:1054B000CDB7DEB7A82F1B0129833A834B835C83CA
:1054C000809131028A1721F4EBE8F5E0549082C014
:1054D0008F3F09F0DAC1A0933102EBE8F5E0549078
:1054E0002FEF521609F4D1C181E0581639F192E03C
:1054F000591609F449C0552009F06CC014BC15BCFC
:1055000084B5826084BD85B5816085BD2A2F30E079
:10551000F901E655FA4FE491F0E0EE0FFF1FEA566D
:10552000FA4F859194919093910480939004225422
:105530003A4FF9018491809392044EC010928000FA
:105540001092810080918100886080938100809119
:1055500081008160809381002A2F30E0F901E655B7
:10556000FA4FE491F0E0EE0FFF1FEA56FA4F8591F3
:105570009491909398048093970422543A4FF901A0
:1055800084918093990428C01092B0001092B100C9
:105590008091B00082608093B0008091B100816002
:1055A0008093B1002A2F30E0F901E655FA4FE491DB
:1055B000F0E0EE0FFF1FEA56FA4F85919491909319
:1055C0009F0480939E0422543A4FF9018491809362
:1055D000A00402C057FC59C18A2F61E00E94372401
:1055E000552021F0F2E05F1609F0BEC03101882499
:1055F000992460E079E08DE390E0A40193010E949A
:10560000453059016A01860175010894E108F108E5
:10561000010911092FEFE216F1040105110509F046
:1056200008F499C060E271EA87E090E0A401930178
:105630000E94453079018A010894E108F1080109C6
:10564000110982E05816C1F49FEFE916F104010533
:10565000110509F008F484C068E478EE81E090E078
:10566000A40193010E94453079018A010894E10860
:10567000F1080109110983E0AFEFEA16F104010511
:10568000110509F008F468C064E274EF80E090E06E
:10569000A40193010E94453079018A010894E10830
:1056A000F10801091109552011F483E01DC0B2E091
:1056B0005B1611F084E018C0EFEFEE16F10401055F
:1056C000110509F008F4DFC062E17AE780E090E0BC
:1056D000A40193010E94453079018A010894E108F0
:1056E000F1080109110985E0FFEFEF16F10401054A
:1056F000110591F188F169E07DE380E090E0A4017B
:1057000093010E94453079018A010894E108F1086B
:1057100001091109552011F086E001C084E02FEF46
:10572000E216F10401051105B9F0B0F0C601B501AA
:1057300020E034E040E050E00E94453079018A01E9
:105740000894E108F10801091109552011F087E0DA
:1057500008C085E003C081E0552019F485BD3AC03A
:1057600082E08093B10036C05101CC24DD2460E09A
:1057700079E08DE390E0A60195010E944530790122
:105780008A010894E108F1080109110980E0E8168E
:1057900080E0F80681E0080780E0180710F491E047
:1057A00010C064E274EF80E090E0A60195010E94D1
:1057B000453079018A010894E108F10801091109CD
:1057C00093E0A1E05A1631F480918100887F982BF4
:1057D0009093810089819A81AB81BC810097A1055A
:1057E000B10529F48FEF9FEFAFEFBFEF13C0220C8D
:1057F000331CB10180E090E029813A814B815C81CA
:105800000E94DD2F28EE33E040E050E00E9423307C
:10581000C901DA01E1E05E16A1F0F2E05F1619F1CC
:10582000552099F5E7BC80938C0490938D04A09348
:105830008E04B0938F0480916E00826080936E001E
:1058400024C0F0928900E0928800809393049093A2
:105850009404A0939504B093960480916F008260A5
:1058600080936F0012C0E092B30080939A049093EB
:105870009B04A0939C04B0939D048091700082606F
:105880008093700002C084E06CCF0F900F900F9057
:105890000F90CF91DF911F910F91FF90EF90DF90CC
:1058A000CF90BF90AF909F908F907F906F905F90C0
:1058B0003F902F9008955058BB27AA270ED075C14E
:1058C00066D130F06BD120F031F49F3F11F41EF41B
:1058D0005BC10EF4E095E7FB51C1E92F77D180F36E
:1058E000BA17620773078407950718F071F49EF5DD
:1058F0008FC10EF4E0950B2EBA2FA02D0B01B9012C
:1059000090010C01CA01A0011124FF27591B99F035
:10591000593F50F4503E68F11A16F040A22F232F41
:10592000342F4427585FF3CF469537952795A79591
:10593000F0405395C9F77EF41F16BA0B620B730B38
:10594000840BBAF09150A1F0FF0FBB1F661F771FA9
:10595000881FC2F70EC0BA0F621F731F841F48F45E
:10596000879577956795B795F7959E3F08F0B3CFE4
:105970009395880F08F09927EE0F979587950895CE
:10598000D9D008F481E008950CD00FC107D140F0C0
:10599000FED030F021F45F3F19F0F0C0511139C151
:1059A000F3C014D198F39923C9F35523B1F3951B90
:1059B000550BBB27AA2762177307840738F09F5F30
:1059C0005F4F220F331F441FAA1FA9F333D00E2E9F
:1059D0003AF0E0E830D091505040E695001CCAF70C
:1059E00029D0FE2F27D0660F771F881FBB1F2617D1
:1059F00037074807AB07B0E809F0BB0B802DBF01A4
:105A0000FF2793585F4F2AF09E3F510568F0B6C0BC
:105A100000C15F3FECF3983EDCF386957795679580
:105A2000B795F7959F5FC9F7880F911D9695879554
:105A300097F90895E1E0660F771F881FBB1F621773
:105A400073078407BA0720F0621B730B840BBA0B31
:105A5000EE1F88F7E095089504D06894B111D9C07D
:105A60000895BCD088F09F5790F0B92F9927B7516F
:105A7000A0F0D1F0660F771F881F991F1AF0BA9512
:105A8000C9F712C0B13081F0C3D0B1E00895C0C0F1
:105A9000672F782F8827B85F39F0B93FCCF3869508
:105AA00077956795B395D9F73EF490958095709565
:105AB00061957F4F8F4F9F4F0895E89409C097FBE2
:105AC0003EF490958095709561957F4F8F4F9F4FD5
:105AD0009923A9F0F92F96E9BB279395F695879519
