:100000000C9425020C944D020C944D020C944D025C
:100010000C944D020C944D020C944D020C94C02390
:100020000C944D020C944D020C944D020C944D0214
:100030000C944D020C94700B0C944D020C944D02D8
:100040000C94131D0C944D020C947C1F0C944D02C7
:100050000C944D020C944D020C944D020C944D02E4
:100060000C9410060C944D0207634236B79BD8A738
:100070001A39685618AEBAAB558C1D3CB7CC5763CD
:10008000BD6DEDFD753EF6177231BF000000803F7B
:1000900008000000BE922449123EABAAAA2ABECD97
:1000A000CCCC4C3E00000080BEABAAAAAA3E000009
:1000B0000000BF000000803F000000000008417801
:1000C000D3BB4387D1133D190E3CC3BD4282AD2B38
:1000D0003E68EC8276BED98FE1A93E4C80EFFFBE30
:1000E00001C4FF7F3F00000000006F70656E616C0F
:1000F00074696D65746572206669726D7761726589
:100100002076657273696F6E3A2056322E0A00535C
:10011000657474696E6720757020646174617374AE
:100120006F7265202E2E2E0020646F6E652E0A00E1
:1001300045726173696E67202E2E2E20004C6F670A
:1001400067696E672064697361626C65642E0A007A
:100150004C6F6767696E6720656E61626C65642EBF
:100160000A004E756D626572206F662066696C6567
:10017000733A20004E756D626572206F6620656E61
:1001800074726965733A20004D617820656E7472EF
:100190006965733A200052756E6E696E67206469F6
:1001A00061676E6F73746963207465737473202E56
:1001B0002E2E200A00446961676E6F737469632094
:1001C000746573747320646F6E652E0A00466C61EB
:1001D0007368206D616E75666163747572657220F7
:1001E000696E666F3A200054657374696E672066A5
:1001F0006C6173682E0A0057726974696E67202EED
:100200002E2E200052656164696E67202E2E2E20EE
:1002100000546573743A205041535345442E0A00EC
:1002200054657374696E67206261747465727920B5
:100230006D6F6E69746F722E0A004261747465721C
:10024000793A200054657374696E67206265657041
:100250006572202E2E2E200053697A65206F66204D
:100260006C6F6720656E747279203A200053657454
:1002700074696E6720616C74696D65746572206263
:100280006173652070726573737572653A20004CF6
:1002900049504F202D206E756D626572206F66206B
:1002A00063656C6C733A2000536F756E64696E679A
:1002B000206C6F7720766F6C7461676520616C616C
:1002C000726D2E0A0053746F7070696E67206C6FC8
:1002D0007720766F6C7461676520616C61726D2E3A
:1002E0000A00536F756E64696E67206C6F737420BB
:1002F0006D6F64656C20616C61726D2E0A005374C1
:100300006F7070696E67206C6F7374206D6F6465B9
:100310006C20616C61726D2E0A0046616B696E67BC
:1003200020666C69676874202E2E2E2000466C6152
:100330007368206D656D6F72792066756C6C2E0A1E
:1003400000546573743A204641494C45442E0A00D6
:100350004461746120666F726D61743A2056310A8F
:100360000045726173696E672073657474696E67A6
:1003700073202E2E2E0054657374696E672073658A
:100380007474696E67732073746F7265202E2E2EDD
:100390000053657474696E677320666F726D617463
:1003A0003A2056320A00EA000F01280130013D01CF
:1003B00050016201740188019601B501CD01E70188
:1003C000F7010402110220023A02440258026D02AF
:1003D0008F02A802C502E202FE021A032D034103A6
:1003E00050036103760391030200000000240027FC
:1003F000002A0000000000250028002B000000005B
:100400000023002600290004040404040404040258
:1004100002020202020303030303030102040810A1
:10042000204080010204081020010204081020006E
:1004300000000700020100000304060000000000A5
:100440000000000018057F14272111241FBECFEFE4
:10045000D8E0DEBFCDBF13E0A0E0B1E0ECE2F5E50F
:1004600002C005900D92A030B107D9F715E0A0E0C9
:10047000B3E001C01D92AD32B107E1F714E0CAE468
:10048000D4E004C02297FE010E94592AC434D10747
:10049000C9F70E9461210C94942A0C940000FB017E
:1004A000DC0105900D920020E1F70895AEE0B0E088
:1004B000ECE5F2E00C946B2A0D891E8986E08C83B2
:1004C0001A8309838FEF9FE79E838D839E01275EAA
:1004D0003F4FCE0101966F89788DA9010E947A0263
:1004E0002F813885020F131FF80110822E96E4E049
:1004F0000C94872AABE0B0E0E0E8F2E00C945D2ACF
:100500003C012B015A01FC0117821682838181FD77
:1005100003C06FEF7FEFC6C19AE0892E1E010894D9
:10052000211C311CF3012381F20123FD859123FF5E
:1005300081912F01882309F4B2C1853239F423FD5A
:10054000859123FF81912F01853229F490E0B30139
:100550000E946D04E7CF982FFF24EE249924FFE139
:10056000FF15D0F09B3269F09C3228F4903259F09C
:10057000933291F40EC09D3249F0903369F441E01A
:1005800024C052E0F52A84E0F82A28C098E0F92A2D
:1005900025C0E0E1FE2A22C0F7FC29C0892F805344
:1005A0008A3070F4F6FE05C0989C902C1124980EA9
:1005B00015C0E89CE02C1124E80EF0E2FF2A0EC0E2
:1005C0009E3229F4F6FC6BC140E4F42A07C09C3645
:1005D00019F450E8F52A02C0983649F4F20123FDD7
:1005E000959123FF91912F01992309F0B8CF892F7D
:1005F0008554833018F08052833038F444E050E062
:10060000A40EB51E5FE359830FC0933631F09337C4
:1006100079F0933509F056C020C0F50180818983B7
:1006200042E050E0A40EB51E610101E010E012C0EE
:10063000F501C080D180F6FC03C06FEF7FEF02C0F0
:10064000692D70E042E050E0A40EB51EC6010E9484
:1006500062048C015FE7F52214C0F501C080D180EF
:10066000F6FC03C06FEF7FEF02C0692D70E042E03F
:1006700050E0A40EB51EC6010E9457048C0150E83C
:10068000F52AF3FE07C01AC080E290E0B3010E9491
:100690006D04EA948E2D90E008171907A8F30EC098
:1006A000F601F7FC8591F7FE81916F0190E0B301AF
:1006B0000E946D04E110EA940150104001151105EB
:1006C00079F7EAC0943611F0993669F5F7FE08C05B
:1006D000F501208131814281538184E090E00AC09C
:1006E000F501808191819C01442737FD4095542F6D
:1006F00082E090E0A80EB91E9FE6F92257FF09C0DC
:1007000050954095309521953F4F4F4F5F4FE0E812
:10071000FE2ACA01B901A1012AE030E00E94990431
:10072000D82ED21840C0953729F41F2D1F7E2AE0FD
:1007300030E01DC01F2D197F9F3661F0903720F4E7
:10074000983509F0ACC00FC0903739F0983709F0F0
:10075000A6C004C028E030E00AC0106114FD146097
:1007600020E130E004C014FD166020E132E017FF04
:1007700008C0F501608171818281938144E050E07D
:1007800008C0F50180819181BC0180E090E042E0E9
:1007900050E0A40EB51EA1010E949904D82ED218D3
:1007A0008FE7F82EF122F6FE0BC05EEFF522D9148A
:1007B00038F4F4FE07C0F2FC05C08FEEF82202C048
:1007C0001D2D01C0192DF4FE0DC0FE01ED0DF11D12
:1007D0008081803319F499EEF92208C01F5FF2FE80
:1007E00005C003C08F2D867809F01F5F0F2DF3FC25
:1007F00014C0F0FE0FC01E1510F09D2C0BC09D2CD8
:100800009E0C911A1E2D06C080E290E0B3010E945A
:100810006D041F5F1E15C0F304C01E1510F4E11A0D
:1008200001C0EE2404FF0FC080E390E0B3010E94FA
:100830006D0402FF1DC001FD03C088E790E00EC0FB
:1008400088E590E00BC0802F867891F001FF02C010
:100850008BE201C080E2F7FC8DE290E0B3010E94E0
:100860006D0406C080E390E0B3010E946D049A9489
:10087000D914C0F3DA94F101ED0DF11D808190E0FF
:10088000B3010E946D04DD20A9F706C080E290E06C
:10089000B3010E946D04EA94EE20C1F743CEF30148
:1008A00066817781CB012B96E2E10C94792AFC01D9
:1008B0000590615070400110D8F7809590958E0F8B
:1008C0009F1F0895FC016150704001900110D8F7FE
:1008D000809590958E0F9F1F08950F931F93CF9330
:1008E000DF938C01EB018B8181FF1BC082FF0DC068
:1008F0002E813F818C819D812817390764F4E8811E
:10090000F9810193F983E88306C0E885F985802F92
:100910000995892B31F48E819F8101969F838E8367
:1009200002C00FEF1FEFC801DF91CF911F910F9110
:100930000895FA01AA27283051F1203181F1E89475
:100940006F936E7F6E5F7F4F8F4F9F4FAF4FB1E0C2
:100950003ED0B4E03CD0670F781F891F9A1FA11DBD
:10096000680F791F8A1F911DA11D6A0F711D811DBE
:10097000911DA11D20D009F468943F912AE0269F83
:1009800011243019305D3193DEF6CF010895462FE2
:100990004770405D4193B3E00FD0C9F7F6CF462FC3
:1009A0004F70405D4A3318F0495D31FD405241932C
:1009B00002D0A9F7EACFB4E0A695979587957795E9
:1009C0006795BA95C9F700976105710508959B0170
:1009D000AC010A2E06945795479537952795BA95F9
:1009E000C9F7620F731F841F951FA01D089581E032
:1009F00080934503609322031092430310924403B3
:100A000008958091210390912003891B089590916E
:100A1000200380912103981710F080E00895E92FBA
:100A2000F0E0E050FD4F80819F5F90932003089598
:100A30000895DF93CF930F92CDB7DEB7698380918E
:100A40004503882389F080914403803290F480919B
:100A50004303E82FF0E0ED5DFC4F60838F5F8093F0
:100A600043038093440305C0CE01019661E00E94D8
:100A7000F5050F90CF91DF9108958091220363E2F5
:100A800073E04091440321E00E94B20510924303B9
:100A900010924403109245030895413208F040E259
:100AA000862F60E073E00E947B0510922003809304
:100AB000210308950E944D0508951092200310927D
:100AC000210310924303109244030E946805089585
:100AD00010924703449A459AE9EBF0E080818E7FBB
:100AE000808380818D7F808388E48093B80085E453
:100AF0008093BC000895982F413210F040E030C040
:100B0000809147038823E1F781E0809347038FEFCB
:100B10008093B20310926D03415040936E034F5F78
:100B2000990F91609093480385EE8093BC0080916B
:100B300047038130E1F380916D03841710F44091F5
:100B40006D0320E030E00AC0FB01E20FF31FD90182
:100B5000A35BBC4F8C9180832F5F3F4F2417A0F382
:100B6000842F08951F93582F122F413210F081E0E7
:100B70003AC0809147038823E1F782E080934703DE
:100B80008FEF8093B20310926D0340936E03ADE438
:100B9000B3E0FB0102C081918D938E2F861B8417D9
:100BA000D0F3852F90E0880F991F8093480385EE3E
:100BB0008093BC00112321F0809147038230E1F340
:100BC0008091B2038F3F11F480E00DC08091B20399
:100BD000803211F482E007C08091B203803311F0BB
:100BE00084E001C083E01F910895482F613210F026
:100BF00081E0089580914703843011F082E00895E8
:100C000060939003AFE6B3E0842F9C01F90102C02A
:100C100081918D938E2F841B8617D0F380E00895E9
:100C20001F920F920FB60F9211242F933F934F9361
:100C30005F936F937F938F939F93AF93BF93EF9344
:100C4000FF938091B90090E0887F90708036910585
:100C500009F4DCC081369105CCF58832910509F4A0
:100C60007BC089329105B4F48031910509F46FC0DD
:100C7000813191053CF4009709F431C1089709F0DE
:100C800039C165C08831910509F466C0809709F0C3
:100C900031C17DC08034910509F49FC08134910534
:100CA00044F48033910509F47DC0C89709F022C14E
:100CB00084C08035910509F484C08835910509F414
:100CC00091C08834910509F015C198C08839910503
:100CD00009F4FDC089399105ECF48837910509F4D0
:100CE00095C0893791054CF48836910509F48EC07A
:100CF0008037910509F0FEC089C08838910509F454
:100D0000E6C08039910509F487C08038910509F063
:100D1000F1C082C0803B910509F4B0C0813B9105D0
:100D20004CF4803A910509F489C0883A910509F09C
:100D3000E1C0A4C0803C910509F4CDC0883C910578
:100D400009F4C9C0883B910509F0D4C0ACC08091BA
:100D500048038093BB00B9C090916D0380916E03EE
:100D6000981768F490916D03E92FF0E0E35BFC4F76
:100D700080818093BB009F5F90936D03A6C085ED3B
:100D80008093BC008091BC0084FDFCCFB1C080E2A8
:100D90008093B20385ED8093BC008091BC0084FDFC
:100DA000FCCFA6C080E38093B20385ED8093BC00A6
:100DB0008091BC0084FDFCCF9BC088E38093B2038C
:100DC0008AC080916D039091BB00E82FF0E0E35B57
:100DD000FC4F90838F5F80936D0390916D038091A2
:100DE0006E0371C080916D039091BB00E82FF0E01D
:100DF000E35BFC4F90838F5F80936D0385ED809361
:100E0000BC008091BC0084FDFCCF72C083E0809365
:100E100047031092B10359C08091B103803208F0AA
:100E200056C08091B1039091BB00E82FF0E0EF56DF
:100E3000FC4F90838F5F8093B10347C08091B103D3
:100E4000803230F4E091B103F0E0EF56FC4F1082B5
:100E500085ED8093BC008091BC0084FDFCCF109296
:100E600047036091B103E0914B03F0914C0381E99A
:100E700093E070E009951092B1032DC084E0809357
:100E8000470310928F0310929003E0914903F09171
:100E90004A03099580919003882329F481E0809387
:100EA000900310926F0390918F03E92FF0E0E159C6
:100EB000FC4F80818093BB009F5F90938F03909144
:100EC0008F0380919003981710F485EC01C085E89A
:100ED0008093BC000FC085EC8093BC0009C01092C9
:100EE000B20385ED8093BC008091BC0084FDFCCFF3
:100EF00010924703FF91EF91BF91AF919F918F9116
:100F00007F916F915F914F913F912F910F900FBE05
:100F10000F901F901895F999FECF72BD61BDF89A98
:100F200080B50895F999FECF1FBA72BD61BD40BD6D
:100F30000FB6F894FA9AF99A0FBE0895FC017183DE
:100F400060830895BF92CF92DF92EF92FF920F934A
:100F50001F93B42EE52E87E7C82E84E0D82EC60155
:100F60000E94E41CC6016E2D0E94E41CC6016B2D7C
:100F70000E94E41C1F910F91FF90EF90DF90CF90A3
:100F8000BF900895AF92BF92CF92DF92EF92FF92FF
:100F90001F93CF93DF937C01162F5A016901FC0147
:100FA0006081718187E794E00E94EF1C87E794E0FD
:100FB000612F0E94E41CC0E0D0E009C0F501EC0FF5
:100FC000FD1F87E794E060810E94E41C2196CC1508
:100FD000DD05A4F3F7016081718187E794E00E9449
:100FE000EA1CDF91CF911F91FF90EF90DF90CF909F
:100FF000BF90AF900895AF92BF92CF92DF92EF92E1
:10100000FF921F93CF93DF937C01162F5A01690142
:10101000FC016081718187E794E00E94EF1C87E703
:1010200094E0612F0E94E41CC0E0D0E00AC087E792
:1010300094E060E00E94E41CF501EC0FFD1F80834A
:101040002196CC15DD059CF3F7016081718187E75E
:1010500094E00E94EA1CDF91CF911F91FF90EF90E6
:10106000DF90CF90BF90AF90089540E050E020E037
:1010700030E00E94FB07089564E00E94350808955F
:101080000F931F93DF93CF930F92CDB7DEB78C01F1
:10109000198261E0AE014F5F5F4F21E030E00E94B6
:1010A000C207C80166E00E9435080F90CF91DF911A
:1010B0001F910F910895DF93CF930F92CDB7DEB7B5
:1010C00065E0AE014F5F5F4F21E030E00E94FB071B
:1010D00089810F90CF91DF910895CF93DF93EC0139
:1010E000CE010E945B0880FDFBCFDF91CF91089578
:1010F0000F931F938C010E944008C80167EC0E9467
:101100003508C8010E946D081F910F9108954F92F4
:101110005F926F927F928F929F92AF92BF92CF9287
:10112000DF92EF92FF920F931F93CF93DF93EC0127
:101130005A016B012901370148010E94400868816A
:10114000798187E794E00E94EF1C87E794E06DEADD
:101150000E94E41CCE01B601A5010E94A20787E708
:1011600094E0F20160810E94E41C6881798187E744
:1011700094E00E94EA1CCE010E946D08EE24FF2438
:1011800087011CC06881798187E794E00E94EF1C89
:1011900087E794E06DEA0E94E41CF201EE0DFF1D6A
:1011A00087E794E060810E94E41C6881798187E789
:1011B00094E00E94EA1CCE010E946D080894E11C94
:1011C000F11C011D111DE614F70408051905D0F2E4
:1011D000CE010E943C08DF91CF911F910F91FF90AB
:1011E000EF90DF90CF90BF90AF909F908F907F90C7
:1011F0006F905F904F9008954F925F926F927F92A1
:101200008F929F92AF92BF92CF92DF92EF92FF9216
:101210000F931F93CF93DF93EC015A016B012901C8
:10122000370148016881798187E794E00E94EF1CCB
:1012300087E794E06BE00E94E41CCE01B601A501B3
:101240000E94A20787E794E060E00E94E41CEE247D
:10125000FF2487010EC087E794E060E00E94E41C51
:10126000F201EE0DFF1D80830894E11CF11C011DAD
:10127000111DE614F7040805190568F368817981E2
:1012800087E794E00E94EA1CDF91CF911F910F91B4
:10129000FF90EF90DF90CF90BF90AF909F908F9096
:1012A0007F906F905F904F9008952F923F924F9252
:1012B0005F926F927F928F929F92AF92BF92CF92E6
:1012C000DF92EF92FF920F931F93DF93CF93CDB7EF
:1012D000DEB7C250D1400FB6F894DEBF0FBECDBF0F
:1012E0002C018CE090E00E94121B83E090E00E94B1
:1012F000121BC2010E94780882E090E00E94121B3B
:101300008DE090E00E94121BFE013196CE018F57B6
:101310009F4F1192E817F907E1F7AA24BB24650152
:101320004E010894811C911CC201B601A5019401D3
:10133000A0E8EA2EF12C012D112D0E948708AE0C99
:10134000BF1CC01ED11E80E0A81680E4B80680E055
:10135000C80680E0D80641F782E090E00E94121BA8
:101360008EE090E00E94121BAA24BB246501662433
:1013700077244301F1E82F2E312C2C0E3D1EDE0187
:10138000AF5FBE4FCF5FDE4FB983A883C150D1405E
:10139000C201B401A3019101E0E8EE2EF12C012D70
:1013A000112D0E94FC08F10120E030E040E050E007
:1013B0008191280F311D411D511DCF5FDE4F888166
:1013C0009981C150D140E817F90791F721153105EE
:1013D0004105510591F085E095E060E071E00E94E3
:1013E0009F2185E095E0B601A5012AE030E00E944A
:1013F000B0228CE190E00E94121B0894A11CB11C49
:10140000C11CD11C80E890E0A0E0B0E0680E791E1D
:101410008A1E9B1E90E8A916B104C104D10409F0EC
:10142000B7CF82E090E00E94121B83E090E00E9420
:10143000121BC2010E94780882E090E00E94121BF9
:101440008FE090E00E94121BCE5FDE4F0FB6F89443
:10145000DEBF0FBECDBFCF91DF911F910F91FF90E7
:10146000EF90DF90CF90BF90AF909F908F907F9044
:101470006F905F904F903F902F9008950F931F9320
:101480008C01FC01808161E00E942E1EC8010E9437
:1014900040081F910F910895FC01718360830895A6
:1014A000FC01828193810895CF92DF92EF92FF92A7
:1014B0000F931F938C01FC01658176818781908554
:1014C00021EE3AE746E95CE30E940A286B017C01C1
:1014D000F80180810E940C1EAA2797FDA095BA2FC3
:1014E000BC01CD010E9456279B01AC01C701B6018A
:1014F0000E940A281F910F91FF90EF90DF90CF90EC
:101500000895EF92FF920F931F938C0180E190E07A
:101510000E94121B81E190E00E94121BC8010E94F0
:10152000540A7B018C0185E095E0B801A70122E017
:1015300030E00E949423C801B7012CE53FE842EA5D
:1015400050E40E94B72688236CF4C801B70124EA4E
:1015500030E74DE950E40E94062818161CF48FE08D
:1015600090E002C08CE190E00E94121B1F910F914D
:10157000FF90EF900895DF92EF92FF920F931F93E9
:10158000CF93DF93EC0189859A85029711F4DD24CE
:1015900052C0CE010E94540A7B018C0189859A8534
:1015A0008130910529F58C812A813B81882389F03E
:1015B000DD24B901882777FD8095982F0E94562752
:1015C0009B01AC01C801B7010E94BB267B018C01C5
:1015D00015C0DD24B901882777FD8095982F0E94DA
:1015E00056279B01AC01C801B7010E94BB2618C059
:1015F000892B01F58C81882381F0DD246B857C8526
:101600008D859E852DEC3CEC4CE45EE30E945326D8
:101610009B01AC01C801B70107C0DD24C801B701B7
:101620002B853C854D855E850E94B726882314F462
:10163000DD24D394DC828D2DDF91CF911F910F910A
:10164000FF90EF90DF900895EF92FF920F931F931A
:10165000CF93DF93EC011C827A8769872D833E83C9
:101660004F835887EB86FC860D871E876130710596
:10167000A9F40E94540A2AE939E949E051E40E9498
:10168000B726992787FD90958827990F881F992756
:1016900023E030E0281B390B3B832A83DF91CF9175
:1016A0001F910F91FF90EF90089506C06AE070E0DF
:1016B00080E090E00E94751D8091BC038823B1F703
:1016C00064E670E080E090E00E94751D08958091CE
:1016D000B4030E94252410926F001092BC03089559
:1016E0001F920F920FB60F9211242F933F934F9397
:1016F0005F936F937F938F939F93AF93BF93EF937A
:10170000FF938091BA039091BB0301979093BB0321
:101710008093BA03892B09F04EC08091B803909151
:10172000B90301969093B9038093B803880F991F6A
:10173000880F991FE091B603F091B703E80FF91FE6
:10174000608171818FEF6F3F780719F40E94670BFA
:1017500032C08FEF6E3F780749F48FEF9FEF909381
:10176000B9038093B80381E090E021C08FEF6D3F13
:10177000780729F48091B4030E94252408C0809141
:10178000B40320E030E040E050E00E943C2480912F
:10179000B8039091B903880F991F880F991FE091A2
:1017A000B603F091B703E80FF91F828193819093FC
:1017B000BB038093BA03FF91EF91BF91AF919F91CB
:1017C0008F917F916F915F914F913F912F910F90EA
:1017D0000FBE0F901F901895FF920F931F938C01CF
:1017E000FF24F394F092BC039093B7038093B60365
:1017F000FC01608171818091B40320E030E040E021
:1018000050E00E943C241092B9031092B803F801F2
:10181000828193819093BB038093BA0310928000DE
:1018200083E1809381008AE196E090938700809322
:101830008600F0926F001F910F91FF900895DF9343
:10184000CF93CDB7DEB766970FB6F894DEBF0FBE65
:10185000CDBF82E190E00E94121BDE011196E7ED00
:10186000F2E086E101900D928150E1F7CE01019600
:101870000E94EC0B0E94550B82E090E00E94121B2C
:1018800066960FB6F894DEBF0FBECDBFCF91DF9145
:1018900008952F923F924F925F926F927F928F9214
:1018A0009F92AF92BF92CF92DF92EF92FF920F93EF
:1018B0001F93DF93CF93CDB7DEB728970FB6F89479
:1018C000DEBF0FBECDBF7C012DB63EB685E095E0F4
:1018D00061E271E00E949F2185E095E0B7014AE056
:1018E00050E00E94EA2200D000D000D0EDB7FEB751
:1018F00031968E010F5F1F4FADB7BEB712961C9386
:101900000E9311978DE291E093838283F582E482B6
:101910000E945602F80101900020E9F7BF016150D2
:101920007040601B710B8DB79EB706960FB6F8948A
:101930009EBF0FBE8DBFADB7BEB7A61BB70B0FB610
:10194000F894BEBF0FBEADBFEDB6FEB60894E11C65
:10195000F11C20E030E00BC0F701E20FF31FD801CB
:10196000A20FB31F8C91805380832F5F3F4F2617A8
:10197000370794F320E030E040E050E013C0F70177
:10198000E40FF51F8081882319F4285F3F4F08C0BA
:10199000992787FD9095880F991F0196280F391F69
:1019A0004F5F5F4F4617570754F32F5F3F4F220F8C
:1019B000331F220F331FEDB7FEB7E21BF30B0FB639
:1019C000F894FEBF0FBEEDBF4DB75EB74F5F5F4FE0
:1019D00020E030E000E010E0B8EB8B2EBBE09B2E67
:1019E000A2E0AA2EB12CFDEFCF2EFFEFDF2EE5E017
:1019F0006E2E712C9FE0492E512C7DC0F701E00F17
:101A0000F11FE081D901AA0FBB1FEE23F9F0A40F4B
:101A1000B51F80E090E0FF27E7FDF09513C0119619
:101A20009C928E9213967C926E9212971596DC92EF
:101A3000CE92149717967C926E9216972C5F3F4F1A
:101A4000019618968E179F0754F340C0A40FB51F38
:101A50008D929C92C9010196FC01EE0FFF1FE40FCD
:101A6000F51FB182A0820196FC01EE0FFF1FE40F6B
:101A7000F51FD182C0820196FC01EE0FFF1FE40F1B
:101A8000F51FB182A0820196FC01EE0FFF1FE40F4B
:101A9000F51F918280820196FC01EE0FFF1FE40F7B
:101AA000F51FB182A0820196FC01EE0FFF1FE40F2B
:101AB000F51FD182C0820196FC01EE0FFF1FE40FDB
:101AC000F51FB182A0829C012F5F3F4FF901EE0FFD
:101AD000FF1FE40FF51FD182C082C9010196FC01EE
:101AE000EE0FFF1FE40FF51F518240829C012F5F14
:101AF0003F4F0F5F1F4F061717070CF47FCF220FC2
:101B0000331F240F351F8FEF9FEFD9018D939C93C7
:101B1000CA010E94EC0B0E94550B6CE271E080E060
:101B200090E00E94751D0FB6F8943EBE0FBE2DBE0C
:101B300028960FB6F894DEBF0FBECDBFCF91DF91D0
:101B40001F910F91FF90EF90DF90CF90BF90AF90DB
:101B50009F908F907F906F905F904F903F902F90CD
:101B600008958093B4039093B50361E00E942E1E04
:101B70008091B40360E00E94541E0895FC017187B7
:101B80006087538742873587248708952F923F9235
:101B90005F926F927F928F929F92AF92BF92CF92FD
:101BA000DF92EF92FF920F931F93DF93CF9300D0BA
:101BB00000D0CDB7DEB71C01DC0158962D913C91C9
:101BC000599740E050E098966D917D918D919C9150
:101BD0009B97621B730B840B950B56962D913C9132
:101BE000579740E050E00E94D4297B018C013FE0F0
:101BF00016950795F794E7943A95D1F7F10160A10E
:101C000071A1882777FD8095982F2BE0660F771FAD
:101C1000881F991F2A95D1F722A133A1442737FDA8
:101C20004095542F2E0D3F1D401F511F0E943C2AEE
:101C300059016A01AE0CBF1CC01ED11E88E090E0A5
:101C4000A0E0B0E0A80EB91ECA1EDB1ED601C50179
:101C500014E0B595A795979587951A95D1F7F10159
:101C600080839183A283B38388E590EFAFEFBFEFCA
:101C7000A80EB91ECA1EDB1EC601B501A60195013C
:101C80000E94D4293B014C01ACE095948794779451
:101C90006794AA95D1F7D1011C965C901C97529637
:101CA0002D913C915397442737FD4095542FC60101
:101CB000B5010E94D4297B018C01FDE015950795A3
:101CC000F794E794FA95D1F782E090E0A0E0B0E0D5
:101CD000E80EF91E0A1F1B1FD1015A962D913C9147
:101CE0005B97442737FD4095542FC401B3010E94F0
:101CF000D429BC01992777FD9095892FE60EF71E10
:101D0000081F191F52E015950795F794E7945A9507
:101D1000D1F780E090E8A0E0B0E0E80EF91E0A1FDD
:101D20001B1FD10154962D913C91559740E050E0F6
:101D3000C801B7010E94D429DC01CB014FE0B69560
:101D4000A795979587954A95D1F789839A83AB8311
:101D5000BC83D10150962D913C915197442737FD7A
:101D60004095542FC601B5010E94D4297B018C01F6
:101D70003BE015950795F794E7943A95D1F7F10173
:101D800086859785AA2797FDA095BA2F22E0880F10
:101D9000991FAA1FBB1F2A95D1F7E80EF91E0A1F2B
:101DA0001B1F248D358D442737FD4095542FC401CA
:101DB000B3010E94D429ABE09595879577956795F7
:101DC000AA95D1F7E60EF71E081F191F052C04C0AF
:101DD000EE0CFF1C001F111F0A94D2F7F2E01595BC
:101DE0000795F794E794FA95D1F7D1019C966D91F8
:101DF0007D918D919C919F976E197F09800B910B1E
:101E000020E533EC40E050E004C055954795379508
:101E100027955A94D2F70E94D42997FD0FC0660FD8
:101E2000771F881F991F29813A814B815C810E940D
:101E30001A2AC901DA015C016D010CC029813A81BD
:101E40004B815C810E941A2A59016A01AA0CBB1CB1
:101E5000CC1CDD1C5527D7FC5A954D2D3C2D2B2D28
:101E6000CA01B9010E94D4292EED3BE040E050E0C8
:101E70000E94D4297B018C01C601B50123E433EE15
:101E80004FEF5FEF0E94D429BC01992777FD909511
:101E9000892F6153714F8F4F9F4F78011127F7FCA6
:101EA0001095012F6E0D7F1D801F911F24E09595C9
:101EB0008795779567952A95D1F76A0D7B1D8C1DBF
:101EC0009D1DF10164837583868397830F900F9026
:101ED0000F900F90CF91DF911F910F91FF90EF9096
:101EE000DF90CF90BF90AF909F908F907F906F903A
:101EF0005F903F902F900895FC0164A175A186A189
:101F000097A10895EF92FF920F931F93162F042F1E
:101F100046E4E42E43E0F42EC70167E770E00E9438
:101F2000F704C701612F0E941905C701602F0E94A5
:101F30001905C7010E943D051F910F91FF90EF9079
:101F400008951F93162F86E493E067E770E00E94E0
:101F5000F70486E493E0612F0E94190586E493E07C
:101F60000E943D0586E493E067E770E041E050E0C1
:101F70000E945A0586E493E00E9401058823D1F36C
:101F800086E493E00E9407051F910895AF92BF92E7
:101F9000CF92DF92EF92FF920F931F935C01D62EA8
:101FA0000E94A10FE82ED394C5016D2D0E94A10FB0
:101FB000C82ED394C5016D2D0E94A10FFF2400E00F
:101FC00010E08701FF24EE24E80EF11C011D111D15
:101FD0009C2D80E0A0E0B0E0E80EF91E0A1F1B1F58
:101FE000B701C8011F910F91FF90EF90DF90CF9044
:101FF000BF90AF900895EF92FF920F931F937C01D3
:10200000162F0E94A10F082F1F5FC701612F0E948A
:10201000A10F302F20E0280F311DC9011F910F9112
:10202000FF90EF9008958F929F92AF92BF92CF92C0
:10203000DF92EF92FF920F931F936C0148015901B9
:10204000CB01BA010E9454277B018C01F60164A1E7
:1020500075A186A197A10E9454279B01AC01C801DC
:10206000B7010E94BB2621E33CE043E45EE30E940B
:102070006D287B018C01C501B40120E03AE24DE2FC
:1020800057E40E940A285B016C0160E070E080E880
:102090009FE3A80197010E9452269B01AC01C60153
:1020A000B5010E940A280E9423279B01AC01CA01A6
:1020B0001F910F91FF90EF90DF90CF90BF90AF9066
:1020C0009F908F900895CF93DF93EC014C854295BC
:1020D000440F440F407C4C5C64EF0E94820F8A8561
:1020E0009B85892B01F58C859D858130910551F06B
:1020F0008230910571F0892B89F465E070E080E011
:1021000090E004C068E070E080E090E00E94751DFF
:102110000FC06EE070E080E090E0F8CF6AE170E020
:1021200080E090E0F3CF8A850E94A81E0197D9F73E
:10213000CE0166EF0E94C60F28E030E04C855D8539
:10214000241B350B04C096958795779567952A953E
:10215000D2F76CA77DA78EA79FA7DF91CF91089597
:10216000CF93DF93EC0164EF4EE20E94820F8A85E9
:102170009B85892B39F465E070E080E090E00E9457
:10218000751D05C08A850E94A81E0197D9F7CE014A
:1021900066EF0E94FB0FA0E0B0E088A799A7AAA76E
:1021A000BBA7DF91CF910895AF92BF92CF92DF92FC
:1021B000EF92FF920F931F93CF93DF936C015B011C
:1021C0000E94B010EE24FF248701C0E0D0E010C0D0
:1021D000C6010E946310C6010E94C60DF6018481EB
:1021E0009581A681B781E80EF91E0A1F1B1F219653
:1021F000CA15DB056CF39501442737FD4095542F34
:10220000C801B7010E941A2ACA01B901DF91CF9112
:102210001F910F91FF90EF90DF90CF90BF90AF9004
:102220000895AF92BF92CF92DF92EF92FF920F93F9
:102230001F938C0185E095E060E371E00E94D42259
:1022400085E095E06CE471E00E949F21C80164E1A3
:1022500070E00E94D4105B016C0185E095E0B6014E
:10226000A5012AE030E00E94502285E095E060E57B
:1022700071E00E949F21D801ED90FD900D911C917D
:1022800085E095E0B801A7012AE030E00E94DF2256
:1022900085E095E065E571E00E94D42289E69FEF34
:1022A000AFEFBFEFE80EF91E0A1F1B1F95E9E916F5
:1022B000F10401051105A8F4A8E2AA16AAE9BA06D4
:1022C000A1E0CA06A0E0DA0664F4B9EBAB16B2E806
:1022D000BB06B1E0CB06B0E0DB061CF08FE090E07F
:1022E00002C08CE190E00E94121B1F910F91FF90A1
:1022F000EF90DF90CF90BF90AF9008950F931F9312
:102300008C0168EC70E00E94D410F80164A375A3FE
:1023100086A397A31F910F910895FC018085918555
:10232000009749F061E00E94541E6AE070E080E08E
:1023300090E00E94751D0895CF93DF93EC0188858E
:102340009985009719F061E00E942E1E8A8560E051
:102350000E942E1E8A8560E00E94541ECE010E94BB
:102360008D1164E170E080E090E00E94751DCE0167
:102370006AEA0E94FB0F9F878E87CE016CEA0E945B
:10238000FB0F998B888BCE016EEA0E94FB0F9B8B13
:102390008A8BCE0160EB0E94FB0F9D8B8C8BCE0154
:1023A00062EB0E94FB0F9F8B8E8BCE0164EB0E9431
:1023B000FB0F998F888FCE0166EB0E94FB0F9B8FDE
:1023C0008A8FCE0168EB0E94FB0F9D8F8C8FCE0110
:1023D0006AEB0E94FB0F9F8F8E8FCE016CEB0E94E9
:1023E000FB0F99A388A3CE016EEB0E94FB0F9BA36A
:1023F0008AA3DF91CF910895FC01718360831282DB
:102400001382148215821682178210861186128614
:102410001386148615860895FC0112861386148689
:1024200015860895FC0160E0228533854485558535
:1024300082819381A481B581281739074A075B07F8
:1024400009F061E0862F0895FC0182819381A481C7
:10245000B5810597A109B10982879387A487B587BC
:10246000089520E0FC0182859385A485B5850097B9
:10247000A105B10509F021E0822F0895FC016681D4
:102480007781808591850895FC01628173818481C3
:10249000958125E030E040E050E00E941A2ACA0110
:1024A000B9010895FC014D5C5B4851834083089558
:1024B000FC0120813181442737FD4095542F23535F
:1024C00034474E4F5F4FB901CA0108950F931F93D0
:1024D0008C014A565F4F6F4F7F4FCB01BA010E946C
:1024E00056272DEC3CEC4CEC5EE30E940A280E943F
:1024F0002827F80162831F910F910895FC016281E2
:1025000070E0882777FD8095982F0E94562720E05D
:1025100030E040E250E40E940A2820E030E046E14A
:1025200053E40E9452260E9423279B01AC01CA015A
:1025300008950F931F938C01CB01BA0120E030E086
:1025400040E050E40E94522620E030E040EA51E4AE
:102550000E940A280E942827F80163831F910F9187
:102560000895FC01638170E080E090E00E945427B0
:102570002DEC3CEC4CE45DE30E940A2820E030E0C6
:1025800040E050E40E9453260895FC016115710556
:1025900011F414820895645F714083E07695679525
:1025A0008A95E1F7648308950F931F938C0185E06A
:1025B00095E06BE571E00E949F21F8014081518117
:1025C000662757FD6095762F435354476E4F7F4FD4
:1025D00085E095E02AE030E00E94502285E095E019
:1025E0006FE571E00E949F21F801628170E0882709
:1025F00077FD8095982F0E94562720E030E040E23A
:1026000050E40E940A2820E030E046E153E40E94B2
:1026100052260E942327AB01BC0185E095E02AE009
:1026200030E00E94502285E095E064E671E00E946F
:102630009F21F801638170E080E090E00E945427C0
:102640002DEC3CEC4CE45DE30E940A2820E030E0F5
:1026500040E050E40E945326AB01BC0185E095E0C8
:1026600022E030E00E94912385E095E069E671E088
:102670000E949F21F8016481662319F460E070E0F4
:1026800008C070E023E0660F771F2A95E1F76C50D1
:102690007E4F85E095E04AE050E00E94BB221F910A
:1026A0000F910895CF92DF92EF92FF920F931F93B5
:1026B0006C019B01FC014285538564857585808191
:1026C0009181E5E0EE2EF12C012D112D0E94FC08E8
:1026D000F60182859385A485B5850597A109B10981
:1026E00082879387A487B5871F910F91FF90EF9002
:1026F000DF90CF900895CF92DF92EF92FF920F93E9
:102700001F936C019B01FC0142855385648575858F
:1027100080819181F5E0EF2EF12C012D112D0E9489
:10272000FC08F60182859385A485B5850596A11DD3
:10273000B11D82879387A487B5871F910F91FF9062
:10274000EF90DF90CF900895CF92DF92FF920F939A
:102750001F93DF93CF9300D000D00F92CDB7DEB799
:102760008C01FC0116821782108611861286138650
:1027700014861586FF246E010894C11CD11C56C016
:10278000C801B6010E947B132A81898190E0A0E0F4
:10279000B0E0820F911DA11DB11D2B81820F911DF3
:1027A000A11DB11D2C81820F911DA11DB11D2D8177
:1027B000820F911DA11DB11D8B5F9440A040B040C0
:1027C00011F0FF2433C0F8012681378140855185FF
:1027D0002F5F3F4F4F4F5F4F26833783408751878F
:1027E0002150304040405040FF20F1F082859385D9
:1027F000A485B5850597A109B10982839383A48334
:10280000B5830597A105B10549F41282138214829C
:10281000158216821782108611861BC0F801268346
:1028200037834087518715C0FF24F394F8018285D0
:102830009385A485B585863FFFEF9F07F7E0AF0737
:10284000F0E0BF0708F49CCFF80182839383A48350
:10285000B5830F900F900F900F900F90CF91DF9155
:102860001F910F91FF90DF90CF9008950E94A413C5
:102870000895EF92FF920F931F93CF93DF93EC0194
:102880009B014A815B816C817D81463F8FEF5807B8
:1028900087E0680780E0780710F080E015C0888145
:1028A0009981A5E0EA2EF12C012D112D0E948708B7
:1028B0008A819B81AC81BD810596A11DB11D8A8352
:1028C0009B83AC83BD8381E0DF91CF911F910F91FA
:1028D000FF90EF9008950F931F938C01FC0180816E
:1028E00091810E947808F801128213821482158265
:1028F00016821782108611861F910F9108950F93EB
:102900001F938DEB93E061E170E040E150E021E046
:1029100030E00E94BE0D8DEE93E066E070E00E9414
:102920004C0A0CEF13E0C8016AE070E00E949E07B9
:102930008EEF93E0B8010E94FC118CE094E068E017
:1029400070E00E94281B8EE094E069E070E00E9435
:10295000281B1F910F91089580918802882331F0E0
:102960001092880284E090E00E94121B08950E9459
:10297000AC1483E090E00E94121B8EEF93E00E9463
:102980006B1482E090E00E94121B08958F929F9238
:10299000AF92BF92CF92DF92EF92FF920F931F936D
:1029A000DF93CF9300D000D00F92CDB7DEB78AE18E
:1029B00090E00E94121B8DEB93E00E947C0F4B0174
:1029C0005C01EE24FF2487016E010894C11CD11C18
:1029D000B801A701480D591D6A1D7B1DC6010E9443
:1029E0005212C60144E150E060E070E00E946612BD
:1029F000C60144E15EEA6FEB70E40E949912C601E1
:102A000060E070E00E94C5128EEF93E0B6010E9474
:102A1000391484ED9EEFAFEFBFEFE80EF91E0A1FE9
:102A20001B1F98E4E91694EFF9069FEF09079FEF43
:102A3000190771F688E4E82E84EFF82E8FEF082F3F
:102A40008FEF182FE80CF91C0A1D1B1DCC24DD2468
:102A50005E010894A11CB11CC501B801A7010E9428
:102A60005212C50144E150E060E070E00E9466123D
:102A7000C50144E15EEA6FEB70E40E949912C50162
:102A800060E070E00E94C5128EEF93E0B5010E94F5
:102A900039140894C11CD11C86E090E0A0E0B0E09D
:102AA000E80EF91E0A1F1B1F94EFC91691E0D90604
:102AB00099F682E090E00E94121B0F900F900F9009
:102AC0000F900F90CF91DF911F910F91FF90EF909A
:102AD000DF90CF90BF90AF909F908F900895CF934D
:102AE000DF930E94AC14C6E1D4E005C085E095E018
:102AF00069910E94142184E0C732D807B9F7DF91A9
:102B0000CF91089580911104882369F488E190E0C1
:102B10000E94121B81E0809311040E94AC1489EA88
:102B200092E00E94EC0B089580911004882359F4E0
:102B300086E190E00E94121B81E0809310048FE9EF
:102B400092E00E94EC0B0895CF93DF930E94AC14A7
:102B500085E095E00E94B2204197D0F3C6E1D4E031
:102B600005C085E095E00E94E020899384E0C732AB
:102B7000D807B9F7CE0141970E94591C83EC92E027
:102B80000E94EC0B0E94550BDF91CF9108958EE1CE
:102B900090E00E94121B0E94471C83EC92E00E946E
:102BA000EC0B0E94550B82E090E00E94121B0895EE
:102BB00080911004882341F087E190E00E94121B6D
:102BC0000E94670B1092100408950F931F93DF93D8
:102BD000CF9300D000D00F92CDB7DEB70E94AC14D7
:102BE0008EEF93E00E940C128E010F5F1F4F08C002
:102BF0008EEF93E0B8010E947B13C8010E94D412AB
:102C00008EEF93E00E941212882391F70F900F909D
:102C10000F900F900F90CF91DF911F910F9108951A
:102C20000F931F93DF93CF9300D000D00F92CDB7B7
:102C3000DEB70E94AC148EEF93E00E940C128E015E
:102C40000F5F1F4F0CC08EEF93E0B8010E947B1303
:102C500085E095E0B80145E050E00E9480218EEFCC
:102C600093E00E941212882371F700E010E085E0E3
:102C700095E06FEF0E9414210F5F1F4F0A3011057E
:102C8000B1F70F900F900F900F900F90CF91DF91B1
:102C90001F910F910895EF92FF920F931F930E943F
:102CA000AC1486E090E00E94121B9EEFE92E93E0A8
:102CB000F92EC7010E943E12AB01BC0105E015E0F0
:102CC000C8012AE030E00E94B02287E090E00E9434
:102CD000121BC7010E944412AB01BC01C8012AE0CB
:102CE00030E00E94B02288E090E00E94121BC801F0
:102CF00047E959E961E070E02AE030E00E94B02243
:102D00001F910F91FF90EF90089580918802882382
:102D100089F40E94671D60931204709313048093DA
:102D200014049093150481E08093880285E090E07C
:102D30000E94121B089580911104882351F089E1AB
:102D400090E00E94121B109211040E9485160E94AE
:102D5000670B08952F923F924F925F926F927F92EE
:102D60008F929F92AF92BF92CF92DF92EF92FF929B
:102D70000F931F93DF93CF93CDB7DEB729970FB68D
:102D8000F894DEBF0FBECDBF0E94AC148EEF93E06F
:102D90000E942412222433242101CC24DD24760134
:102DA0001F821E8272C08EEF93E0BE016F5F7F4F65
:102DB0000E945213CE0101960E945812AB01BC0131
:102DC000009118041091190420911A0430911B04E9
:102DD0008DEB93E00E9413103B014C012616370641
:102DE0004806590614F41B012C0120911604309159
:102DF000170439872887C618D708E808F908C701D3
:102E0000B6010E9456275B016C0160911804709115
:102E1000190480911A0490911B0420E030E040E4F2
:102E200050E40E940A287B018C0128853985B9016C
:102E300080E090E00E94542720E030E04AE754E42C
:102E40000E94BB269B01AC01C801B7010E940A2861
:102E50009B01AC01C601B5010E94062818161CF0A2
:102E60001F821E8205C08E819F8101969F838E8363
:102E7000740163018CED95E0688579850E94F329E2
:102E80002E813F812617370738F48EEF93E00E949A
:102E90003112882309F087CF7201610124E1822E6B
:102EA000912C3E010894611C711C8EEF93E00E94EE
:102EB0003112882359F18EEF93E0B3010E9452132F
:102EC000C3010E9458126F5F7F4F8F4F9F4FF1F0E9
:102ED000C3010E945812AB01BC010091180410916B
:102EE000190420911A0430911B048DEB93E00E9489
:102EF00013106C157D058E059F0514F46B017C0184
:102F00000894810891088114910479F685E095E090
:102F10006AE771E00E949F21B201A1014C195D098D
:102F20006E097F0985E095E02AE030E00E94DF220B
:102F3000C1018C199D090E94490C64EF71E080E089
:102F400090E00E94751D0E94851629960FB6F89490
:102F5000DEBF0FBECDBFCF91DF911F910F91FF90CC
:102F6000EF90DF90CF90BF90AF909F908F907F9029
:102F70006F905F904F903F902F9008958DEE93E06B
:102F80000E94BB0A882319F00E94941508950E949C
:102F9000D81508950F931F93DF93CF9300D000D0DF
:102FA0000F92CDB7DEB780918802882309F448C01C
:102FB0008DEB93E064E170E00E94D410AB01BC01A2
:102FC0008E010F5F1F4FC8010E9452124091BD0336
:102FD0005091BE036091BF037091C003C8010E946D
:102FE00066128DEE93E00E94540AAB01BC01C80149
:102FF0000E94991280912604882339F08EE094E093
:103000000E942C1BBC01C80103C0C80160E070E035
:103010000E94C5128EEF93E0BE016F5F7F4F0E944A
:103020003914882339F085E095E06AE871E00E9460
:103030009F2106C08BE190E00E94121B0E94AC14FD
:103040000F900F900F900F900F90CF91DF911F91E5
:103050000F9108952F923F924F925F926F927F92BD
:103060008F929F92AF92BF92CF92DF92EF92FF9298
:103070000F931F93DF93CF93CDB7DEB761970FB652
:10308000F894DEBF0FBECDBF0E94AC1489E090E083
:103090000E94121B8CEF93E00E9455098EEF93E083
:1030A0000E946B148DEB93E00E9411118DEE93E062
:1030B0000E94810A0E941F0C8CE094E00E94841BF5
:1030C0000E94AF1C85E095E06CE871E00E94D4227C
:1030D00081E08093880200E010E00E94CA170F5F31
:1030E0001F4F083C1105C9F7109288028EEF93E03C
:1030F0000E940C128EEF93E08E010F5F1F4FB801FC
:103100000E947B13C8010E9458126E877F87888BAC
:10311000998BC8010E9458126A877B878C879D878C
:10312000C8010E947E126E837F8388879987C801B9
:103130000E947E123B014C01C8010E94B1121B018A
:103140002C01C8010E94B1125B016C01F02E012F0D
:1031500074C08EEF93E06F2D702F0E947B138F2D24
:10316000902F0E9458122E853F85488959896217F1
:1031700073078407950744F48F2D902F0E945812EF
:103180006E877F87888B998B8F2D902F0E947E1260
:103190002E813F81488559856217730784079507FB
:1031A00044F48F2D902F0E947E126E837F83888738
:1031B00099878F2D902F0E94B112A20191010E9438
:1031C000B726882334F48F2D902F0E94B1121B0153
:1031D0002C018F2D902F0E9458122A853B854C85FB
:1031E0005D85261737074807590744F48F2D902F20
:1031F0000E9458126A877B878C879D878F2D902F1E
:103200000E947E12661677068806990634F48F2D82
:10321000902F0E947E123B014C018F2D902F0E9417
:10322000B112A60195010E940628181634F48F2DBC
:10323000902F0E94B1125B016C018EEF93E00E940F
:103240001212882309F085CFEA84FB840C851D8542
:103250008E859F85A889B989E81AF90A0A0B1B0B84
:103260002E813F8148855985621A730A840A950A1E
:10327000C601B501A20191010E9452265B016C01B9
:1032800085E095E00E94992285E095E062EA71E090
:103290000E949F2185E095E0B801A7012AE030E077
:1032A0000E94DF2285E095E06BEA71E00E949F2199
:1032B00085E095E0B401A3012AE030E00E94DF221E
:1032C00085E095E064EB71E00E949F2185E095E048
:1032D000B601A50122E030E00E94942336E9E3160E
:1032E000F104010511059CF44FE06416710481049A
:1032F00091046CF4C601B5012DEC3CEC4CEC5DE3A3
:103300000E94B72688231CF48FE090E002C08CE175
:1033100090E00E94121B8AE090E00E94121B6196CE
:103320000FB6F894DEBF0FBECDBFCF91DF911F91D6
:103330000F91FF90EF90DF90CF90BF90AF909F9054
:103340008F907F906F905F904F903F902F90089557
:10335000873649F1883678F4833611F1843630F4B3
:103360008136C9F1823609F043C03AC08536A9F0EA
:103370008636C8F51EC0823759F1833738F48F3648
:10338000A9F18037C9F0893699F510C08437B9F0B2
:103390008437D8F0873761F515C00E94B7140895B7
:1033A0000E94AC1408950E94851608950E944B1641
:1033B00008950E94101608950E94E51508950E9430
:1033C0002A1808950E94C71508950E94A41508950B
:1033D0000E946F1508958FE992E00E94EC0B08950A
:1033E0000E94670B08950E94C61408950E94AA16B1
:1033F00008958CE094E00E94751B823059F40E947D
:10340000D8150E94821564EF71E080E090E00E9480
:10341000751D33C00E949B160E94BE178091100438
:10342000882341F48CE094E00E94751B813011F4F4
:103430000E94AA160E94671D209112043091130465
:10344000409114045091150426173707480759076F
:10345000A0F48091160490911704A0E0B0E0820FD0
:10346000931FA41FB51F8093120490931304A0937D
:103470001404B09315040E94CA1785E095E00E94D9
:10348000B2201816190634F485E095E00E94E02079
:103490000E94A8190895EF92FF920F931F9380E066
:1034A0000E94091E86E493E00E945D0585E095E098
:1034B00040E052EC61E070E00E94B91F80E061E002
:1034C0000E94541E80E090E00E94121B85E095E06F
:1034D0006DEB71E00E949F2185E095E065EC71E065
:1034E0000E94D4228DE190E00E94121B80E290E0C5
:1034F0000E94121B86E194E00E94721C86E194E017
:103500000E94D41B87E794E00E94F41C8DEB93E0AB
:103510000E949C118CE094E00E94C41B8EE094E019
:103520000E94C41B8CEF93E00E943E0A83E090E06F
:103530000E94B10D81E090E00E94121B8EEF93E09B
:103540000E94361482E090E00E94121B84E190E019
:103550000E94121B8DEB93E00E947E118DEB93E095
:103560000E947C0FAB01BC0185E095E02AE030E0D1
:103570000E94412285E095E06EED71E00E949F215E
:1035800082E090E00E94121B89E892E00E94EC0B1E
:103590000E94550B60911C0470911D04209122041F
:1035A000309123044091240450912504E0901E049E
:1035B000F0901F0400912004109121048DEE93E0FF
:1035C0000E94240B80911C0490911D040197D9F452
:1035D00085E190E00E94121B8DEE93E00E94500A5C
:1035E000BC0185E095E04AE050E00E94862285E03B
:1035F00095E06AE871E00E94D4228DEE93E00E948B
:10360000500A0E94490C0E94671D60931204709337
:10361000130480931404909315041F910F91FF904D
:10362000EF9008950F931F93FC01EE0FFF1FEA55D3
:10363000FC4F6591749107E214E0C8010E944F02AB
:1036400085E095E0B8010E949F211F910F91089598
:10365000FC01718360830895FC01808161E020E6B4
:103660003DE640E050E00E94F71ECB010895EF9246
:10367000FF920F931F93CF93DF937C0100E010E044
:103680000F5F1F4F0730110531F1F701808161E0B5
:1036900020E63DE640E050E00E94F71EEB01672B7C
:1036A000D1F0F701808161E020E63DE640E050E0A6
:1036B0000E94F71EC617D70719F480E090E003C0F8
:1036C000CE01861B970B6C0F7D1F769567958C340A
:1036D0009105B0F602C060E070E0CB01DF91CF91C0
:1036E0001F910F91FF90EF9008950E94371B25E0E6
:1036F0008837920710F480E008958154964010F4C2
:1037000081E0089582E008950F931F93CF93DF9394
:103710008C0185E095E060EE71E00E94D422C80142
:103720000E94371B8C0185E095E0B8014AE050E02B
:103730000E94BB2289E061E020E63DE640E050E0E7
:103740000E94F71E9B01AC01EB0185E095E0B901F9
:103750004AE050E00E94BB22055214400B33110591
:1037600050F484E0C532D80730F0C056D44018F485
:103770008FE090E002C08CE190E00E94121BDF918C
:10378000CF911F910F9108950F931F938C01FC010E
:10379000808160E00E942E1EF801808161E00E941D
:1037A000541E1F910F910895CF93DF93EC0185E094
:1037B00095E062EF71E00E949F216881798185E048
:1037C00095E04AE050E00E94BB2285E095E061E090
:1037D00072E00E949F214A815B816C817D8185E03E
:1037E00095E022E030E00E94942385E095E060E1DE
:1037F00072E00E949F218E819F818130910559F056
:103800008230910519F0892B59F010C085E095E0C0
:103810006FE172E009C085E095E06AE272E004C001
:1038200085E095E067E372E00E94D42285E095E0B0
:1038300064E472E00E949F21488559856A857B85F2
:1038400085E095E022E030E00E94942385E095E059
:103850006CE572E00E949F214C855D856E857F85B9
:1038600085E095E022E030E00E94942385E095E039
:103870006AE772E00E949F21688985E095E070E028
:103880004AE050E00E94EA22DF91CF910895CF9361
:10389000DF93C0E0D0E083EB93E0BE0140E00E9404
:1038A0009207219682E0C030D807A9F7DF91CF9127
:1038B00008950F931F93CF93DF938C01C0E0D0E066
:1038C000F801EC0FFD1F83EB93E0BE0140810E94E5
:1038D00092072196C131D10599F7DF91CF911F91C0
:1038E0000F9108950F931F93CF93DF938C01C0E046
:1038F000D0E083EB93E0BE010E948B07F801EC0F50
:10390000FD1F80832196C131D10599F7F80180818F
:103910009181892BF9F484EF91E09183808387EE84
:103920009BEFA1E5B0E482839383A483B5831782E0
:10393000168286E696E6A6E9B0E480879187A2879C
:10394000B38780E090E0A0E8BFE384879587A687EF
:10395000B787108ADF91CF911F910F910895DF9360
:10396000CF93CDB7DEB7A2970FB6F894DEBF0FBEE8
:10397000CDBF8FE190E00E94121B8AEF90E09A8306
:103980008983CE0101960E94591CCE0142960E9465
:10399000721C0E94471C82E090E00E94121B8A89E0
:1039A0009B898A3F910519F48FE090E002C08CE179
:1039B00090E00E94121BA2960FB6F894DEBF0FBED5
:1039C000CDBFCF91DF9108956EBD0DB407FEFDCF41
:1039D0008EB50895862F61E00E94541E0895862FAB
:1039E00060E00E94541E0895DF93CF930F92CDB7ED
:1039F000DEB78BE061E00E942E1E8DE061E00E9448
:103A00002E1E8CE060E00E942E1E8CE061E00E9481
:103A1000541E80E58CBD8DB589838EB589830F904A
:103A2000CF91DF9108951F920F920FB60F9211243C
:103A30002F933F934F935F936F937F938F939F93B6
:103A4000AF93BF9320917C0430917D0440917E041C
:103A500050917F0470918004DA01C9010296A11D82
:103A6000B11D672F6A5F6D3730F06D57DA01C901FC
:103A70000396A11DB11D6093800480937C049093F4
:103A80007D04A0937E04B0937F048091780490918C
:103A90007904A0917A04B0917B040196A11DB11D17
:103AA0008093780490937904A0937A04B0937B0474
:103AB000BF91AF919F918F917F916F915F914F9146
:103AC0003F912F910F900FBE0F901F9018958FB7B9
:103AD000F89420917C0430917D0440917E045091B3
:103AE0007F048FBFB901CA0108959B01AC017FB764
:103AF000F8948091780490917904A0917A04B0911F
:103B00007B0466B5A89B05C06F3F19F00196A11D07
:103B1000B11D7FBFBA2FA92F982F8827860F911D1F
:103B2000A11DB11D63E0880F991FAA1FBB1F6A95D5
:103B3000D1F7BC012DC0FFB7F89480917804909123
:103B40007904A0917A04B0917B04E6B5A89B05C0E6
:103B5000EF3F19F00196A11DB11DFFBFBA2FA92F8C
:103B6000982F88278E0F911DA11DB11DE3E0880FAE
:103B7000991FAA1FBB1FEA95D1F7861B970B885E7A
:103B80009340C8F2215030404040504068517C4F33
:103B9000211531054105510571F60895789484B5D4
:103BA000826084BD84B5816084BD85B5826085BD39
:103BB00085B5816085BDEEE6F0E08081816080831F
:103BC000E1E8F0E010828081826080838081816002
:103BD0008083E0E8F0E0808181608083E1EBF0E0C9
:103BE000808184608083E0EBF0E08081816080836D
:103BF000EAE7F0E080818460808380818260808356
:103C00008081816080838081806880831092C10080
:103C100008958093D5020895982F8E3008F09E5015
:103C200097708091D5028295880F880F807C892BB0
:103C300080937C0080917A00806480937A008091E8
:103C40007A0086FDFCCF2091780040917900942F76
:103C500080E030E0282B392BC9010895482F50E02F
:103C6000CA01855E9B4FFC012491495F5B4FFA01BD
:103C700084918823C1F0E82FF0E0EE0FFF1FE75199
:103C8000FC4FA591B491662341F49FB7F8948C91B1
:103C9000209582238C939FBF08959FB7F8948C91B1
:103CA000822B8C939FBF0895482F50E0CA01815DFD
:103CB0009B4FFC012491CA01855E9B4FFC0134910E
:103CC000495F5B4FFA019491992309F440C0222384
:103CD00031F1233021F4809180008F7705C02430AA
:103CE00031F4809180008F7D8093800018C0213056
:103CF00019F484B58F7704C0223021F484B58F7D08
:103D000084BD0DC0263021F48091B0008F7705C0AE
:103D1000273029F48091B0008F7D8093B000E92F87
:103D2000F0E0EE0FFF1FED50FC4FA591B49166231C
:103D300041F49FB7F8948C91309583238C939FBF67
:103D400008959FB7F8948C91832B8C939FBF08950F
:103D5000682F70E0CB01815D9B4FFC012491CB016A
:103D6000855E9B4FFC014491695F7B4FFB01949101
:103D7000992319F420E030E038C0222331F12330B8
:103D800021F4809180008F7705C0243031F4809138
:103D900080008F7D8093800018C0213019F484B595
:103DA0008F7704C0223021F484B58F7D84BD0DC08F
:103DB000263021F48091B0008F7705C0273029F498
:103DC0008091B0008F7D8093B000892F90E0880FA4
:103DD000991F83509C4FFC01A591B4918C9120E0D8
:103DE00030E0842311F021E030E0C9010895DF9232
:103DF000EF92FF920F931F93A82FB0E0CD01855E45
:103E00009B4FFC01D490A95FBB4FFD0184916623B9
:103E100011F490E001C09D2D79018A0143E0EE0C80
:103E2000FF1C001F111F4A95D1F734E01695079526
:103E3000F794E7943A95D1F7682F70E0660F771FF3
:103E400063507C4F20E030E040E050E0FB01A59162
:103E5000B4910AC02E153F054007510709F440C030
:103E60002F5F3F4F4F4F5F4F8C918D21891791F3FB
:103E70000AC02E153F054007510791F12F5F3F4FB4
:103E80004F4F5F4F03C0FB01A591B4918C918D21E1
:103E9000891779F720E030E040E050E0FB01A59180
:103EA000B49104C02F5F3F4F4F4F5F4F8C918D21D6
:103EB0008917C1F3CA01B9012AE030E040E050E0BF
:103EC0000E94D4299B01AC01205F3F4F4F4F5F4FB1
:103ED00083E056954795379527958A95D1F704C085
:103EE00020E030E040E050E0B901CA011F910F919D
:103EF000FF90EF90DF9008951F920F920FB60F92F0
:103F000011242F933F934F935F936F937F938F93DE
:103F10009F93AF93BF93EF93FF934091C600E091BF
:103F20000105F0910205CF01019660E870E00E9462
:103F3000072A9C01809103059091040528173907F1
:103F400039F0EF57FB4F4083309302052093010572
:103F5000FF91EF91BF91AF919F918F917F916F9161
:103F60005F914F913F912F910F900FBE0F901F9037
:103F700018955F926F927F928F929F92AF92BF92AD
:103F8000CF92DF92EF92FF920F931F93CF93DF9325
:103F9000EC013A014B01413281EA580787E068079A
:103FA00080E078070CF07FC060E472E48FE090E07E
:103FB000A40193010E943C2A2150304040405040CF
:103FC000CA01B90122E030E040E050E00E943C2A02
:103FD00059016A01A60195012095309540955095AB
:103FE00094E0220F331F441F551F9A95D1F760E0CC
:103FF00072E18AE790E00E943C2ACA01B9012FEFE2
:1040000030E040E050E00E94D429A40193010E94D6
:104010003C2AC90181509F4F181619061CF4522ED4
:104020005A9403C055245394521A60E874E88EE100
:1040300090E0A40193010E943C2A2150304040406E
:104040005040CA01B90122E030E040E050E00E9457
:104050003C2A209530954095509583E0220F331FE0
:10406000441F551F8A95D1F760E072E18AE790E01E
:104070000E943C2ACA01B9012FEF30E040E050E035
:104080000E94D429A40193010E943C2AC9018150B5
:104090009F4F181619061CF4822F815002C081E030
:1040A000821B851500F5E885F98581E090E00A8896
:1040B00002C0880F991F0A94E2F7808360E874E8D1
:1040C0008EE190E0A40193010E943C2A21503040EF
:1040D00040405040CA01B90122E030E040E050E0E9
:1040E0000E943C2A04C0E885F98510829501EC8184
:1040F000FD813083EE81FF812083EA85FB8520816D
:1041000041E050E0CA010E8402C0880F991F0A9452
:10411000E2F7282B2083EA85FB852081CA010F84E2
:1041200002C0880F991F0A94E2F7282B2083EA85A2
:10413000FB858081088802C0440F551F0A94E2F76E
:10414000842B8083DF91CF911F910F91FF90EF908F
:10415000DF90CF90BF90AF909F908F907F906F90A7
:104160005F900895DC011296ED91FC911397E05851
:10417000FF4F8191919180589F4F20813181821B07
:10418000930B60E870E00E94072A0895DC01129604
:10419000ED91FC911397EE57FF4F20813181929161
:1041A0008291E058F0408217930719F42FEF3FEF08
:1041B00005C0E20FF31F8081282F30E0C901089568
:1041C000CF93DF93DC011296ED91FC911397EF01F1
:1041D000CE57DF4F48815981E058FF4F8081918150
:1041E000E058F0408417950719F42FEF3FEF0CC00B
:1041F000E40FF51F2081CA01019660E870E00E947B
:10420000072A9983888330E0C901DF91CF9108950F
:10421000DC011296ED91FC911397EE57FF4F8081D0
:104220009181929382930895FC01A085B1852189A3
:104230008C9190E0022E02C0959587950A94E2F742
:1042400080FFF6CF0484F585E02D6083089581EF2B
:1042500092E0909306058093050581E894E09093A1
:1042600008058093070585EC90E090930A058093FC
:10427000090584EC90E090930C0580930B0580EC8D
:1042800090E090930E0580930D0581EC90E0909363
:10429000100580930F0586EC90E0909312058093B3
:1042A000110584E08093130583E08093140587E073
:1042B0008093150585E08093160581E080931705AE
:1042C00008950E94CE1D0E944B1A0E94F919FDCF3D
:1042D0000F931F93CF93DF938C01EB0109C02196BD
:1042E000D801ED91FC910190F081E02DC801099574
:1042F00068816623A1F7DF91CF911F910F910895F7
:10430000EF92FF920F931F93CF93DF938C017B016A
:10431000EA010CC0D7016D917D01D801ED91FC91AE
:104320000190F081E02DC80109952197209791F720
:10433000DF91CF911F910F91FF90EF900895DC01D5
:10434000ED91FC910280F381E02D099508952F9263
:104350003F924F925F926F927F928F929F92AF9215
:10436000BF92CF92DF92EF92FF920F931F93DF9352
:10437000CF93CDB7DEB7A0970FB6F894DEBF0FBED0
:10438000CDBF1C016A017B01411551056105710515
:1043900049F440E350E060E070E020E030E00E944B
:1043A000502256C0882499245401422E5524662454
:1043B000772401E010E00C0F1D1F080D191DC70127
:1043C000B601A30192010E941A2AF80160830894A1
:1043D000811C911CA11CB11CC701B601A301920153
:1043E0000E941A2AC901DA016C017D01C114D104AD
:1043F000E104F104F1F681E0E82EF12CEC0EFD1E53
:10440000E80CF91C3E010894611C711CD501C40123
:104410000197A109B1096C01C818D90816C0F601A5
:10442000EE0DFF1D40814A3010F4405D01C0495C33
:10443000552747FD5095652F752FC10120E030E0CD
:104440000E9450220894E108F1086E147F0439F7A5
:10445000A0960FB6F894DEBF0FBECDBFCF91DF910F
:104460001F910F91FF90EF90DF90CF90BF90AF9092
:104470009F908F907F906F905F904F903F902F9084
:104480000895DC012115310541F4ED91FC91019075
:10449000F081E02D642F099508950E94A7210895C9
:1044A000EF92FF920F931F93CF93DF93EC017A016A
:1044B0008B012115310541F4E881F9810190F081EA
:1044C000E02D642F09951BC02A303105B1F477FF28
:1044D00010C04DE250E060E070E020E030E00E946B
:1044E000502210950095F094E094E11CF11C011D00
:1044F000111DCE01B801A7012AE00E94A721DF917A
:10450000CF911F910F91FF90EF900895EF92FF923E
:104510000F931F937B019A010027F7FC0095102F42
:10452000B801A7010E9450221F910F91FF90EF90B8
:1045300008950F931F938C014DE050E060E070E010
:1045400020E030E00E945022C8014AE050E060E0E4
:1045500070E020E030E00E9450221F910F910895FA
:104560000F931F938C010E944122C8010E9499223F
:104570001F910F910895CF92DF92EF92FF920F93C8
:104580001F938C019A016B01EE24FF24B701A60151
:104590000E944122C8010E9499221F910F91FF9011
:1045A000EF90DF90CF9008950F931F938C010E949E
:1045B0009F21C8010E9499221F910F9108950F9386
:1045C0001F938C010E945022C8010E9499221F91C2
:1045D0000F910895CF92DF92EF92FF920F931F9366
:1045E0008C016B019A01EE24D7FCE094FE2CB701FC
:1045F000A6010E945022C8010E9499221F910F918A
:10460000FF90EF90DF90CF9008959F92AF92BF926E
:10461000CF92DF92EF92FF920F931F93CF93DF938E
:10462000EC017A018B01922ECB01BA0120E030E03F
:1046300040E050E00E94B72688236CF4CE014DE2A2
:1046400050E060E070E020E030E00E94502217FB74
:10465000109517F9109520E030E040E05FE3AA24C0
:104660000BC0CA01B90120E030E040E251E40E94F1
:10467000BB269B01AC01A394A91498F3C801B70110
:104680000E9453265B016C010E9428277B018C014C
:10469000CE01B801A7012AE030E00E944122992012
:1046A00029F0CE0166E872E00E949F21C801B7019F
:1046B0000E9454279B01AC01C601B5010E945226FD
:1046C00022C020E030E040E251E40E940A287B0151
:1046D0008C010E9423275B016C01CC24B7FCC094A1
:1046E000DC2CCE01B601A5012AE030E00E94502268
:1046F000C601B5010E9456279B01AC01C801B70154
:104700000E9452269A949920E1F6DF91CF911F9151
:104710000F91FF90EF90DF90CF90BF90AF909F9060
:1047200008950E94052308950F931F938C010E9402
:104730000523C8010E9499221F910F91089581308D
:1047400041F0813018F08230D1F409C010926E002F
:10475000089580916F008D7F80936F000895809100
:1047600070008D7F8093700081E08093B000809115
:10477000B100887F84608093B1001092B3000895E7
:104780001F920F920FB60F9211242F933F934F93C6
:104790005F936F937F938F939F93AF93BF93EF93A9
:1047A000FF938091260590912705A0912805B0914F
:1047B00029050097A105B10551F1E0912A05F09175
:1047C0002B05808190912C05892780838091260577
:1047D00090912705A0912805B09129051816190672
:1047E0001A061B060CF58091260590912705A091CD
:1047F0002805B09129050197A109B10980932605E3
:1048000090932705A0932805B09329050DC082E059
:104810000E949F23E0912A05F0912B0590818091C1
:104820002C05809589238083FF91EF91BF91AF91F3
:104830009F918F917F916F915F914F913F912F91B8
:104840000F900FBE0F901F9018951F93182F8091F7
:10485000D602811711F09FEF06C0E8EEF3E09491C5
:104860008FEF8093D602892F0E949F23812F60E0D3
:104870000E94541E1F9108952F923F925F926F9253
:104880007F928F929F92AF92BF92CF92DF92EF92E0
:10489000FF920F931F93DF93CF9300D000D0CDB73B
:1048A000DEB7A82F1B0129833A834B835C83809159
:1048B000D6028A1721F4E8EEF3E0549082C08F3FCD
:1048C00009F0DAC1A093D602E8EEF3E054902FEF9E
:1048D000521609F4D1C181E0581639F192E0591607
:1048E00009F449C0552009F06CC014BC15BC84B54E
:1048F000826084BD85B5816085BD2A2F30E0F901D5
:10490000E95FFB4FE491F0E0EE0FFF1FED50FC4F2D
:104910008591949190931D0580931C05255E3B4FD6
:10492000F901849180931E054EC010928000109270
:104930008100809181008860809381008091810056
:104940008160809381002A2F30E0F901E95FFB4FFD
:10495000E491F0E0EE0FFF1FED50FC4F8591949134
:104960009093240580932305255E3B4FF9018491A4
:104970008093250528C01092B0001092B10080915C
:10498000B00082608093B0008091B100816080931C
:10499000B1002A2F30E0F901E95FFB4FE491F0E02C
:1049A000EE0FFF1FED50FC4F8591949190932B05D6
:1049B00080932A05255E3B4FF901849180932C0555
:1049C00002C057FC59C18A2F61E00E942E1E55205B
:1049D00021F0F2E05F1609F0BEC03101882499246D
:1049E00060E079E08DE390E0A40193010E943C2A0D
:1049F00059016A01860175010894E108F10801096D
:104A000011092FEFE216F1040105110509F008F470
:104A100099C060E271EA87E090E0A40193010E94EE
:104A20003C2A79018A010894E108F1080109110979
:104A300082E05816C1F49FEFE916F1040105110553
:104A400009F008F484C068E478EE81E090E0A40105
:104A500093010E943C2A79018A010894E108F10837
:104A60000109110983E0AFEFEA16F1040105110510
:104A700009F008F468C064E274EF80E090E0A401FB
:104A800093010E943C2A79018A010894E108F10807
:104A900001091109552011F483E01DC0B2E05B1635
:104AA00011F084E018C0EFEFEE16F10401051105D6
:104AB00009F008F4DFC062E17AE780E090E0A40149
:104AC00093010E943C2A79018A010894E108F108C7
:104AD0000109110985E0FFEFEF16F1040105110549
:104AE00091F188F169E07DE380E090E0A401930119
:104AF0000E943C2A79018A010894E108F108010921
:104B00001109552011F086E001C084E02FEFE21674
:104B1000F10401051105B9F0B0F0C601B50120E0BE
:104B200034E040E050E00E943C2A79018A01089478
:104B3000E108F10801091109552011F087E008C0CA
:104B400085E003C081E0552019F485BD3AC082E0BC
:104B50008093B10036C05101CC24DD2460E079E0BF
:104B60008DE390E0A60195010E943C2A79018A011B
:104B70000894E108F1080109110980E0E81680E0D5
:104B8000F80681E0080780E0180710F491E010C0F3
:104B900064E274EF80E090E0A60195010E943C2A57
:104BA00079018A010894E108F1080109110993E0EB
:104BB000A1E05A1631F480918100887F982B909360
:104BC000810089819A81AB81BC810097A105B105E3
:104BD00029F48FEF9FEFAFEFBFEF13C0220C331C10
:104BE000B10180E090E029813A814B815C810E9493
:104BF000D42928EE33E040E050E00E941A2AC9018F
:104C0000DA01E1E05E16A1F0F2E05F1619F155203D
:104C100099F5E7BC8093180590931905A0931A05A0
:104C2000B0931B0580916E00826080936E0024C05B
:104C3000F0928900E092880080931F0590932005F0
:104C4000A0932105B093220580916F00826080932C
:104C50006F0012C0E092B300809326059093270561
:104C6000A0932805B09329058091700082608093FD
:104C7000700002C084E06CCF0F900F900F900F90E7
:104C8000CF91DF911F910F91FF90EF90DF90CF9028
:104C9000BF90AF909F908F907F906F905F903F906C
:104CA0002F9008955058BB27AA270ED075C166D102
:104CB00030F06BD120F031F49F3F11F41EF45BC152
:104CC0000EF4E095E7FB51C1E92F77D180F3BA17D5
:104CD000620773078407950718F071F49EF58FC17A
:104CE0000EF4E0950B2EBA2FA02D0B01B901900107
:104CF0000C01CA01A0011124FF27591B99F0593F4B
:104D000050F4503E68F11A16F040A22F232F342F92
:104D10004427585FF3CF469537952795A795F040E0
:104D20005395C9F77EF41F16BA0B620B730B840BF5
:104D3000BAF09150A1F0FF0FBB1F661F771F881FAD
:104D4000C2F70EC0BA0F621F731F841F48F4879505
:104D500077956795B795F7959E3F08F0B3CF9395F4
:104D6000880F08F09927EE0F979587950895D9D069
:104D700008F481E008950CD00FC107D140F0FED0B7
:104D800030F021F45F3F19F0F0C0511139C1F3C088
:104D900014D198F39923C9F35523B1F3951B550BFF
:104DA000BB27AA2762177307840738F09F5F5F4FFE
:104DB000220F331F441FAA1FA9F333D00E2E3AF03F
:104DC000E0E830D091505040E695001CCAF729D059
:104DD000FE2F27D0660F771F881FBB1F26173707A8
:104DE0004807AB07B0E809F0BB0B802DBF01FF27D8
:104DF00093585F4F2AF09E3F510568F0B6C000C13E
:104E00005F3FECF3983EDCF3869577956795B79511
:104E1000F7959F5FC9F7880F911D9695879597F92C
:104E20000895E1E0660F771F881FBB1F62177307A5
:104E30008407BA0720F0621B730B840BBA0BEE1FBA
:104E400088F7E095089504D06894B111D9C0089509
:104E5000BCD088F09F5790F0B92F9927B751A0F098
:104E6000D1F0660F771F881F991F1AF0BA95C9F7FE
:104E700012C0B13081F0C3D0B1E00895C0C0672F37
:104E8000782F8827B85F39F0B93FCCF386957795AE
:104E90006795B395D9F73EF4909580957095619597
:104EA0007F4F8F4F9F4F0895E89409C097FB3EF4C2
:104EB00090958095709561957F4F8F4F9F4F992367
:104EC000A9F0F92F96E9BB279395F69587957795E5
:104ED0006795B795F111F8CFFAF4BB0F11F460FFA5
:104EE0001BC06F5F7F4F8F4F9F4F16C0882311F0FD
:104EF00096E911C0772321F09EE8872F762F05C011
:104F0000662371F096E8862F70E060E02AF09A95AB
:104F1000660F771F881FDAF7880F9695879597F9A0
:104F20000895990F0008550FAA0BE0E8FEEF16163A
:104F30001706E807F907C0F012161306E407F5078D
:104F400098F0621B730B840B950B39F40A2661F001
:104F5000232B242B252B21F408950A2609F4A140A4
:104F6000A6958FEF811D811D089597F99F6780E8B1
:104F700070E060E008959FEF80EC089500240A94AB
:104F80001616170618060906089500240A94121624
:104F90001306140605060895092E0394000C11F457
:104FA000882352F0BB0F40F4BF2B11F460FF04C004
:104FB0006F5F7F4F8F4F9F4F089557FD9058440F5D
:104FC000551F59F05F3F71F04795880F97FB991F68
:104FD00061F09F3F79F08795089512161306140625
:104FE000551FF2CF4695F1DF08C0161617061806B2
:104FF000991FF1CF86957105610508940895E8948D
:10500000BB2766277727CB0197F908958ADF08F435
:105010008FEF08950BD0C0CFB1DF28F0B6DF18F0C6
:10502000952309F0A2CFA7CF1124EACFC6DFA0F3C2
:10503000959FD1F3950F50E0551F629FF001729F2D
:10504000BB27F00DB11D639FAA27F00DB11DAA1F4C
:10505000649F6627B00DA11D661F829F2227B00D99
:10506000A11D621F739FB00DA11D621F839FA00D24
:10507000611D221F749F3327A00D611D231F849F74
:10508000600D211D822F762F6A2F11249F575040CB
:105090008AF0E1F088234AF0EE0FFF1FBB1F661F66
:1050A000771F881F91505040A9F79E3F510570F01F
:1050B0005CCFA6CF5F3FECF3983EDCF38695779507
:1050C0006795B795F795E7959F5FC1F7FE2B880F1A
:1050D000911D9695879597F90895FA01EE0FFF1F98
:1050E00030962105310599F16115710561F480381B
:1050F000BFE39B0749F168949038810561F08038DF
:10510000BFEF9B0741F0992342F5FF3FE1053105D1
:10511000210511F1E8940894E795D901AA2329F40F
:10512000AB2FBE2FF85FD0F310C0FF5F70F4A695D1
:10513000E0F7F73950F019F0FF3A38F49F779F9372
:105140000CD00F9007FC905808953EF014CF60E00B
:1051500070E080E89FE308954FE79F775F934F9358
:105160003F932F939ED02F913F914F915F9152DFAC
:1051700005C019F40EF0F9CE42CFFDCE26DFC8F3FC
:105180009638C0F707F80F92E8942BE33AEA48EB19
:105190005FE74EDF0F920F920F924DB75EB70F92FF
:1051A000C0D0E8E6F0E016D04F915F91EF91FF910B
:1051B000E595EE1FFF1F49F0FE57E0684427EE0F0C
:1051C000441FFA95E1F74195550B32D00F9007FE39
:1051D00026C00895DF93CF931F930F93FF92EF9212
:1051E000DF927B018C01689405C0DA2EEF011EDF8F
:1051F000FE01E894A5912591359145915591AEF325
:10520000EF0162DDFE019701A801DA9479F7DF90E2
:10521000EF90FF900F911F91CF91DF9108959B0127
:10522000AC0160E070E080E89FE3A5CD9ECEACC00D
:10523000CCDEE8F39923D9F3940F511DBBF39150C1
:10524000504094F059F0882332F0660F771F881F82
:1052500091505040C1F79E3F510544F7880F911D72
:105260009695879597F908955F3FACF0983E9CF02E
:10527000BB27869577956795B79508F4B1609395A8
:10528000C1F7BB0F58F711F460FFE8CF6F5F7F4F96
:105290008F4F9F4FE3CFB4CE0EF076C06CCE6894A4
:1052A00064CE93DEC8F39923D1F3C6F3DF93CF9393
:1052B0001F930F93FF92C92FDD2788232AF0219790
:1052C000660F771F881FDAF720E030E040E85FEBD9
:1052D0009FE3883920F0803E30F021968F77E3DC21
:1052E000E0E9F0E003C0DFDCEDEBF0E073DF8B0121
:1052F000BE01EC01FB2E6F5771097595771F880B66
:10530000990BD4DD28E132E741E35FE38FDEAF2D77
:105310009801AE01FF900F911F91CF91DF91D4DCE6
:105320003BCEFA01DC01AA0FBB1F9B01AC01BF57AA
:1053300028F422273327442750781FC0B75188F418
:10534000AB2F0024469537952795011CA395D2F3E2
:10535000002069F0220F331F441FB395DAF30DD0FC
:10536000A1CC61307105A0E88A07B94630F49B01F1
:10537000AC016627772788279078309621F0208324
:1053800031834283538308959F3F49F0915028F41D
:10539000869577956795B7959F5F80389F4F880F63
:1053A0009695879597F90895629FD001739FF001B4
:1053B000829FE00DF11D649FE00DF11D929FF00DA5
:1053C000839FF00D749FF00D659FF00D9927729FDC
:1053D000B00DE11DF91F639FB00DE11DF91FBD0167
:1053E000CF0111240895AA1BBB1B51E107C0AA1FBE
:1053F000BB1FA617B70710F0A61BB70B881F991F76
:105400005A95A9F780959095BC01CD01089597FB19
:10541000092E07260AD077FD04D0E5DF06D000204C
:105420001AF4709561957F4F0895F6F790958195E0
:105430009F4F0895A1E21A2EAA1BBB1BFD010DC0B0
:10544000AA1FBB1FEE1FFF1FA217B307E407F50734
:1054500020F0A21BB30BE40BF50B661F771F881F10
:10546000991F1A9469F760957095809590959B01A6
:10547000AC01BD01CF01089597FB092E05260ED082
:1054800057FD04D0D7DF0AD0001C38F45095409562
:10549000309521953F4F4F4F5F4F0895F6F7909508
:1054A0008095709561957F4F8F4F9F4F0895EE0FB8
:1054B000FF1F0590F491E02D09942F923F924F9297
:1054C0005F926F927F928F929F92AF92BF92CF9294
:1054D000DF92EF92FF920F931F93CF93DF93CDB79D
:1054E000DEB7CA1BDB0B0FB6F894DEBF0FBECDBF15
:1054F00009942A88398848885F846E847D848C84E6
:105500009B84AA84B984C884DF80EE80FD800C81EE
:105510001B81AA81B981CE0FD11D0FB6F894DEBFD1
:0C5520000FBECDBFED010895F894FFCF41
:10552C004572726F7220696E20666C6173682C20F4
:10553C007465737420626C6F636B20002000202EE6
:10554C00004F757470757474696E6720002569005E
:10555C0054657374696E67207072657373757265C8
:10556C002073656E736F72202E2E2E00503A200021
:10557C0020543A2000446F6E652E00503A200020D3
:10558C00543A200020423A200020533A2000663141
:10559C0020006632200066332000466C6967687410
:1055AC00206865696768743A20002E00546573742E
:1055BC00696E672073656E736F72206E6F697365A9
:1055CC002E0064656C7461503A200064656C7461E3
:1055DC00543A200064656C7461563A200042756937
:1055EC006C643A200053756E204D61722030362069
:1055FC0031363A33393A33322032303131002000EF
:10560C0054657374696E6720726164696F202E2E05
:10561C002E004C6F6720696E74657276616C3A204F
:10562C000048656967687420756E6974733A200068
:10563C004261747465727920747970653A20006ED9
:10564C006F2062617474657279004C49504F20620E
:10565C00617474657279004E494D482062617474AE
:10566C00657279004C6F7720766F6C74616765207A
:10567C007468726573686F6C643A2000426174746C
:10568C00657279206D6F6E69746F722063616C69DD
:10569C0062726174696F6E3A20004C6F672073659B
:1056AC0072766F3A20002E00012D0802002D09029F
:1056BC00004D0A0200EA0A0200400C0200FFFFB88B
:1056CC000B0400FDFF0400FEFFB80B1000FDFF04EF
:1056DC0000B80B1000FDFF0400B80B1000FDFF64B8
:1056EC0000FEFF2D0802004D0A02002D08020040AA
:1056FC000C0200FFFF01FF2D0802002D0902004DD6
:10570C000A0200EA0A0200400C0200FFFF0000003F
:10571C0000142168218021B220E0200821C620003D
:00000001FF
